:020000040040BA
:1000000038360020C51E4000C11E4000C11E400001
:10001000C11E4000C11E4000C11E40000000000083
:1000200000000000000000000000000091024000FD
:10003000C11E400000000000310340009503400055
:10004000C11E4000C11E4000C11E4000C11E400034
:10005000C11E4000C11E4000C11E4000C11E400024
:10006000C11E4000C11E4000C11E4000C11E400014
:10007000C11E4000C11E4000C11E4000C11E400004
:10008000C11E4000C11E4000C11E4000C11E4000F4
:10009000C11E4000C11E4000C11E4000C11E4000E4
:1000A000C11E4000C11E4000C11E4000C11E4000D4
:1000B000C11E4000C11E4000C11E4000C11E4000C4
:1000C000C11E4000C11E4000C11E4000C11E4000B4
:1000D000C11E4000C11E4000C11E4000C11E4000A4
:1000E000C11E4000C11E4000C11E4000C11E400094
:1000F000C11E4000C11E400010B5054C237833B925
:10010000044B13B10448AFF300800123237010BDEA
:100110003C04002000000000382640000C4B43B196
:100120000C480D4910B5AFF300800C48036823B9A3
:1001300010BD0A48036833B97047094B002BF7D04C
:10014000BDE810401847064B002BF5D0184700BFFC
:1001500000000000382640004004002038264000FF
:100160000000000000F1080343604FF0FF3282609E
:10017000C36003610023036070470023036170477D
:1001800030B40D68B5F1FF3F02D000F1080202E083
:10019000026904E01A4653681C68A542FAD2536803
:1001A0004B6099608A6051600861036801330360A5
:1001B00030BC704703694268816891608268416819
:1001C00051605A68904204BF82685A6000220261FE
:1001D0001A68013A1A6018687047000008480068F9
:1001E000006880F308884FF0000080F3148862B63E
:1001F00061B6BFF34F8FBFF36F8F00DF00BF00000A
:1002000008ED00E0DFF80C00016841F470010160C6
:100210007047000088ED00E000B583B00023019333
:100220000B4B1B68B3F1FF3F03D0E72109480A4B92
:1002300098474FF0500383F31188BFF36F8FBFF3DC
:100240004F8F019B002BFCD003B05DF804FB00BF77
:1002500000000020302540009D2140004FF08073B9
:1002600040F8043C21F0010140F8081C054B40F81F
:100270000C3C40F8202C6FF0020340F8243C44383A
:10028000704700BF1902400000000000000000009D
:10029000074B19680868B0E8F04F80F30988BFF38E
:1002A0006F8F4FF0000080F311887047AFF300802C
:1002B0008004002008B54FF0500383F31188BFF38A
:1002C0006F8FBFF34F8F094A136801331360012BFF
:1002D00000D008BD064B1B6813F0FF0FF9D04FF498
:1002E000D3710448044B9847F3E700BF0000002097
:1002F00004ED00E0302540009D21400008B5084B8A
:100300001B683BB1064A1368013B13600BB983F3CA
:10031000118808BD40F2AD110248034B9847F1E740
:1003200000000020302540009D214000000000001A
:10033000EFF30980BFF36F8F154B1A681EF0100F93
:1003400008BF20ED108A20E9F04F10602DE9090068
:100350004FF0500080F31188BFF34F8FBFF36F8FC2
:1003600001F0B4F84FF0000080F3118809BC19685F
:100370000868B0E8F04F1EF0100F08BFB0EC108A0C
:1003800080F30988BFF36F8F704700BFAFF3008021
:100390008004002008B54FF0500383F31188BFF3A9
:1003A0006F8FBFF34F8F054B984718B14FF08052B6
:1003B000034B1A60002383F3118808BD1911400014
:1003C00004ED00E0084A0023136008490B60084B65
:1003D0001B680849A1FB03139B09013B06490B60FD
:1003E00007231360704700BF10E000E018E000E052
:1003F0000C000020D34D621014E000E010B582B074
:10040000364B1A68364B9A421ED0344B1A68354B1D
:100410009A421FD0344B1A78D2B20192FF221A703E
:100420001B78DBB28DF803309DF8033003F05003E6
:100430002E4A137007222E4B1A609DF8033013F0DA
:10044000800F1ED006220CE04FF4977129482A4BEA
:100450009847DAE740F22F112648274B9847D9E70B
:100460000A469DF803305B00DBB28DF803309DF83F
:100470000330511E13F0800FF2D11D4B1A60032A76
:1004800004D040F261111B481B4B9847184A13686F
:100490001B0203F4E0631360019BDBB2124A13708A
:1004A000164B1A6842F470021A601A6842F07042E1
:1004B0001A60134B98470024124B1C60124B98474C
:1004C000124A136843F040431360114B9847114B95
:1004D0009847114B9847204602B010BD00ED00E050
:1004E00071C20F4170C20F4100E400E058040020C7
:1004F0005C040020302540009D21400020ED00E0FC
:10050000C5034000000000200502400034EF00E079
:10051000DD014000CD1440001902400010B4134A20
:1005200000E01A4613688342FBD351685418A04276
:100530000AD041684418A3420BD00360904218BF10
:1005400010605DF8044B70474068014451601046EC
:10055000EFE7074C2468A34206D05B68194441606A
:1005600013681B680360E9E70360E7E7780400208D
:1005700060040020F8B504462F4B1B68EBB12F4BED
:1005800098472F4B1D6825424DD1002C4ED004F1C9
:1005900008018C424AD211F0070F05D021F0070361
:1005A0000833994242D2194600293CD0254B1E6897
:1005B000B14238D8244A146806E08E212348244BDF
:1005C0009847DCE722461C466368994202D92368B3
:1005D000002BF7D1184B1B689C4224D017680837B2
:1005E0002368136063685B1A102B16D86268B61A0A
:1005F00014490E60174909688E423CBF15490E60C8
:100600001543656000232360134A136801331360A8
:10061000124B984767B13846F8BD60184360616077
:100620000F4B9847E2E70D4B984701E00B4B98477B
:100630000C4B98470027EEE760040020FD104000B7
:100640006404002068040020780400206025400035
:100650009D2140006C04002070040020D512400051
:100660001D054000C9214000002844D010B50446B3
:1006700050F8042C204B1B681A4211D050F8083C4B
:10068000F3B140F22D111D481D4B984754F8043C1E
:10069000194A1268134202D054F8081CA1B110BDC7
:1006A0004FF496711548164B984754F8083C002BA8
:1006B000E7D154F8043C104A12681342EFD003E02B
:1006C00054F8043C0C4A126823EA020344F8043C40
:1006D0000C4B98470C4A54F8043C11680B441360C7
:1006E000A4F10800094B9847094A136801331360C5
:1006F000084B984710BD70476404002060254000F7
:100700009D214000FD104000680400201D054000B0
:1007100074040020D51240002DE9F84F0546354BF2
:100720001B6823B140F2A3113348344B9847D5F8E6
:1007300004B0BBF1000F52D008350026B0462D4F53
:10074000DFF8B4A0DFF8B4901DE03B6873B33B68FA
:10075000A34230D239680BEB0403083B23F00703B4
:100760003B6000225A601A602246181B60602360BA
:1007700001B10C60536898440136083555F804BC43
:10078000BBF1000F1CD055F8084C14F0070F06D031
:10079000E21D22F00702A344ABEB020B1446002E2D
:1007A000D3D1174B1C6000225A60D3E740F2C51129
:1007B0005046C847CBE74FF4E4715046C847C9E7F5
:1007C000104BC3F80080104BC3F80080B8F1000F45
:1007D0000AD04FF000420D4B1A60BDE8F88F00239D
:1007E000084A1360084A136040F2F1110248034BB3
:1007F0009847EEE760040020602540009D214000FE
:10080000780400206C0400206804002064040020A8
:1008100010B50446044B9847A46B044B9847B4FAB0
:1008200084F0400910BD00BFB5024000FD02400049
:1008300070B504461646856B026C5AB903680020F1
:1008400013B10135A56370BDA068174B984700230D
:10085000A360F6E76EB94068144B98476368226C52
:1008600013446360A268934219D323686360002035
:10087000E7E7C0680D4B9847226C5242E368134487
:10088000E36021688B4202D2A3681A44E260022E20
:1008900001D00020D5E725B1013D0020D1E700209F
:1008A000CFE70020CDE700BFF9174000412240000C
:1008B00070B582B00190846C5CB1A26BE36B9A421C
:1008C0000DD2A26BE36B9A420FD30026304602B0E2
:1008D00070BD40F6D5311748174B9847EDE740F605
:1008E000D6311448144B9847EBE794F845506DB255
:1008F000002201A92046114B98470646B5F1FF3F5B
:1009000006D07F2D0FD001356DB284F84550DDE75C
:10091000636A002BDAD004F12400094B98470028C1
:1009200018BF0126D2E740F6F6310248024B98473D
:10093000E9E700BF8C2540009D21400031084000C0
:100940003D164000026C72B110B5C3681344C36019
:100950008468A34224BF0368C3600C46C168204674
:10096000014B984710BD7047412240002DE9F041EE
:100970000546234B984795F8454064B2002C18DD96
:10098000204EDFF88C80204F08E06B6A8BB105F1B8
:100990002400B84758B9013C64B254B1AB6C002B89
:1009A000F3D02846B0470028F5D0C047F3E7C0474A
:1009B000F1E7FF2385F84530144B9847104B9847D3
:1009C00095F8444064B2002C12DD2B6983B105F127
:1009D00010070D4EDFF8388004E0013C64B23CB1F2
:1009E0002B692BB13846B0470028F6D0C047F4E752
:1009F000FF2385F84430054B9847BDE8F08100BFE0
:100A0000B5024000B10840003D164000FD02400024
:100A1000CD17400038B550B10D460446C36B63B9DD
:100A200040F245112148224B9847002038BD4FF431
:100A300088711E481E4B9847F2E74FF0FF32B2FB19
:100A4000F3F3226C9342EBD31A4B98472268216C44
:100A5000E36B03FB01F3D018A0600020A063626089
:100A60005B1A1344E360FF2384F8443084F8453074
:100A7000A5B923691BB9104B9847012038BD04F173
:100A800010000E4B98470028F5D04FF080520C4BC9
:100A90001A60BFF34F8FBFF36F8FECE704F11000C4
:100AA000084DA84704F12400A847E4E78C2540003E
:100AB0009D214000B5024000FD0240003D1640006F
:100AC00004ED00E06501400070B508B30D46064630
:100AD0004FF0FF33B3FBF0F38B4219D301FB00F06F
:100AE00010F14D0F14D84C300D4B9847044658B1B7
:100AF00065B100F14C030360E663256401212046E3
:100B0000084B98470023A364204670BD2060F3E79C
:100B10004FF4E3710448054B98470024F4E700BF05
:100B200075054000150A40008C2540009D214000BD
:100B30002DE9F04784B088460192044698B1B8F197
:100B4000000F16D04D4B984730B9019B23B140F2AE
:100B50005A514B484B4B98474FF0000A4A4D4B4E69
:100B6000DFF8389144E040F251514548454B9847F1
:100B7000E5E7236C002BE5D040F255514048414B4E
:100B80009847DFE741462046414B98477B1EA363C9
:100B900023692BB93F4B9847012004B0BDE8F0878B
:100BA00004F110003C4B98470028F3D04FF08052DE
:100BB0003A4B1A60BFF34F8FBFF36F8FEAE7354BA5
:100BC00098470020E9E702A8B0471BE02046344BD5
:100BD0009847344B984709E02046314B9847314BB2
:100BE00098472046304B9847002844D14FF0010ADF
:100BF000A847A76B002FC5D1019B002BDFD0BAF10E
:100C0000000FE0D0234B9847284B9847A84794F80B
:100C100044305BB2B3F1FF3F04BF002384F844309B
:100C200094F845305BB2B3F1FF3F04BF002384F872
:100C30004530184B984701A902A81D4B984700283A
:100C4000CAD12046184B98470028BFD0019904F11B
:100C50002400184B98472046114B9847114B984752
:100C60000028C3D14FF08053C9F80030BFF34F8F35
:100C7000BFF36F8FBAE700208FE700BFD91740009E
:100C80008C2540009D214000B502400031174000F6
:100C900045094000FD0240003D16400004ED00E023
:100CA0006D094000D512400011084000FD104000C1
:100CB000491740009D15400070B50D460446B8B177
:100CC000ADB1124B5B689C4218D0104A00210B4614
:100CD0001646A9B10133082B06D008325068844269
:100CE000F7D10A4901EBC30109B10D604C6070BD39
:100CF00040F6C8210648074B9847E1E70023F0E794
:100D000056F83300002808BF1146E3E7D00500205D
:100D10008C2540009D21400070B504460D461646C6
:100D2000114B984794F844305BB2B3F1FF3F04BFD6
:100D3000002384F8443094F845305BB2B3F1FF3FB0
:100D400004BF002384F84530084B9847A36B1BB1C0
:100D50002046074B984770BD3246294604F12400CF
:100D6000044B9847F4E700BFB5024000FD02400085
:100D70006D094000DD154000064A07484FF08051DC
:100D80001368012BFCD90160BFF34F8FBFF36F8F46
:100D9000F6E700BF8C04002004ED00E0074B1B6861
:100DA0001B6833B1054B1B68DB681A68044B1A607B
:100DB00070474FF0FF32024B1A60704784040020E6
:100DC0006805002038B50446164B1D68164B186898
:100DD0000430164B984748B9134B1A6814490B68EE
:100DE000D06A0122824023EA02030B602C440E4B9E
:100DF0001B685C60A5420DD80E4B18680A4B196839
:100E000004310D4B98470D4B1B689C423CBF0B4B6C
:100E10001C6038BD0A4B1868034B19680431064B37
:100E2000984738BD8C05002080040020B5014000A3
:100E3000380500208404002081014000680500205E
:100E4000880400202DE9F04F83B083460E460193BD
:100E50000C9DDDF834A0970038466C4B984700286D
:100E600000F0A58080466420684B9847044600281F
:100E700000F09A80C0F830803A46A5214046644B85
:100E80009847043F236B1F4427F00707002E00F00C
:100E90009180337884F8343033785BB1334604F191
:100EA00034021336597802F8011F13F8011F09B1F3
:100EB000B342F7D1002384F84730072D7ED8072DA1
:100EC00028BF0725E562A5640026E66404F104084E
:100ED0004046DFF88C91C84704F11800C8472461E8
:100EE000C5F10805A561646226656665A665E665C7
:100EF00084F86060019A59463846464B984720600E
:100F0000BAF1000F01D0CAF80040434B9847434A5A
:100F1000136801331360424B1B68002B54D0414BC4
:100F20001B683BB93E4B1B68DA6AE36A9A429CBF76
:100F30003B4B1C603C4A136801331360E36A3B4936
:100F4000086801229A4002430A60394A03EB83038E
:100F500002EB83035B68A3609968E1609968C1F85C
:100F60000480C3F80880E06A8300191889005518C6
:100F700065615158013103449B00D1502D4B984776
:100F8000284B1B68002B3BD0254B1B68DA6AE36AB1
:100F90009A4239D24FF08052274B1A60BFF34F8FDD
:100FA000BFF36F8F01202CE04046244B98474FF051
:100FB000FF3026E0002384F834307EE740F297319A
:100FC0001F48204B98477AE7154B1C601368012B8C
:100FD000B0D1174D05F1A0071B4E2846B047143578
:100FE000AF42FAD1194F3846174DA847184E304630
:100FF000A8471848A847184B1F60184B1E6099E770
:10100000012003B0BDE8F08F0120FAE7750540002C
:10101000752340005D024000B50240002C05002011
:1010200080040020880500203405002038050020B9
:101030008C040020FD02400004ED00E06906400041
:10104000AC2540009D214000650140003C0500208A
:10105000500500207405002084040020880400202E
:101060007B01400010B582B0184B01930023009320
:10107000822217491748184CA047012806D0B0F122
:10108000FF3F1CD0154B1B6802B010BD144B984796
:101090000128F4D14FF0500383F31188BFF36F8F11
:1010A000BFF34F8F4FF0FF320E4B1A6001220E4BF1
:1010B0001A6000220D4B1A600D4B9847E2E74FF47F
:1010C00004610C480C4B9847DCE700BF6405002026
:1010D000A4254000790D4000450E4000040000208A
:1010E000151C400068050020880500208C050020A4
:1010F000FD034000AC2540009D214000024A1368DA
:1011000001331360704700BF30050020014B1868A1
:10111000704700BF8C0500202DE9F84F5F4B1B681E
:10112000002B40F0B3805E4B1C6804F1010BC3F848
:1011300000B0BBF1000F0FD15A4B1B681B6813BBEB
:10114000584A1168584B186810601960574A13685C
:1011500001331360564B9847564B1B689B4518D27A
:101160000020554B1B68DB6A03EB83039B00534A4B
:10117000D358022B28BF0120514B1B68002B18BFEE
:101180000120BDE8F88F40F6C7214E484E4B9847E6
:10119000D6E70020434907464C4D4FF0010E474A21
:1011A000DFF8148136E04FF0FF32424B1A60D8E787
:1011B000404B1E60D5E7DE6AD5F800A00EFA06F9AE
:1011C00049EA0A09C5F8009006EB860602EB860696
:1011D00076689E60B468DC60B468C4F804C0C6F881
:1011E00008C0D3F82C904FEA890606EB090C02EBF5
:1011F0008C0AC3F814A052F82CC00CF1010C4E4418
:1012000042F826C0D8F800C0DE6ADCF82C309E42D6
:1012100028BF01200B681B68002BC4D00B68DB685B
:10122000DB685E68B345C3D3D3F814909E68DC686E
:10123000B460DE689C68746003F1040CD9F8046043
:10124000664504BFDE68C9F804605F61D9F80060D4
:10125000013EC9F80060D3F82890B9F1000FAAD078
:10126000DE691C6AB4601E6ADC69746003F1180AE6
:10127000D9F80460564504BF1E6AC9F804609F622D
:10128000D9F80060013EC9F8006094E7104A13687D
:10129000013313600020BDE8F88F00BF3005002047
:1012A0008C05002084040020880400206C050020A8
:1012B0009D0D400068050020800400208C04002063
:1012C00090050020AC2540009D21400038050020FD
:1012D000700500202DE9F047574B1B68002B7AD092
:1012E000564B9847544B1A68013A1A601B68002BFA
:1012F00040F09A80524B1B68002B72D0002351495A
:101300001C4651480126514ADFF864A1DFF854E138
:101310000D68002D67D0CB68DB68D3F828C0DD6985
:101320001F6AAF601D6ADF696F6003F11808DCF89F
:101330000450454504BF1D6ACCF804509C62DCF89B
:101340000050013DCCF80050D3F814C09D68DF6810
:10135000AF60DD689F686F6003F10408DCF804503B
:10136000454504BFDD68CCF804505C61DCF80050F2
:10137000013DCCF80050DD6AD0F8009006FA05FC7B
:101380004CEA090CC0F800C005EB850502EB8505A9
:101390006D689D60AF68DF60AF68C7F80480C5F80E
:1013A0000880D3F82C804FEA880505EB080C02EB87
:1013B0008C09C3F8149052F82CC00CF1010C454470
:1013C00042F825C0DAF80050ED6ADF6AAF429FD3D9
:1013D000CEF800609CE740F6B3011D481D4B9847CE
:1013E0007EE7002421E00BB11B4B98471B4B1C6888
:1013F0006CB11B4D1B4F012601E0013C04D0A847F6
:101400000028FAD03E60F8E70022144B1A60154B12
:101410001B687BB14FF08052134B1A60BFF34F8FA4
:10142000BFF36F8F012400E00024104B9847204643
:10143000BDE8F0870024F8E730050020B502400041
:101440002C05002074050020380500208C040020A5
:10145000AC2540009D2140009D0D400070050020FE
:10146000191140009005002004ED00E0FD0240004D
:101470008004002010B560B104460D4B1B688BB989
:101480000C4B9847002120460B4B98470B4B984735
:1014900038B94FF080520A4B1A60BFF34F8FBFF339
:1014A0006F8F10BD40F249510648074B9847E7E758
:1014B00030050020FD104000C50D4000D512400051
:1014C00004ED00E0AC2540009D2140002B4B1B6843
:1014D000002B34D110B50022294B1A60294B1B6810
:1014E0001B6B1A68B2F1A53F2DD0264B18681968FE
:1014F0003431254B9847254B1C68B4FA84F4E4B288
:10150000C4F11F0404EB84039B00214AD3583BB36E
:101510001F4BA200111903EB810148684068486025
:1015200022440B460833984220D004EB8404184B25
:1015300003EB84046368DA68124B1A6010BD012261
:101540000F4B1A6070475A68B2F1A53FCDD19A6827
:10155000B2F1A53FC9D1DB68B3F1A53FC5D1CAE758
:1015600040F602410B480C4B9847D1E741681346BF
:10157000074A02EB83035960D7E700BF300500201C
:101580009005002080040020DD2140003805002067
:101590008C040020AC2540009D21400038B50C464D
:1015A000054650B1084B196818312846074B984733
:1015B00001212046064B984738BD40F61C4105489E
:1015C000054B9847EEE700BF8004002081014000F2
:1015D000C50D4000AC2540009D21400070B50E4671
:1015E00015460446D8B16268104B1968CA6119687B
:1015F000906808629068196818314160196818315C
:1016000091601B689C62236801332360002D29468A
:101610000CBF30464FF0FF30054B984770BD40F689
:1016200052410448044B9847DDE700BF8004002086
:10163000C50D4000AC2540009D21400038B5C36871
:10164000DC68002C51D0A36AE269216A9160226AA9
:10165000E169516004F118015A688A4204BF226AA4
:101660005A600022A2621A68013A1A60284B1B686D
:10167000002B40D16369A268E1689160E268A168CB
:101680005160211D5A688A4204BFE2685A600022F4
:1016900062611A68013A1A60E36A1E48056801220D
:1016A0009A402A4302601C4A03EB830302EB830344
:1016B0005B68A3609868E060986841609960E06A40
:1016C0008300191889005518656151580131034488
:1016D0009B00D150114B1B68E26ADB6A9A4283BFC0
:1016E00001200F4B1860002038BD40F682410D48A4
:1016F0000D4B9847A7E70D4B5A68E261906820624E
:10170000906841609160A3621A6801321A60E1E753
:1017100030050020380500208C04002080040020C3
:1017200090050020AC2540009D214000740500205C
:10173000034B1B680360034B1B684360704700BF8B
:101740006C0500208C05002038B50C460546B8B164
:10175000E4B1174B9847174B1B686A68164909682C
:101760002868884201D0934216D29B1A226893427D
:1017700016D3002323600124104B9847204638BD20
:1017800040F6FD410E480F4B9847E1E740F6FE4119
:101790000B480C4B9847DCE7002323600124EBE760
:1017A000D31A23602846084B98470024E4E700BF7B
:1017B000B50240008C0500206C050020FD024000B1
:1017C000AC2540009D214000311740000122014B13
:1017D0001A60704790050020054B1B6833B1054B1C
:1017E0001B68002B0CBF02200020704701207047AF
:1017F000880500203005002000284DD070B5044633
:10180000274B1B68984204D041F24F012548264BD4
:101810009847E36C4BB1E36C013BE364E16AA26C73
:1018200091423BD03BB1002070BD41F250011D48B8
:101830001D4B9847EFE7251D28461C4B984738B9A4
:101840001B490B68E06A0122824023EA02030B6015
:10185000A36CE362C3F10802A26115490E6801207E
:1018600000FA03F232430A60124A03EB830302EBED
:1018700083035B68A3609968E16099684D609D602F
:10188000E56AAB0059198900561866615158014440
:101890002B449B00D15070BD00207047002070BDCC
:1018A00080040020AC2540009D214000B50140008F
:1018B000380500208C04002008B541600061914289
:1018C0000CD8D21A83699A4201D3012008BD011DA8
:1018D000094B1868094B9847002008BD9A4201D26D
:1018E000994206D2011D064B1868044B9847002008
:1018F00008BD012008BD00BF9805002081014000FF
:1019000094050020F8B504460D461746074E04E03E
:10191000A3691D44236A20469847A1692B463A468D
:1019200029442046B0470028F2D1F8BDB91840003C
:1019300070B505460E460D4B1B68DB68DC68201D44
:101940000B4B984794F8243013F0040F07D123F081
:10195000010384F82430236A2046984770BD32463C
:1019600029462046034B9847F5E700BF9405002021
:10197000B5014000051940002DE9F0418046144BA7
:1019800098470446134B1B68984207D30023C8F8B6
:101990000030104B1C602046BDE8F0810E4B1B68E8
:1019A0001A685AB14FF0FF370C4E0B4DDB683946C1
:1019B0001868B0472B681A68002AF7D1084A1068DF
:1019C0000549086013600123C8F80030E1E700BF53
:1019D0000D114000C405002094050020311940007D
:1019E000980500202DE9F04F87B05E4E5E4F5F4DA9
:1019F000DFF8A891DFF8A88133681A6892B1DB6834
:101A0000D3F800A05A4B984702A85A4B984704466F
:101A1000029A42BB504515D3B84721465046564B13
:101A200098471EE0524B984702A8524B98470446ED
:101A3000029BC3B9514B1B681A68B2FA82F2520971
:101A40004FF0000AAAEB040128684D4B9847B847AD
:101A500038B94FF08053C9F80030BFF34F8FBFF350
:101A60006F8F484C08E0B847FBE705990498039B43
:101A70009847029B002B08DA002202A92868A04799
:101A80000028B9D0029B002BEFDBDDF810A0DAF8BC
:101A9000143013B10AF10400C04701A8354B984730
:101AA0008346029B013B082BE6D8DFE803F00505DF
:101AB0002D344D05052D34009AF8243043F00103F0
:101AC0008AF824300399DAF818000B465A46014484
:101AD00050462D4CA0470028C3D09AF8243013F06C
:101AE000040F08D123F001038AF82430DAF82030FB
:101AF00050469847B5E7DAF818305A460399194422
:101B00005046224B9847F1E79AF8243023F001031E
:101B10008AF82430A5E79AF8243043F001038AF8C4
:101B20002430039BCAF8183043B1DAF818105B462A
:101B30005A4659445046144CA04792E740F2593156
:101B40001348144B9847F0E79AF8243013F0020F2B
:101B500004D023F001038AF8243082E750460E4B6C
:101B600098477EE794050020D5124000C805002064
:101B7000FD104000791940003119400098050020FF
:101B8000190D4000310B4000B91840000519400004
:101B9000CC2540009D2140006906400004ED00E096
:101BA000B501400070B5104B9847104B1B6813B13E
:101BB0000F4B984770BD0F4D28460F4EB0470F4C46
:101BC0002046B0470E4B1D600E4B1C6000221021BA
:101BD00005200D4B9847054B18600028E8D00B49AD
:101BE0000B4B9847E4E700BFB5024000C805002052
:101BF000FD0240009C05002065014000B00500206A
:101C00009405002098050020C90A4000C425400022
:101C1000B90C400010B582B00D4B98470D4B1B68B6
:101C20007BB10D4B01930723009300234FF4827285
:101C30000A490B480B4CA047034610B1184602B0A6
:101C400010BD40F219110848084B98470023F5E7EA
:101C5000A51B4000C8050020CC050020E825400059
:101C6000E5194000450E4000CC2540009D21400074
:101C7000054BDB6B13F4800F4FF48002024B0CBF5B
:101C80001A635A63704700BF00140E4070B5044ECB
:101C90004FF4FA75034CB0472846A047FBE700BF56
:101CA000711C40007514400010B50E480E4B98474B
:101CB0003E2100200D4B98470D4CA0470028FCD03A
:101CC0000C4B98470C4A0D4B9A620D4CA0470028CC
:101CD000FCD010200B4B98470B4B98470B48024BFE
:101CE000984710BD000E270799204000E91D4000CD
:101CF0003D1E40004D1E4000013F0F2000040E40DD
:101D00005D1E4000851D40008D1F400000D8B805B5
:101D100010B54FF40042184B5A600920174CA047E9
:101D20000A20A0470B20A0470C20A0470D20A04769
:101D3000134B4FF480021A61C3F8A0201A63A3F575
:101D4000C06304225A61C3F8A0205A66C3F89020E9
:101D50005A651A62C3F88420196F21F004011967CB
:101D6000596F21F004015967C3F8C020C3F8D4208B
:101D7000C3F8B02010BD00BF50180E406D1E4000CB
:101D800000140E40174A136B23F0700318431063BE
:101D9000936E13F0080F0AD14FF4006311498A6E55
:101DA00012F0080F03D1013BF9D1012070470D4A11
:101DB000136B23F0030343F002031363936E13F0DA
:101DC000080F0AD14FF4006306498A6E12F0080F1B
:101DD00005D1013BF9D10120704700207047002058
:101DE000704700BF00040E40C8B9114A136A0902C7
:101DF00089B223F45C1323F0030343F45C1343F030
:101E000001030B431362936E13F0010FFBD0084ADA
:101E1000136A43F09B7343F48033136270470449A1
:101E20000B6A044A1A40044B13430B62704700BF0D
:101E300000040E40FCFFC8FE02003701024B986E02
:101E400000F48030704700BF00040E404FF0005295
:101E5000014B9A62704700BF00040E40024B986E1F
:101E600000F00200704700BF00040E402F281ED86B
:101E70001F280CD8114B9A6901238340934318D033
:101E8000012303FA00F00D4B186100207047203841
:101E90000A4BD3F808210123834093430BD001233D
:101EA00003FA00F0054BC3F8000100207047012041
:101EB0007047002070470020704700BF00040E40AC
:101EC000FEE7000000B583B0254B264A9A4210D0A9
:101ED000254B234A9A420CD2013B9B1A23F0030361
:101EE000043313441F4951F8040B42F8040B9A427F
:101EF000F9D11E4B1E4A9A420AD2013B9B1A23F08B
:101F0000030304331344002142F8041B9342FBD122
:101F1000184A194B23F07F039360EFF31083B3FA51
:101F200083F35B09019372B6BFF35F8F0022134BFB
:101F30001A700199124A136843F470031360BFF3D7
:101F40004F8FBFF36F8F29B101220C4B1A70BFF373
:101F50005F8F62B60B4B98470B4B9847FEE700BF6D
:101F600000000020382640003C04002034060020F9
:101F70003C04002000ED00E00000400008000020CC
:101F800088ED00E0F12140000D2140003B4B1B6B30
:101F900003F00303012B1DD083B1022B36D0374B46
:101FA0001B6B03F07003702B5FD0344B1A6B3449FA
:101FB000C2F302120B68D3400B607047314B5B6970
:101FC00013F0800F14BF4FF400424FF4FA422C4B31
:101FD0001A60E4E7294B1B6A13F0807F03D02A4A7A
:101FE000274B1A60DBE7294A254B1A60234B1B6AF3
:101FF00003F07003102B05D0202BD0D1224A204BA8
:102000001A60CCE7224A1E4B1A60C8E71B4B1B6ABA
:1020100013F0807F16D01C4A194B1A60174B1B6BAC
:1020200003F00303022BBAD1144A916A926A14484E
:10203000C1F30A41036801FB0333D2B2B3FBF2F3ED
:102040000360ACE7114A0E4B1A600C4B1B6A03F09D
:102050007003102B05D0202BE0D10B4A084B1A60DF
:10206000DCE70B4A064B1A60D8E7054A13680949B2
:10207000A1FB03135B081360704700BF00040E4010
:102080000C00002010180E40001BB70000093D0096
:1020900000127A00ABAAAAAA124B984211D9124B8D
:1020A000984213D9114B984214D9114B984215D923
:1020B000104B984294BF4FF004220F4A0F4B1A6006
:1020C00070474FF080620D4B1A6070470C4A0B4B03
:1020D0001A6070470B4A094B1A6070470A4A074B4F
:1020E0001A607047FF2C3101FF596202FF8693038B
:1020F000FFB3C404FFE0F50500050004000A0E402C
:1021000000010004000200040003000400B58BB0CD
:10211000194B9847194B9847194AC2F1005303F5D8
:10212000003323F00703073222F007020292A3F5DF
:10213000806303934FF0C24304934FF4002305934D
:102140004FF0C6420692079300240894099402A80F
:102150000C4B984709200C4DA8470A20A84701942A
:10216000012300932346822208490948094CA047CD
:10217000094B9847FEE700BFA91C4000111D400015
:1021800038360020190740006D1E4000F025400041
:102190008D1C4000450E40006510400082B00023B9
:1021A00001934FF0500383F31188BFF36F8FBFF398
:1021B0004F8F019B1BB900BF019B002BFBD000235D
:1021C00083F3118802B0704708B56C210148024BB7
:1021D000984708BD002640009D2140004FF0500365
:1021E00083F31188BFF36F8FBFF34F8FFEE70000BB
:1021F00070B50F4E0F4D761BB61018BF002405D0DA
:10220000013455F8043B9847A642F9D10A4E0B4DCC
:10221000761B00F0FFF9B61018BF002406D0013479
:1022200055F8043B9847A642F9D170BD70BD00BF78
:10223000202640002026400028264000202640007E
:10224000844641EA000313F003036DD1403A41D3C1
:1022500051F8043B40F8043B51F8043B40F8043B80
:1022600051F8043B40F8043B51F8043B40F8043B70
:1022700051F8043B40F8043B51F8043B40F8043B60
:1022800051F8043B40F8043B51F8043B40F8043B50
:1022900051F8043B40F8043B51F8043B40F8043B40
:1022A00051F8043B40F8043B51F8043B40F8043B30
:1022B00051F8043B40F8043B51F8043B40F8043B20
:1022C00051F8043B40F8043B51F8043B40F8043B10
:1022D000403ABDD2303211D351F8043B40F8043BB0
:1022E00051F8043B40F8043B51F8043B40F8043BF0
:1022F00051F8043B40F8043B103AEDD20C3205D3C0
:1023000051F8043B40F8043B043AF9D2043208D0B7
:10231000D2071CBF11F8013B00F8013B01D30B8829
:1023200003806046704700BF082A13D38B078DD007
:1023300010F003038AD0C3F10403D21ADB071CBFD9
:1023400011F8013B00F8013B80D331F8023B20F843
:10235000023B7BE7043AD9D3013A11F8013B00F87C
:10236000013BF9D20B7803704B7843708B78837004
:102370006046704770B4860746D0541E002A41D08C
:10238000CAB2034602E014F1FF343BD303F8012B39
:102390009D07F8D1032C2ED9CDB245EA05250F2C87
:1023A00045EA054519D903F110022646103E0F2EC5
:1023B00042F8105C42F80C5C42F8085C42F8045C9D
:1023C00002F11002F2D8A4F1100222F00F0204F080
:1023D0000F041032032C13440DD91E462246043A32
:1023E000032A46F8045BFAD8221F22F003020432C3
:1023F000134404F003042CB1C9B21C4403F8011BBC
:102400009C42FBD170BC704714460346C2E700BF34
:10241000024B13B1024800F005B8704700000000FD
:1024200031244000002301461A46184600F01EB829
:1024300038B50A4C0A4D641BA4100AD004F180433D
:10244000013B05EB8305013C55F804399847002C06
:10245000F9D1BDE8384000F0E7B800BF38264000A9
:1024600034264000704700BF704700BF2DE9F84395
:102470002C4D0646286898460F469146FFF7F2FF16
:10248000294B1C68D4F84831002B3ED05A681F2ACB
:102490001CDC02F1010E76B103EB82010124C1F8CC
:1024A0008890D3F8880194402043022EC3F8880115
:1024B000C1F8088123D00232C3F804E0286843F849
:1024C0002270FFF7D1FF0020BDE8F883174B0BB354
:1024D0004FF4C870AFF300800346D8B1D4F8482158
:1024E0000260002141600A46C4F848014FF0010E25
:1024F000C0F88811C0F88C11002EDCD0CCE7D3F8DE
:102500008C110C43C3F88C41D5E704F5A673C4F8CD
:102510004831BBE72868FFF7A7FF4FF0FF30BDE861
:10252000F88300BF3804002010264000000000009F
:102530002E2E2F7372632F4672656552544F532FA0
:10254000706F727461626C652F4743432F41524D27
:102550005F434D34462F706F72742E63000000008D
:102560002E2E2F7372632F4672656552544F532F70
:10257000706F727461626C652F4D656D4D616E6731
:102580002F686561705F352E630000002E2E2F735B
:1025900072632F4672656552544F532F717565757E
:1025A000652E630049444C45000000002E2E2F7319
:1025B00072632F4672656552544F532F7461736B6B
:1025C000732E6300546D7251000000002E2E2F7385
:1025D00072632F4672656552544F532F74696D654F
:1025E00072732E6300000000546D722053766300F6
:1025F0004D7920427574746F6E205461736B0000C6
:102600002E2E2F7372632F6D61696E2E6300000092
:1026100010000020F8B500BFF8BC08BC9E4670470B
:10262000112440001D014000F8B500BFF8BC08BCF3
:082630009E467047F9004000CE
:10263800AAAAAAAA070000000100000000093D009C
:1026480000000000FC02002064030020CC030020EE
:102658000000000000000000000000000000000072
:102668000000000000000000000000000000000062
:102678000000000000000000000000000000000052
:102688000000000000000000000000000000000042
:102698000000000000000000000000000000000032
:1026A8000000000000000000000000000000000022
:1026B8000000000000000000000000000000000012
:1026C8000000000000000000000000000000000002
:1026D80000000000000000000000000000000000F2
:1026E80000000000000000000100000000000000E1
:1026F8000E33CDAB34126DE6ECDE05000B000000A6
:1027080000000000000000000000000000000000C1
:1027180000000000000000000000000000000000B1
:1027280000000000000000000000000000000000A1
:102738000000000000000000000000000000000091
:0C2A68000000000000000000100600202C
:0400000500401EC5D4
:00000001FF
