:020000040040BA
:10000000803E0020513040004D3040004D304000D7
:100010004D3040004D3040004D30400000000000A9
:100020000000000000000000000000005107400038
:100030004D30400000000000F1074000550840002E
:100040004D3040004D3040004D3040004D304000BC
:100050004D3040004D3040004D304000DD2D40001F
:100060004D304000D5014000E9014000FD01400055
:1000700011024000250240004D3040004D3040004C
:100080004D3040004D3040004D3040004D3040007C
:100090004D3040004D3040004D3040004D3040006C
:1000A0004D3040004D3040004D3040004D3040005C
:1000B0004D3040004D3040004D3040004D3040004C
:1000C0004D3040004D3040004D3040004D3040003C
:1000D0004D3040004D3040004D3040004D3040002C
:1000E0004D3040004D3040004D3040004D3040001C
:1000F0004D3040004D30400010B5054C237833B9E9
:10010000044B13B10448AFF300800123237010BDEA
:10011000D009002000000000648840000C4B43B16F
:100120000C480D4910B5AFF300800C48036823B9A3
:1001300010BD0A48036833B97047094B002BF7D04C
:10014000BDE810401847064B002BF5D0184700BFFC
:100150000000000064884000D4090020648840004A
:1001600000000000C06C7047806C70472DE9F843B8
:1001700081460F46124B984705464846114B984713
:10018000054013D0104C04F1600603E0B4420DD0DA
:1001900010345DB12068B842F8D161682942F5D0C9
:1001A000E3689847636825EA0305EFE7074B1B6898
:1001B00023B1074B1B680BB148469847BDE8F8834D
:1001C0006501400069014000EC090020E00D0020BD
:1001D0005C0A002008B509210148024B984708BD78
:1001E000000E0E406D01400008B50A210148024B87
:1001F000984708BD00100E406D01400008B50B2166
:100200000148024B984708BD00120E406D014000A6
:1002100008B50C210148024B984708BD00140E4058
:100220006D01400008B50D210148024B984708BDFB
:1002300000160E406D014000F0B585B00746164629
:1002400003AA01213046184DA847044602AA0221FC
:100250003046A84705460023039AA354029A8354C4
:100260002046124B9847441E114B53F824308BB153
:1002700028460E4B984704A941F80C0D04EB4404A2
:1002800000230A220B4850F824000B4CA047002002
:1002900005B0F0BD094B07CB38607960BA601A88A9
:1002A0009B78BA81BB73F2E7AD0540007D34400016
:1002B000E40D0020F00D0020511040005C81400052
:1002C00030B583B00546104601AA0121114B98476D
:1002D0000021019BC154104B9847441E0F4B53F80B
:1002E000243073B10021C0B20D4B98470B4D55F827
:1002F00024000C4B9847002345F82430002003B01D
:1003000030BD094C0FCC28606960AA60EB602068A2
:100310002861F3E7AD0540007D344000E40D002086
:10032000DD2940006D1940006C8140002DE9F0414D
:1003300084B007468846164603AA012130461B4D65
:10034000A847044602AA02213046A84705460023D2
:10035000039AA354029A83542046154B9847441E8F
:10036000144B53F8243043B1134A41463846134BDB
:100370009847002004B0BDE8F08128460C4B984710
:1003800004EB44020E4B03EB82039860C4EBC40001
:10039000084A02EB84040194022200928222094955
:1003A00001EB40010848094CA047E2E7AD054000D9
:1003B0007D344000E40D002084814000A5364000DB
:1003C000F00D0020FC824000692A400039174000EF
:1003D00010B50446044A054B984704F11D00044B30
:1003E0009847002010BD00BF28834000A53640007C
:1003F0002925400010B50548054CA0470548A047F1
:100400000548A0470548A04710BD00BF78834000BD
:1004100059044000588340006883400048834000EE
:1004200038B50A46094B1B685BB1084C25682B6838
:100430005968074B984768682060003018BF012052
:1004400038BD0449014B1960EFE700BF640A002082
:10045000013A40000400002038B5054688B1082064
:100460000D4B9847044688B10C4B984725600023F4
:1004700063600B4B1A6854601C600A4B984701205C
:1004800038BD70210848094B9847E8E774210648B1
:10049000064B9847002038BD910A40007507400080
:1004A00000000020BD074000308440002934400097
:1004B0002DE9F04F83B0074600910192344B1B6841
:1004C00073B11B689B683A460199009898470346A8
:1004D00010B900212E4A1160184603B0BDE8F08F14
:1004E0002C4C2B4B1C60DFF8BCA0DFF8BC909B466B
:1004F00025E049B9013040B2314612F8013F2BB135
:10050000202BF6D02146F8E73146F6E771B9204BAB
:100510001B68002B34D08542D3D0019A1E49009825
:100520001E4B984700231A4A1360D5E7013840B2A2
:10053000EDE70020EBE76468CBF8004004B3D4F8A3
:100540000080D8F800502846D04706460246294683
:100550003846C8470028EED1BB5D13F0DF0FEAD163
:1005600098F90C50002D07DB3B78002BE1D03A4680
:10057000014604460126C3E7054B1B68002BA0D1AA
:10058000019A07490098054B98470023A4E700BF4C
:10059000600A00200400002088834000013A4000E7
:1005A000E0834000813840005D3940000023136043
:1005B00019B110B40C46002109E01846704710F834
:1005C000013F202BFBD0EBB101318C4209D00378E5
:1005D000F3B1202BF3D010F8013FCBB1202BFAD18F
:1005E000EDE7037813F0DF0F10D0014613680133F5
:1005F000136011F8014F14F0DF0FF7D1002B08BF83
:10060000002000E000205DF8044B70470020FAE76E
:100610000378D8E700F1080343604FF0FF328260AF
:10062000C3600361002303607047002303617047C8
:1006300043684B609A688A609A6851609960086163
:10064000036801330360704730B40D68B5F1FF3FB4
:1006500002D000F1080202E0026904E01A46536881
:100660001C68A542FAD253684B6099608A60516059
:10067000086103680133036030BC70470369426856
:10068000816891608268416851605A68904204BFF5
:1006900082685A60002202611A68013A1A6018687A
:1006A0007047000008480068006880F308884FF031
:1006B000000080F3148862B661B6BFF34F8FBFF3BA
:1006C0006F8F00DF00BF000008ED00E0DFF80C00D6
:1006D000016841F4700101607047000088ED00E09E
:1006E00000B583B0002301930B4B1B68B3F1FF3FB0
:1006F00003D0E72109480A4B98474FF0500383F392
:100700001188BFF36F8FBFF34F8F019B002BFCD07D
:1007100003B05DF804FB00BF0C000020A084400083
:10072000293440004FF0807340F8043C21F001016F
:1007300040F8081C054B40F80C3C40F8202C6FF0AA
:10074000020340F8243C4438704700BFE1064000F3
:10075000074B19680868B0E8F04F80F30988BFF3C9
:100760006F8F4FF0000080F311887047AFF3008067
:10077000900A002008B54FF0500383F31188BFF3AF
:100780006F8FBFF34F8F094A136801331360012B3A
:1007900000D008BD064B1B6813F0FF0FF9D04FF4D3
:1007A000D3710448044B9847F3E700BF0C000020C6
:1007B00004ED00E0A08440002934400008B5084B57
:1007C0001B683BB1064A1368013B13600BB983F306
:1007D000118808BD40F2AD110248034B9847F1E77C
:1007E0000C000020A08440002934400000000000DC
:1007F000EFF30980BFF36F8F154B1A681EF0100FCF
:1008000008BF20ED108A20E9F04F10602DE90900A3
:100810004FF0500080F31188BFF34F8FBFF36F8FFD
:1008200001F0A8FB4FF0000080F3118809BC1968A3
:100830000868B0E8F04F1EF0100F08BFB0EC108A47
:1008400080F30988BFF36F8F704700BFAFF300805C
:10085000900A002008B54FF0500383F31188BFF3CE
:100860006F8FBFF34F8F054B984718B14FF08052F1
:10087000034B1A60002383F3118808BDC11B40009D
:1008800004ED00E0084A0023136008490B60084BA0
:100890001B680849A1FB03139B09013B06490B6038
:1008A00007231360704700BF10E000E018E000E08D
:1008B00020000020D34D621014E000E010B582B09B
:1008C000364B1A68364B9A421ED0344B1A68354B59
:1008D0009A421FD0344B1A78D2B20192FF221A707A
:1008E0001B78DBB28DF803309DF8033003F0500322
:1008F0002E4A137007222E4B1A609DF8033013F016
:10090000800F1ED006220CE04FF4977129482A4B25
:100910009847DAE740F22F112648274B9847D9E746
:100920000A469DF803305B00DBB28DF803309DF87A
:100930000330511E13F0800FF2D11D4B1A60032AB1
:1009400004D040F261111B481B4B9847184A1368AA
:100950001B0203F4E0631360019BDBB2124A1370C5
:10096000164B1A6842F470021A601A6842F070421C
:100970001A60134B98470024124B1C60124B984787
:10098000124A136843F040431360114B9847114BD0
:100990009847114B9847204602B010BD00ED00E08B
:1009A00071C20F4170C20F4100E400E0680A0020EC
:1009B0006C0A0020A08440002934400020ED00E0B3
:1009C000850840000C000020CD06400034EF00E018
:1009D000A5064000751F4000E106400008B5EFF392
:1009E00005830F2B06D90E4A9B5CDBB20D4A1278A9
:1009F0009A4208D80C4B1B6803F4E0630B4A126858
:100A0000934206D808BD40F2FE210948094B984799
:100A1000F0E740F20E310648064B9847F2E700BF78
:100A2000F0E300E0680A00200CED00E06C0A002012
:100A3000A08440002934400010B4134A00E01A4654
:100A400013688342FBD351685418A0420AD041680E
:100A50004418A3420BD00360904218BF10605DF8A9
:100A6000044B70474068014451601046EFE7074C63
:100A70002468A34206D05B681944416013681B6870
:100A80000360E9E70360E7E7880A0020700A0020B6
:100A9000F8B504462F4B1B68EBB12F4B98472F4BF3
:100AA0001D6825424DD1002C4ED004F108018C4226
:100AB0004AD211F0070F05D021F0070308339942FD
:100AC00042D2194600293CD0254B1E68B14238D885
:100AD000244A146806E08E212348244B9847DCE71B
:100AE00022461C466368994202D92368002BF7D13D
:100AF000184B1B689C4224D0176808372368136082
:100B000063685B1A102B16D86268B61A14490E6017
:100B1000174909688E423CBF15490E601543656050
:100B200000232360134A136801331360124B984764
:100B300067B13846F8BD6018436061600F4B984755
:100B4000E2E70D4B984701E00B4B98470C4B984759
:100B50000027EEE7700A0020A51B4000740A002061
:100B6000780A0020880A0020D08440002934400000
:100B70007C0A0020800A00207D1D4000390A4000C8
:100B800055344000002844D010B5044650F8042CD9
:100B9000204B1B681A4211D050F8083CF3B140F2C8
:100BA0002D111D481D4B984754F8043C194A1268F2
:100BB000134202D054F8081CA1B110BD4FF4967135
:100BC0001548164B984754F8083C002BE7D154F8C9
:100BD000043C104A12681342EFD003E054F8043C7E
:100BE0000C4A126823EA020344F8043C0C4B984771
:100BF0000C4A54F8043C11680B441360A4F108003B
:100C0000094B9847094A136801331360084B98470A
:100C100010BD7047740A0020D08440002934400081
:100C2000A51B4000780A0020390A4000840A0020F1
:100C30007D1D40002DE9F84F0546354B1B6823B15B
:100C400040F2A3113348344B9847D5F804B0BBF1B8
:100C5000000F52D008350026B0462D4FDFF8B4A063
:100C6000DFF8B4901DE03B6873B33B68A34230D219
:100C700039680BEB0403083B23F007033B600022B9
:100C80005A601A602246181B6060236001B10C6034
:100C9000536898440136083555F804BCBBF1000F81
:100CA0001CD055F8084C14F0070F06D0E21D22F0B6
:100CB0000702A344ABEB020B1446002ED3D1174B13
:100CC0001C6000225A60D3E740F2C5115046C84765
:100CD000CBE74FF4E4715046C847C9E7104BC3F85F
:100CE0000080104BC3F80080B8F1000F0AD04FF01D
:100CF00000420D4B1A60BDE8F88F0023084A1360CC
:100D0000084A136040F2F1110248034B9847EEE79E
:100D1000700A0020D084400029344000880A002056
:100D20007C0A0020780A0020740A002010B50446CE
:100D3000044B9847A46B044B9847B4FA84F04009DD
:100D400010BD00BF75074000BD07400070B50446E8
:100D50001646856B026C5AB90368002013B1013541
:100D6000A56370BDA068174B98470023A360F6E702
:100D70006EB94068144B98476368226C13446360F3
:100D8000A268934219D3236863600020E7E7C06834
:100D90000D4B9847226C5242E3681344E36021688C
:100DA0008B4202D2A3681A44E260022E01D00020D6
:100DB000D5E725B1013D0020D1E70020CFE7002095
:100DC000CDE700BF69244000D534400070B582B043
:100DD0000190846C5CB1A26BE36B9A420DD2A26B62
:100DE000E36B9A420FD30026304602B070BD40F646
:100DF000D5311748174B9847EDE740F6D6311448E0
:100E0000144B9847EBE794F845506DB2002201A9C6
:100E10002046114B98470646B5F1FF3F06D07F2D7F
:100E20000FD001356DB284F84550DDE7636A002BC1
:100E3000DAD004F12400094B9847002818BF012696
:100E4000D2E740F6F6310248024B9847E9E700BF87
:100E5000FC844000293440004D0D4000E520400056
:100E6000026C72B110B5C3681344C3608468A342B6
:100E700024BF0368C3600C46C1682046014B9847F5
:100E800010BD7047D53440002DE9F0410546234B95
:100E9000984795F8454064B2002C18DD204EDFF8E5
:100EA0008C80204F08E06B6A8BB105F12400B847B5
:100EB00058B9013C64B254B1AB6C002BF3D0284656
:100EC000B0470028F5D0C047F3E7C047F1E7FF235C
:100ED00085F84530144B9847104B984795F8444097
:100EE00064B2002C12DD2B6983B105F110070D4EA1
:100EF000DFF8388004E0013C64B23CB12B692BB1CF
:100F00003846B0470028F6D0C047F4E7FF2385F8FD
:100F10004430054B9847BDE8F08100BF750740009D
:100F2000CD0D4000E5204000BD0740007D2240007F
:100F300038B550B10D460446C36B63B940F2451154
:100F40002148224B9847002038BD4FF488711E4835
:100F50001E4B9847F2E74FF0FF32B2FBF3F3226CDF
:100F60009342EBD31A4B98472268216CE36B03FB47
:100F700001F3D018A0600020A06362605B1A1344E4
:100F8000E360FF2384F8443084F84530A5B9236931
:100F90001BB9104B9847012038BD04F110000E4BCF
:100FA00098470028F5D04FF080520C4B1A60BFF3E1
:100FB0004F8FBFF36F8FECE704F11000084DA84787
:100FC00004F12400A847E4E7FC84400029344000F1
:100FD00075074000BD074000E520400004ED00E03B
:100FE00015064000F8B520B30D46174606464FF0EB
:100FF000FF33B3FBF0F38B421BD301FB00F010F186
:10100000550F16D854300E4B9847044668B175B149
:1010100000F154030360E663256401212046094B77
:10102000984784F850700023A3642046F8BD2060E0
:10103000F1E74FF4E3710448044B98470024F4E7C8
:10104000910A4000310F4000FC84400029344000E8
:101050002DE9F04F85B0894601921E460446A8B19D
:10106000B9F1000F18D0022E1FD0674B984730B946
:10107000019B23B140F233316448654B98474FF0F0
:10108000000A644D644FDFF89C815EE040F22E312F
:101090005E485F4B9847E3E7236C002BE3D040F2B8
:1010A0002F315A485A4B9847DDE7E36B012BDCD0D0
:1010B0004FF44C715548564B9847D6E7A56B3246CE
:1010C00049462046554B9847A36CA3B1022E00F029
:1010D00096802046524B984738B14FF08052514B82
:1010E0001A60BFF34F8FBFF36F8F4F4B98470120AC
:1010F00005B0BDE8F08F636A53B90028F5D04FF012
:101100008052484B1A60BFF34F8FBFF36F8FECE7ED
:1011100004F12400454B98470028E6D04FF0805258
:10112000404B1A60BFF34F8FBFF36F8FDDE73E4B2D
:1011300098470020DCE702A8B84713E020463C4B64
:1011400098473C4B98474FF0010AA847A26BE36BC6
:101150009A42B3D3022E48D0019B002BE7D0BAF1BC
:10116000000FE8D0304B9847334B9847A84794F886
:1011700044305BB2B3F1FF3F04BF002384F8443036
:1011800094F845305BB2B3F1FF3F04BF002384F80D
:101190004530254B984701A902A8284B9847E8B944
:1011A000A847D4F838B0D4F83CA01F4B9847D34593
:1011B000C4D1019904F11000214B984720461C4BE3
:1011C00098471C4B98470028BDD14FF08053C8F872
:1011D0000030BFF34F8FBFF36F8FB4E72046144B3F
:1011E0009847144B9847002082E7A56B0222494696
:1011F00020460A4B9847A36C002B3FF47CAF002D90
:101200003FF467AF71E700BF49244000FC84400011
:101210002934400075074000D92140004D0D4000A1
:10122000CD0D400004ED00E0BD074000E52040008A
:10123000890E40007D1D4000A51B4000F1214000AB
:10124000452040002DE9F0470F4691461E460446D2
:10125000C8B1F7B1022E25D03A4B9847EFF3118869
:101260004FF0500383F31188BFF36F8FBFF34F8F9D
:10127000A26BE36B9A421ED3022E1CD0002088F38F
:101280001188BDE8F08740F202412F482F4B984764
:10129000DFE7236C002BDDD040F203412A482B4BC3
:1012A0009847D7E7E36B012BD6D040F2044126489C
:1012B000264B9847D0E794F845506DB2D4F838A043
:1012C000324639462046224B9847B5F1FF3F07D0BA
:1012D0007F2D29D001356DB284F845500120CEE72D
:1012E000A36C8BB1022E0AD020461A4B984708B344
:1012F000B9F1000F20D00120C9F80000BFE7BAF112
:10130000000FF1D00120BAE7636A0BB90120B6E7FC
:1013100004F12400104B984780B1B9F1000F0FD0B1
:101320000120C9F80000AAE740F28D410648074BAA
:101330009847CFE70120A2E70120A0E701209EE720
:1013400001209CE7DD094000FC8440002934400076
:101350004D0D4000CD0D4000E52040002DE9F04747
:1013600084B088460192044698B1B8F1000F16D0B7
:101370004D4B984730B9019B23B140F25A514B482D
:101380004B4B98474FF0000A4A4D4B4EDFF83891CF
:1013900044E040F251514548454B9847E5E7236CFE
:1013A000002BE5D040F255514048414B9847DFE7CC
:1013B00041462046414B98477B1EA36323692BB9C6
:1013C0003F4B9847012004B0BDE8F08704F11000BE
:1013D0003C4B98470028F3D04FF080523A4B1A60AC
:1013E000BFF34F8FBFF36F8FEAE7354B984700206D
:1013F000E9E702A8B0471BE02046344B9847344B3E
:10140000984709E02046314B9847314B9847204692
:10141000304B9847002844D14FF0010AA847A76BEA
:10142000002FC5D1019B002BDFD0BAF1000FE0D017
:10143000234B9847284B9847A84794F844305BB211
:10144000B3F1FF3F04BF002384F8443094F84530E3
:101450005BB2B3F1FF3F04BF002384F84530184B63
:10146000984701A902A81D4B98470028CAD12046D9
:10147000184B98470028BFD0019904F12400184B5D
:1014800098472046114B9847114B98470028C3D1E5
:101490004FF08053C9F80030BFF34F8FBFF36F8F09
:1014A000BAE700208FE700BF49244000FC844000D9
:1014B0002934400075074000D9214000610E4000EA
:1014C000BD074000E520400004ED00E0890E40002B
:1014D0007D1D40002D0D4000A51B4000F121400066
:1014E0004520400010B5044630B1064B9847A46B28
:1014F000054B9847204610BD40F2E3710348044B6A
:101500009847F2E775074000BD074000FC844000A3
:101510002934400070B50D460446B8B1ADB1124B48
:101520005B689C4218D0104A00210B461646A9B1B0
:101530000133082B06D0083250688442F7D10A499B
:1015400001EBC30109B10D604C6070BD40F6C821CC
:101550000648074B9847E1E70023F0E756F83300C9
:10156000002808BF1146E3E7140E0020FC84400069
:101570002934400070B504460D461646114B984775
:1015800094F844305BB2B3F1FF3F04BF002384F80A
:10159000443094F845305BB2B3F1FF3F04BF002301
:1015A00084F84530084B9847A36B1BB12046074B86
:1015B000984770BD3246294604F12400044B9847F1
:1015C000F4E700BF75074000BD074000890E4000EA
:1015D00085204000074B1B681B6833B1054B1B6817
:1015E000DB681A68044B1A6070474FF0FF32024BF9
:1015F0001A607047940A00207C0B002080B5164DBD
:10160000DFF86C80154FDFF86C902B68BBB1144E7F
:10161000C047FB68DC68201DB047124A1368013BD5
:1016200013602B68013B2B600F4B9847206BDFF852
:1016300048A0D0472046D0472B68002BE8D10B4B61
:101640001B68012BE1D94FF08053C9F80030BFF37C
:101650004F8FBFF36F8FD8E7400B0020B40B0020F3
:101660007D0640003C0B0020BD0740009C0A002086
:101670007507400004ED00E0850B400070B504469E
:101680000E46244B1D68244B18680430234B9847A2
:1016900048B9214B1A6822490B68D06A012282405E
:1016A00023EA02030B60B4F1FF3F13D02C441A4B22
:1016B0001B685C60A54224D81A4B1868164B196841
:1016C0000431194B9847194B1B689C423CBF174B80
:1016D0001C6070BD002EE9D0154A51680E4B186889
:1016E000816018688C68C4608C6818680430606019
:1016F0001868043088601B685A61136801331360EE
:1017000070BD0C4B1868044B19680431064B9847A0
:1017100070BD00BFC80B0020900A00207D0640006D
:101720004C0B0020940A0020490640007C0B00204E
:10173000A00B0020980A00202DE9F04F83B08346CB
:101740000E4601930C9DDDF834A0970038466F4B90
:101750009847002800F0A68080466C206B4B984785
:101760000446002800F09B80C0F830803A46A5214E
:101770004046674B9847043F236B1F4427F00707F9
:10178000002E00F09280337884F8343033785BB1E7
:10179000334604F134021336597802F8011F13F866
:1017A000011F09B1B342F7D1002384F84730072D58
:1017B0007FD8072D28BF0725E562256500266665C9
:1017C00004F104084046DFF8A091C84704F118006E
:1017D000C8472461C5F10805A5616462A665E66590
:1017E0002666666684F86860019A59463846494B11
:1017F00098472060BAF1000F01D0CAF80040464B6C
:101800009847464A136801331360454B1B68002B09
:1018100055D0444B1B683BB9414B1B68DA6AE36AFD
:101820009A429CBF3E4B1C603F4A136801331360D1
:10183000A364E36A3D49086801229A4002430A60B2
:101840003B4A03EB830302EB83035B68A360996865
:10185000E1609968C1F80480C3F80880E06A8300F9
:1018600019188900551865615158013103449B00CE
:10187000D150304B98472B4B1B68002B3FD0284B47
:101880001B68DA6AE36A9A423DD24FF080522A4BD3
:101890001A60BFF34F8FBFF36F8F012030E04046D7
:1018A000264B98474FF0FF302AE0002384F834306D
:1018B0007DE740F297312248224B984779E7184B51
:1018C0001C601368012BAFD1194D05F1A0071E4E06
:1018D0002846B0471435AF42FAD11C4F38461A4D4E
:1018E000A8471B4E3046A8471A48A8471A48A84799
:1018F0001A48A8471A4B1F601A4B1E6094E7012034
:1019000003B0BDE8F08F0120FAE700BF910A400064
:101910000936400025074000750740003C0B0020B9
:10192000900A00209C0B0020480B00204C0B00204C
:101930009C0A0020BD07400004ED00E0850B40003C
:10194000148540002934400015064000500B00204B
:10195000640B0020880B0020B40B0020A00B00209B
:10196000940A0020980A00202B06400038B504464F
:101970002E4B9847002C3AD0251D28462C4B9847D3
:1019800070B9E26A02EB82039B002A49CB583BB94B
:1019900029480368012101FA02F223EA02020260E7
:1019A000A36A1BB104F11800214B9847234A13681E
:1019B00001331360224B1B689C421BD0214A1368E1
:1019C000013B1360204B9847204B98471C4B1B68EA
:1019D0009C4204D0206B1E4DA8472046A8471D4BB3
:1019E0001B681BB1164B1B689C420CD038BD144BB6
:1019F0001C68C1E729461848184B9847184A1368CD
:101A000001331360E0E7174B1B6843B94FF0805276
:101A1000154B1A60BFF34F8FBFF36F8FE6E740F2AD
:101A2000DC411248124B9847F0E700BF75074000B1
:101A30007D0640009C0A00204C0B0020480B002033
:101A4000900A00203C0B0020D5154000BD07400047
:101A5000850B40009C0B0020B40B00203106400099
:101A6000400B0020440B002004ED00E014854000F2
:101A700029344000F8B50546D8B11B4B1B689D4280
:101A800029D01A4B98476C69194B1E68194B1F686F
:101A9000194B9847B44220D0BC4220D0174B9C42EF
:101AA0000DD0174B9C421CD0002C0CBF04200120F1
:101AB000F8BD40F275511348134B9847DDE7AB6A08
:101AC0000BB10220F8BD95F86830DBB2012B0CBFDA
:101AD00002200320F8BD0020F8BD0220F8BD02203E
:101AE000F8BD0420F8BD00BF900A00207507400033
:101AF000940A0020980A0020BD074000A00B002097
:101B0000B40B0020148540002934400010B582B089
:101B1000184B019300230093822217491748184C51
:101B2000A047012806D0B0F1FF3F1CD0154B1B6821
:101B300002B010BD144B98470128F4D14FF0500368
:101B400083F31188BFF36F8FBFF34F8F4FF0FF32D6
:101B50000E4B1A6001220E4B1A6000220D4B1A60C8
:101B60000D4B9847E2E74FF404610C480C4B984743
:101B7000DCE700BF780B00203C854000FD154000ED
:101B80003917400010000020812940007C0B002004
:101B90009C0B0020C80B0020BD08400014854000AD
:101BA00029344000024A136801331360704700BFB4
:101BB000440B0020014B1868704700BFC80B002081
:101BC0002DE9F84F5F4B1B68002B40F0B3805E4B54
:101BD0001C6804F1010BC3F800B0BBF1000F0FD17A
:101BE0005A4B1B681B6813BB584A1168584B18683E
:101BF00010601960574A136801331360564B9847B9
:101C0000564B1B689B4518D20020554B1B68DB6A5E
:101C100003EB83039B00534AD358022B28BF0120B8
:101C2000514B1B68002B18BF0120BDE8F88F40F610
:101C3000C7214E484E4B9847D6E7002043490746F8
:101C40004C4D4FF0010E474ADFF8148136E04FF05B
:101C5000FF32424B1A60D8E7404B1E60D5E7DE6A80
:101C6000D5F800A00EFA06F949EA0A09C5F800906D
:101C700006EB860602EB860676689E60B468DC603A
:101C8000B468C4F804C0C6F808C0D3F82C904FEA72
:101C9000890606EB090C02EB8C0AC3F814A052F873
:101CA0002CC00CF1010C4E4442F826C0D8F800C0FC
:101CB000DE6ADCF82C309E4228BF01200B681B68CE
:101CC000002BC4D00B68DB68DB685E68B345C3D308
:101CD000D3F814909E68DC68B460DE689C68746019
:101CE00003F1040CD9F80460664504BFDE68C9F846
:101CF00004605F61D9F80060013EC9F80060D3F864
:101D00002890B9F1000FAAD0DE691C6AB4601E6A7F
:101D1000DC69746003F1180AD9F80460564504BF01
:101D20001E6AC9F804609F62D9F80060013EC9F8D4
:101D3000006094E7104A1368013313600020BDE887
:101D4000F88F00BF440B0020C80B0020940A00202D
:101D5000980A0020800B0020D51540007C0B002045
:101D6000900A00209C0A0020CC0B00201485400023
:101D7000293440004C0B0020840B00202DE9F04753
:101D8000574B1B68002B7AD0564B9847544B1A6818
:101D9000013A1A601B68002B40F09A80524B1B6876
:101DA000002B72D0002351491C4651480126514A4C
:101DB000DFF864A1DFF854E10D68002D67D0CB682F
:101DC000DB68D3F828C0DD691F6AAF601D6ADF6970
:101DD0006F6003F11808DCF80450454504BF1D6A24
:101DE000CCF804509C62DCF80050013DCCF8005067
:101DF000D3F814C09D68DF68AF60DD689F686F60CE
:101E000003F10408DCF80450454504BFDD68CCF854
:101E100004505C61DCF80050013DCCF80050DD6AF4
:101E2000D0F8009006FA05FC4CEA090CC0F800C096
:101E300005EB850502EB85056D689D60AF68DF6089
:101E4000AF68C7F80480C5F80880D3F82C804FEA43
:101E5000880505EB080C02EB8C09C3F8149052F8C6
:101E60002CC00CF1010C454442F825C0DAF80050B2
:101E7000ED6ADF6AAF429FD3CEF800609CE740F680
:101E8000B3011D481D4B98477EE7002421E00BB1AC
:101E90001B4B98471B4B1C686CB11B4D1B4F0126FD
:101EA00001E0013C04D0A8470028FAD03E60F8E7E2
:101EB0000022144B1A60154B1B687BB14FF0805207
:101EC000134B1A60BFF34F8FBFF36F8F012400E0F5
:101ED0000024104B98472046BDE8F0870024F8E71F
:101EE000440B0020750740003C0B0020880B0020AD
:101EF0004C0B00209C0A002014854000293440002F
:101F0000D5154000840B0020C11B4000CC0B0020E5
:101F100004ED00E0BD074000900A002010B560B15C
:101F200004460D4B1B688BB90C4B9847002120468B
:101F30000B4B98470B4B984738B94FF080520A4BE0
:101F40001A60BFF34F8FBFF36F8F10BD40F249513E
:101F50000648074B9847E7E7440B0020A51B4000C5
:101F60007D1640007D1D400004ED00E0148540001A
:101F7000293440002B4B1B68002B34D110B50022B4
:101F8000294B1A60294B1B681B6B1A68B2F1A53FDD
:101F90002DD0264B186819683431254B9847254BAE
:101FA0001C68B4FA84F4E4B2C4F11F0404EB8403A3
:101FB0009B00214AD3583BB31F4BA200111903EBDE
:101FC000810148684068486022440B4608339842C3
:101FD00020D004EB8404184B03EB84046368DA68B4
:101FE000124B1A6010BD01220F4B1A6070475A68DD
:101FF000B2F1A53FCDD19A68B2F1A53FC9D1DB6856
:10200000B3F1A53FC5D1CAE740F602410B480C4BDE
:102010009847D1E741681346074A02EB83035960AA
:10202000D7E700BF440B0020CC0B0020900A002013
:10203000693440004C0B00209C0A002014854000AD
:102040002934400038B50C46054650B1084B196894
:1020500018312846074B984701212046064B9847E0
:1020600038BD40F61C410548054B9847EEE700BFD8
:10207000900A0020490640007D164000148540006B
:102080002934400070B50E4615460446D8B1626842
:10209000104B1968CA6119689068086290681968DD
:1020A000183141601968183191601B689C6223687F
:1020B00001332360002D29460CBF30464FF0FF301E
:1020C000054B984770BD40F652410448044B984771
:1020D000DDE700BF900A00207D1640001485400017
:1020E0002934400038B5C368DC68002C51D0A36A9D
:1020F000E269216A9160226AE169516004F1180184
:102100005A688A4204BF226A5A600022A2621A6890
:10211000013A1A60284B1B68002B40D16369A26802
:10212000E1689160E268A1685160211D5A688A42A5
:1021300004BFE2685A60002262611A68013A1A60BC
:10214000E36A1E48056801229A402A4302601C4A3D
:1021500003EB830302EB83035B68A3609868E06092
:10216000986841609960E06A8300191889005518E1
:1021700065615158013103449B00D150114B1B68DC
:10218000E26ADB6A9A4283BF01200F4B186000208D
:1021900038BD40F682410D480D4B9847A7E70D4BDF
:1021A0005A68E26190682062906841609160A36221
:1021B0001A6801321A60E1E7440B00204C0B002042
:1021C0009C0A0020900A0020CC0B002014854000BF
:1021D00029344000880B0020034B1B680360034B2D
:1021E0001B684360704700BF800B0020C80B0020B5
:1021F00070B50C460546D0B1FCB1194B9847194B48
:102200001B682268B2F1FF3F28D069681648006851
:102210002E68864201D08B4215D25B1A934216D3A8
:10222000002323600124114B9847204670BD40F6DF
:10223000FD410F480F4B9847DEE740F6FE410C4842
:102240000C4B9847D9E7002323600124EBE7D31A0E
:1022500023602846084B98470024E4E70024E2E77F
:1022600075074000C80B0020800B0020BD07400010
:102270001485400029344000D92140000122014B3F
:102280001A607047CC0B002070B50C461646054608
:10229000D0B1256005F134026260EA6A22612A6BDE
:1022A000E261AA6CA2602A6D62610022A261052B24
:1022B00019D0174A1268954209D02373032B09D00D
:1022C000B6B90023238470BD114A1568E1E70023E5
:1022D0002373F5E70F4B9847AB6A0BB102232373C7
:1022E0000D4B9847ECE728460C4B98472073E7E7DF
:1022F000286B0378A52B08D1431C191A13F8012B5E
:10230000A52AFAD08908218470BD0021FAE700BF10
:10231000900A0020A51B40007D1D4000751A40005A
:102320002DE9F04F83B00B684BB34B685B684B6093
:1023300001F10808434504BFCB684B6001920C468D
:102340004B68D3F80CB0054600274FF0010ADFF8C0
:10235000349063685B686360984504BFE3686360BA
:102360006368DE68019B524629463046C8470137FC
:102370002435B345EDD1384603B0BDE8F08F0027D2
:10238000F9E700BF892240002DE9F04707460C46D7
:102390001646244B9847244B1B68A3423FD8234B37
:1023A00003F18C05A3F1140800244FF0010ADFF8B3
:1023B000849004EBC4005246294607EB8000C847CE
:1023C0000444143D4545F4D1194B196804EBC4008D
:1023D000022207EB8000174DA8470444164B1968EA
:1023E00004EBC400022207EB8000A847044404EB7E
:1023F000C4000422114907EB8000A847044404EB01
:10240000C40003220E4907EB8000A84704440EB124
:10241000002333600B4B98472046BDE8F08700242B
:10242000F8E700BFA51B40003C0B00209C0A0020E1
:10243000940A002021234000980A0020B40B0020B9
:10244000A00B00207D1D4000054B1B6833B1054BE0
:102450001B68002B0CBF0220002070470120704732
:102460009C0B0020440B002000284DD070B5044682
:10247000274B1B68984204D041F24F012548264B58
:102480009847636D4BB1636D013B6365E16A226DF3
:1024900091423BD03BB1002070BD41F250011D483C
:1024A0001D4B9847EFE7251D28461C4B984738B928
:1024B0001B490B68E06A0122824023EA02030B6099
:1024C000236DE362C3F10802A26115490E68012081
:1024D00000FA03F232430A60124A03EB830302EB71
:1024E00083035B68A3609968E16099684D609D60B3
:1024F000E56AAB00591989005618666151580144C4
:102500002B449B00D15070BD00207047002070BD4F
:10251000900A002014854000293440007D064000C8
:102520004C0B00209C0A00202DE9F04F85B004469A
:1025300000230370334B1D68186800EBC000800057
:10254000314B98470390002859D00646002229466F
:102550002E4B9847824600284ED04FF00008C346C5
:10256000DFF8BC9036E0522302930DE04223029341
:102570000AE05323029307E04423029304E0CDF8DA
:1025800008B001E05823029369682046204B984721
:102590002046C847122808D8204404F113022023FB
:1025A00000F8013B9042FBD11320271804F800B03B
:1025B0002B69AA6801922A8C0092029A1549384622
:1025C000154CA0473846C8473C1808F10108243686
:1025D000C24511D03546337B042BD0D801A252F826
:1025E00023F000BF85254000672540006D25400091
:1025F00073254000792540000398084B984705B0A3
:10260000BDE8F08F3C0B0020910A40008923400078
:10261000893740002C8540003D374000850B400045
:102620008138400008B54160006191420CD8D21A4F
:1026300083699A4201D3012008BD011D094B186826
:10264000094B9847002008BD9A4201D2994206D210
:10265000011D064B1868044B9847002008BD012057
:1026600008BD00BFD40B002049064000D00B00205D
:10267000F8B504460D461746074E04E0A3691D440D
:10268000236A20469847A1692B463A4629442046AA
:10269000B0470028F2D1F8BD2526400070B50546A8
:1026A0000E460D4B1B68DB68DC68201D0B4B984702
:1026B00094F8283013F0040F07D123F0010384F8B5
:1026C0002830236A2046984770BD32462946204666
:1026D000034B9847F5E700BFD00B00207D06400074
:1026E000712640002DE9F0418046144B984704467E
:1026F000134B1B68984207D30023C8F80030104BD7
:102700001C602046BDE8F0810E4B1B681A685AB168
:102710004FF0FF370C4E0B4DDB6839461868B04759
:102720002B681A68002AF7D1084A10680549086022
:1027300013600123C8F80030E1E700BFB51B40007B
:10274000000C0020D00B00209D264000D40B002060
:102750002DE9F04F87B05E4E5E4F5F4DDFF8A891D8
:10276000DFF8A88133681A6892B1DB68D3F800A05B
:102770005A4B984702A85A4B98470446029A42BBC4
:10278000504515D3B84721465046564B98471EE052
:10279000524B984702A8524B98470446029BC3B934
:1027A000514B1B681A68B2FA82F252094FF0000AC4
:1027B000AAEB040128684D4B9847B84738B94FF049
:1027C0008053C9F80030BFF34F8FBFF36F8F484C71
:1027D00008E0B847FBE705990498039B9847029BDC
:1027E000002B08DA002202A92868A0470028B9D0E7
:1027F000029B002BEFDBDDF810A0DAF8143013B1E8
:102800000AF10400C04701A8354B98478346029B54
:10281000013B082BE6D8DFE803F005052D344D0514
:10282000052D34009AF8283043F001038AF8283047
:102830000399DAF818000B465A46014450462D4CCD
:10284000A0470028C3D09AF8283013F0040F08D10D
:1028500023F001038AF82830DAF8203050469847F0
:10286000B5E7DAF818305A46039919445046224B16
:102870009847F1E79AF8283023F001038AF82830C6
:10288000A5E79AF8283043F001038AF82830039B23
:10289000CAF8183043B1DAF818105B465A46594462
:1028A0005046144CA04792E740F259311348144B5C
:1028B0009847F0E79AF8283013F0020F04D023F07D
:1028C00001038AF8283082E750460E4B98477EE78E
:1028D000D00B00207D1D4000040C0020A51B4000F3
:1028E000E52640009D264000D40B002075154000D1
:1028F0005D13400025264000712640004C854000B5
:1029000029344000850B400004ED00E07D064000C6
:1029100070B5104B9847104B1B6813B10F4B98477D
:1029200070BD0F4D28460F4EB0470F4C2046B047A4
:102930000E4B1D600E4B1C600022102105200D4B1C
:102940009847054B18600028E8D00B490B4B984777
:10295000E4E700BF75074000040C0020BD074000FD
:10296000D80B002015064000EC0B0020D00B0020F7
:10297000D40B0020E50F40004485400015154000B1
:1029800010B582B00D4B98470D4B1B687BB10D4BBA
:1029900001930723009300234FF482720A490B48E6
:1029A0000B4CA047034610B1184602B010BD40F2D0
:1029B00019110848084B98470023F5E711294000F2
:1029C000040C0020080C00206885400051274000BE
:1029D000391740004C854000293440000C4B1A5CEC
:1029E000530903F5001303F207735B0241B902F0C8
:1029F0001F02012101FA02F25A63064B1878704750
:102A000002F01F02012101FA02F21A63F5E700BF8A
:102A10001800002014000020094B1A5C530903F52C
:102A2000001303F207735B02D86B02F01F0101224F
:102A30008A4010420CBF1A635A63024B18787047E1
:102A40001800002014000020F8B50778044E4FF459
:102A5000FA75044C3846B0472846A047FAE700BF4D
:102A6000192A40001D1F400080B582B0056890F80B
:102A700004808468094FDFF83090094E04E0404636
:102A8000B0472046074B98472846B8470028F6D05D
:102A9000002201A92846C847019CF0E7E514400040
:102AA000192A40001D1F40005D13400080B58EB004
:102AB0000668094D094F4FF0FF34224601A9304600
:102AC000A8470128F9D101A8054B9847C2B201A92E
:102AD0003846044B9847EEE75D13400000060E4071
:102AE00081384000B92D40002DE9F04F83B0D0F877
:102AF000008043680193DFF808B139E0354B93F962
:102B00000020002334498B543449354A12680A8026
:102B1000120C8A700A224046324CA047324CDFF831
:102B2000E4A015E02846314B984721182046304B49
:102B3000984700230A22294640462A4EB04722469B
:102B400031212846B8470028ECDCB9F1000F08D045
:102B50004FF4967221462048D04781461F4D254F9D
:102B6000EDE700211B4B197032221B48224B98477E
:102B70004FF0FF3221490198D8470128F8D11F4B67
:102B80001B780D2BBAD00A2BF2D0082B15D0114A86
:102B900092F90020312AEBDC0F498B5401320D4BA6
:102BA0001A700E4C15492046114B984700230A22F3
:102BB000214640460B4CA047DAE7064B93F900301C
:102BC000002BD5DD013B5BB2024A13700021024AA3
:102BD000D154CDE70C0C0020100C0020740D002007
:102BE0007085400051104000440C002081384000A6
:102BF00089374000A536400009364000700D00209E
:102C00005D134000B104400010B4444A0423136132
:102C1000C2F8A030536308231361C2F8A030536395
:102C20003F4B4FF080711961C3F8A01059634FF00A
:102C300000711961C3F8A01059634FF40040186186
:102C4000C3F8A00058634FF480305861C3F8A00067
:102C50005866C3F8900058651862C3F884001C6F6A
:102C600024F480341C675C6F24F480345C67C3F800
:102C7000C000C3F8D400C3F8B0004FF4006058613E
:102C8000C3F8A0005866C3F8900058651862C3F8EE
:102C900084001C6F24F400641C675C6F24F40064DF
:102CA0005C67C3F8C000C3F8D400C3F8B00003F5F4
:102CB000C0635961C3F8A0105966C3F890105965F4
:102CC0001962C3F88410186F20F000701867586FED
:102CD00020F000705867C3F8C010C3F8D410C3F8D0
:102CE000B0104FF480435361C2F8A0305366C2F86D
:102CF000903053651362C2F88430116F21F4804123
:102D00001167516F21F480415167C2F8C030C2F899
:102D1000D430C2F8B0305DF8044B704700100E405C
:102D2000000E0E4010B50446164B4FF4C0621A66F2
:102D3000C3F890205A655A62C3F88020196F21F4B5
:102D4000C0611967596F21F4C06159675A60072043
:102D50000D4B9847AC232360342323624FF4006368
:102D6000636040F20223C4F8203150232360012322
:102D7000A360064B602283F8072380221A6000209C
:102D800010BD00BF000E0E40F92F400000E100E032
:102D9000F8B504460F46436913F0020F07D10A261F
:102DA000044D3046A847636913F0020FF9D007B10C
:102DB000E761F8BD1D1F400062B1F8B51546064633
:102DC0000C460D44044F14F8011B3046B847AC4282
:102DD000F9D1F8BD704700BF912D400010B582B009
:102DE00000238DF807300F4B5B6913F0010F0BD1F7
:102DF000009B3BB14FF080520B4B1A60BFF34F8FDB
:102E0000BFF36F8F02B010BD064B9B698DF8073082
:102E100000236A460DF1070104480068044CA047EE
:102E2000E6E700BF00060E4004ED00E0540E00206F
:102E30004512400010B50E480E4B98473E21002029
:102E40000D4B98470D4CA0470028FCD00C4B9847E1
:102E50000C4A0D4B9A620D4CA0470028FCD0102064
:102E60000B4B98470B4B98470B48024B984710BDAC
:102E7000000E270725324000752F4000C92F400063
:102E8000D92F4000013F0F2000040E40E92F4000E1
:102E9000112F40001931400000D8B80510B54FF48B
:102EA0000042184B5A600920174CA0470A20A0473F
:102EB0000B20A0470C20A0470D20A047134B4FF438
:102EC00080021A61C3F8A0201A63A3F5C06304222C
:102ED0005A61C3F8A0205A66C3F890205A651A6256
:102EE000C3F88420196F21F004011967596F21F08C
:102EF00004015967C3F8C020C3F8D420C3F8B02038
:102F000010BD00BF50180E40F92F400000140E40B5
:102F1000174A136B23F0700318431063936E13F07A
:102F2000080F0AD14FF4006311498A6E12F0080F9E
:102F300003D1013BF9D1012070470D4A136B23F0F7
:102F4000030343F002031363936E13F0080F0AD1D7
:102F50004FF4006306498A6E12F0080F05D1013B59
:102F6000F9D101207047002070470020704700BF52
:102F700000040E40C8B9114A136A090289B223F449
:102F80005C1323F0030343F45C1343F001030B438E
:102F90001362936E13F0010FFBD0084A136A43F0DB
:102FA0009B7343F480331362704704490B6A044AED
:102FB0001A40044B13430B62704700BF00040E40DD
:102FC000FCFFC8FE02003701024B986E00F480300F
:102FD000704700BF00040E404FF00052014B9A6250
:102FE000704700BF00040E40024B986E00F00200D4
:102FF000704700BF00040E402F281ED81F280CD891
:10300000114B9A6901238340934318D0012303FA9B
:1030100000F00D4B18610020704720380A4BD3F8A0
:1030200008210123834093430BD0012303FA00F0CE
:10303000054BC3F8000100207047012070470020B5
:1030400070470020704700BF00040E40FEE70000FC
:1030500000B583B0254B264A9A4210D0254B234A0F
:103060009A420CD2013B9B1A23F00303043313440E
:103070001F4951F8040B42F8040B9A42F9D11E4B38
:103080001E4A9A420AD2013B9B1A23F003030433DF
:103090001344002142F8041B9342FBD1184A194BF8
:1030A00023F07F039360EFF31083B3FA83F35B099C
:1030B000019372B6BFF35F8F0022134B1A70019910
:1030C000124A136843F470031360BFF34F8FBFF3CA
:1030D0006F8F29B101220C4B1A70BFF35F8F62B65C
:1030E0000B4B98470B4B9847FEE700BF00000020B2
:1030F00064884000D0090020800E0020D009002004
:1031000000ED00E0000040001C00002088ED00E021
:1031100085344000D13240003B4B1B6B03F003036E
:10312000012B1DD083B1022B36D0374B1B6B03F024
:103130007003702B5FD0344B1A6B3449C2F3021208
:103140000B68D3400B607047314B5B6913F0800F05
:1031500014BF4FF400424FF4FA422C4B1A60E4E7DC
:10316000294B1B6A13F0807F03D02A4A274B1A6031
:10317000DBE7294A254B1A60234B1B6A03F07003D7
:10318000102B05D0202BD0D1224A204B1A60CCE73F
:10319000224A1E4B1A60C8E71B4B1B6A13F0807F44
:1031A00016D01C4A194B1A60174B1B6B03F0030314
:1031B000022BBAD1144A916A926A1448C1F30A41A7
:1031C000036801FB0333D2B2B3FBF2F30360ACE755
:1031D000114A0E4B1A600C4B1B6A03F07003102B44
:1031E00005D0202BE0D10B4A084B1A60DCE70B4AD4
:1031F000064B1A60D8E7054A13680949A1FB031377
:103200005B081360704700BF00040E4020000020E0
:1032100010180E40001BB70000093D0000127A0094
:10322000ABAAAAAA124B984211D9124B984213D9B1
:10323000114B984214D9114B984215D9104B984212
:1032400094BF4FF004220F4A0F4B1A6070474FF0A3
:1032500080620D4B1A6070470C4A0B4B1A60704726
:103260000B4A094B1A6070470A4A074B1A607047AD
:10327000FF2C3101FF596202FF869303FFB3C404A0
:10328000FFE0F50500050004000A0E4000010004FF
:1032900000020004000300040A4B1B6853B1094BF1
:1032A0001B681A180849914208DB1046054A10604D
:1032B00018467047054A034B1A60F0E74FF0FF309D
:1032C000704700BFA80D0020FCFF0120803E0020B9
:1032D000F0B593B0404B9847404B9847404AC2F1F5
:1032E000005303F5003323F00703073222F00702EF
:1032F0000392A3F5806304934FF0C24305934FF408
:10330000002306934FF0C6420792089300240994C5
:103310000A9403A8334B98470920334DA8470A2045
:10332000A847324B98473248324B98478DF8474070
:10333000314B1C60314B1C6001251D714FF4FA723A
:103340009A60DC60022119745A619C61032119772B
:103350001A620E940F9410940B940C940D94284BB5
:103360009847019400950DF147038222254926488C
:10337000264DA8472746264E204D3A4604210520D3
:10338000B04728510C34242CF7D1002232211420CC
:103390001F4DA8470446002201211420A847164BC0
:1033A00018600E940B940C90002501950323009354
:1033B0000EAB4FF4827217491748144CA047019581
:1033C000042300930BAB4FF4827214491448A047B6
:1033D000144B9847FEE700BF352E40009D2E40005D
:1033E000803E0020350C4000F92F4000092C4000A1
:1033F00000060E40252D4000540E0020F00D002048
:10340000F503400074854000492A40003917400008
:10341000E50F400084854000AD2A400090854000C3
:10342000E92A40000D1B400082B0002301934FF0B9
:10343000500383F31188BFF36F8FBFF34F8F019B4E
:103440001BB900BF019B002BFBD0002383F3118825
:1034500002B0704708B5BB210148024B984708BD30
:103460009C854000293440004FF0500383F31188BD
:10347000BFF36F8FBFF34F8FFEE700000A220021DA
:1034800000F084BB70B50F4E0F4D761BB61018BF01
:10349000002405D0013455F8043B9847A642F9D1E1
:1034A0000A4E0B4D761B05F0C7F9B61018BF002465
:1034B00006D0013455F8043B9847A642F9D170BDB7
:1034C00070BD00BF44884000448840004C884000E4
:1034D00044884000844641EA000313F003036DD1A1
:1034E000403A41D351F8043B40F8043B51F8043BC7
:1034F00040F8043B51F8043B40F8043B51F8043BCE
:1035000040F8043B51F8043B40F8043B51F8043BBD
:1035100040F8043B51F8043B40F8043B51F8043BAD
:1035200040F8043B51F8043B40F8043B51F8043B9D
:1035300040F8043B51F8043B40F8043B51F8043B8D
:1035400040F8043B51F8043B40F8043B51F8043B7D
:1035500040F8043B51F8043B40F8043B51F8043B6D
:1035600040F8043B403ABDD2303211D351F8043B0D
:1035700040F8043B51F8043B40F8043B51F8043B4D
:1035800040F8043B51F8043B40F8043B103AEDD2BC
:103590000C3205D351F8043B40F8043B043AF9D20D
:1035A000043208D0D2071CBF11F8013B00F8013BE0
:1035B00001D30B8803806046704700BF082A13D3ED
:1035C0008B078DD010F003038AD0C3F10403D21A05
:1035D000DB071CBF11F8013B00F8013B80D331F839
:1035E000023B20F8023B7BE7043AD9D3013A11F8B9
:1035F000013B00F8013BF9D20B7803704B78437024
:103600008B7883706046704770B4860746D0541E2E
:10361000002A41D0CAB2034602E014F1FF343BD382
:1036200003F8012B9D07F8D1032C2ED9CDB245EA22
:1036300005250F2C45EA054519D903F11002264648
:10364000103E0F2E42F8105C42F80C5C42F8085C09
:1036500042F8045C02F11002F2D8A4F1100222F048
:103660000F0204F00F041032032C13440DD91E4630
:103670002246043A032A46F8045BFAD8221F22F0B5
:1036800003020432134404F003042CB1C9B21C44F5
:1036900003F8011B9C42FBD170BC704714460346E3
:1036A000C2E700BF0CB4F0B5234B0C1E9DB01D68E3
:1036B0003DDB4FF4027302900690ADF8143023AE58
:1036C00017D0013C229A049433464FF6FF7702A9A3
:1036D000284607940196ADF8167000F06DFA421C6A
:1036E0001BDB029B00221A701DB0BDE8F04002B047
:1036F000704733464FF6FF77229A049402A9284672
:1037000007940196ADF8167000F056FA431C07DBDB
:103710001DB0BDE8F04002B070478B232B60E0E79E
:103720008B232B601DB0BDE8F04002B070478B23A7
:103730002B604FF0FF30EBE7240000200EB4F0B513
:103740009CB021AB0F4953F8042B019305466FF051
:103750000044086802954FF402774FF6FF7602A9FD
:103760000695ADF8147004940794ADF8166000F057
:1037700023FA029B00221A701CB0BDE8F04003B08F
:10378000704700BF2400002080EA0102844612F046
:10379000030F4FD111F0030F32D14DF8044D11F04A
:1037A000040F51F8043B0BD0A3F101329A4312F0FD
:1037B000803F04BF4CF8043B51F8043B16D100BFD6
:1037C00051F8044BA3F101329A4312F0803FA4F167
:1037D00001320BD14CF8043BA24312F0803F04BFEE
:1037E00051F8043B4CF8044BEAD023460CF8013B5B
:1037F00013F0FF0F4FEA3323F8D15DF8044B704705
:1038000011F0010F06D011F8012B0CF8012B002A42
:1038100008BF704711F0020FBFD031F8022B12F031
:10382000FF0F16BF2CF8022B8CF8002012F47F4FEC
:10383000B3D1704711F8012B0CF8012B002AF9D1F4
:10384000704700BF00000000000000000000000002
:103850000000000000000000000000000000000068
:103860000000000000000000000000000000000058
:103870000000000000000000000000000000000048
:1038800090F800F06DE9024520F007016FF0000CA0
:1038900010F0070491F820F040F049804FF0000448
:1038A0006FF00700D1E9002391F840F000F1080023
:1038B00082FA4CF2A4FA8CF283FA4CF3A2FA8CF35B
:1038C0004BBBD1E9022382FA4CF200F10800A4FAC2
:1038D0008CF283FA4CF3A2FA8CF3E3B9D1E9042316
:1038E00082FA4CF200F10800A4FA8CF283FA4CF34D
:1038F000A2FA8CF37BB9D1E9062301F1200182FA07
:103900004CF200F10800A4FA8CF283FA4CF3A2FA0C
:103910008CF3002BC6D0002A04BF04301A4612BA1A
:10392000B2FA82F2FDE8024500EBD2007047D1E91D
:10393000002304F00305C4F100004FEAC50514F0AC
:10394000040F91F840F00CFA05F562EA05021CBF7D
:1039500063EA050362464FF00004A9E7002A41D05C
:1039600040EA010313F00303F0B425D1032A23D95D
:1039700004680D68AC421FD1043A38D0A4F1013577
:1039800025EA040414F0803F2ED1043004310FE006
:1039900050F8043B0E68A3F10134B34224EA030457
:1039A00001F1040126D1043A21D014F0803F1BD14B
:1039B000032A07460D46EBD805780C78AC4202F195
:1039C000FF331AD183B114B90EE06BB17AB110F89C
:1039D000012F11F8014FA24203F1FF33F5D0101B64
:1039E000F0BC7047104670470020F0BC704710468E
:1039F000F0BC704729463846DEE72A46EFE700BFAD
:103A000040EA010313F0030F70B4034624D0A2B1BF
:103A10000C781C70013A013301313CB16AB111F8E4
:103A2000014B03F8014B013A002CF7D12AB11A449B
:103A3000002103F8011B9A42FBD170BC70470E466F
:103A400051F8045BA5F1013424EA050414F0803F29
:103A500005D143F8045B043A032AF0D8D7E731468E
:103A6000D6E700BF2DE9F84FDDF828900F468046D5
:103A700016461D468A4600E0A2465446484614F8BB
:103A800001BB02F0B1FA5844427812F00802F3D1B7
:103A9000BBF12D0F4FD0BBF12B0F04BF94F800B03A
:103AA0000AF102041DB1102D56D0AC4604E0BBF162
:103AB000300F60D00A25AC46002A0CBF6FF00049D9
:103AC0004FF000490021B9FBFCFE08460CFB1E9A92
:103AD00005E029D00CFB0030012114F801BBABF14B
:103AE0003003092B05D9ABF14103192B0BD8ABF1EE
:103AF00037039D420FDDB1F1FF3FEED08645E8D29E
:103B00004FF0FF31E9E7ABF16103192B03D8ABF1BB
:103B100057039D42EFDC4B1C13D002B1404246B12B
:103B2000C1B93760BDE8F88F9A45D3DA4FF0FF315D
:103B3000D3E7BDE8F88F94F800B001220AF102043F
:103B4000B0E72223C8F80030EEB1671E4846376060
:103B5000BDE8F88F8146F8E7BBF1300FA5D1237897
:103B600003F0DF03582BA0D14FF0100C94F801B0F4
:103B700065460234A0E7237803F0DF03582BF3D027
:103B80000825AC4698E74846BDE8F88F30B5084CA4
:103B9000084B25686C6B83B0002C08BF1C46009452
:103BA00013460A4601462846FFF75CFF03B030BDC6
:103BB00024000020540400202DE9F04FC3B00C462F
:103BC0000B9192460F930C9002F012FA03681A932D
:103BD0001846FFF755FEA3891990190603D52369E6
:103BE000002B01F0038000230DF1C80913931593F6
:103BF00014932793269318931B930993CDF89490CD
:103C0000C846169317939AF800305446E3B1252B13
:103C100002D119E0252B03D014F8013F002BF9D174
:103C2000A4EB0A0585B1269B279AC8F800A00133AA
:103C30002A44072BC8F80450279226937FDC08F10A
:103C40000808099B2B4409932378002B7FD000237D
:103C50001A468DF8773019460D939B464FF0FF308A
:103C600063780A9004F1010A0AF1010AA3F1200025
:103C7000582800F2C183DFE810F03802BF03BF0309
:103C80004002BF03BF03BF03BF03BF03BF0345021F
:103C90000302BF035D006B02BF0386029D039D0309
:103CA0009D039D039D039D039D039D039D03BF03F2
:103CB000BF03BF03BF03BF03BF03BF03BF03BF03F4
:103CC000BF0337035703BF035703BF03BF03BF033C
:103CD000BF039803BF03BF03AD03BF03BF03BF030D
:103CE000BF03BF035902BF03BF031E03BF03BF03CC
:103CF000BF03BF03BF03BF03BF03BF03BF03BF03B4
:103D0000C602DB025703570357038B02DB02BF03D4
:103D1000BF039002BF039D02CC01B4020802BF039F
:103D2000E101BF037E00BF03BF030D020D980F9397
:103D300040420D904BF0040B9AF8003094E725AA0E
:103D40000B990C9802F094FF40B9C84679E7279B7D
:103D500023B10C980B9925AA02F08AFF0B9B9B8933
:103D600013F0400F099B18BF4FF0FF3309930998D8
:103D700043B0BDE8F08F1BF0200F119340F0DD81C0
:103D80000F9A1BF0100F134640F06E851BF0400F8A
:103D900000F06A8514880432002501230F92002761
:103DA0008DF877700A994A1C00F065822BF080022A
:103DB000079254EA050240F06482002940F03C84F6
:103DC000002B40F0D7841BF001030E9300F0048613
:103DD00042AE302306F8413D0A9B0E9A9342B8BF8B
:103DE000134608930023129317B1089B01330893DD
:103DF000079B13F00203109302D0089B0233089331
:103E0000079B13F0840540F00E830D9B089AA3EBEB
:103E1000020BBBF1000F40F30683BBF1100F279C90
:103E2000269A29DD43462146A84610270C9C0B9D67
:103E300006E0ABF1100BBBF1100F03F1080318DD26
:103E40000132B74826921031072A279183E8810072
:103E5000EFDD25AA2946204602F00AFF00287FF45C
:103E60007DAFABF1100BBBF1100F2799269A4B4693
:103E7000E6DC45460C4698460132A94B26925C4446
:103E8000072A279488E8080800F398849DF877703B
:103E900008F1080877B1269B013301340DF1770151
:103EA0000122072B2794269388E8060000F3DB8382
:103EB00008F10808109B6BB1269B013302341EA940
:103EC0000222072B2794269388E8060000F3D68366
:103ED00008F10808802D00F015830A9B0E9A9F1A9E
:103EE000002F36DD102F269B8E4D27DD42462146C2
:103EF000B0464FF0100B2E460C9C0B9D04E0103F7B
:103F0000102F02F1080215DD01331031072B279124
:103F1000269382E84008F2DD25AA2946204602F0D1
:103F2000A7FE00287FF41AAF103F102F2799269B79
:103F30004A46E9DC35460C464646904601333C4449
:103F4000072B2794269388E8A00000F3818308F1CB
:103F50000808079BDF0500F16882269B0E99C8F8C8
:103F6000006001330C44072B2794C8F804102693F3
:103F700000F34D8308F10808079B5B073AD50D9BBA
:103F8000089A9D1A002D35DD102D269B20DD102668
:103F90000C9FDDF82CB004E0103D102D08F108084E
:103FA00016DD01335E4A26931034072B279488E8E8
:103FB0004400F1DD25AA5946384602F059FE002892
:103FC0007FF4CCAE103D102D279C269BC846E8DC24
:103FD0000133534A26932C44072B279488E8240066
:103FE00008DD25AA0B990C9802F042FE00287FF408
:103FF000B5AE279C099B0D9A08998A42ACBF9B18C5
:104000005B180993002C40F00D8300232693C846CB
:10401000F9E511931BF0200340F0E3811BF010023F
:1040200040F02E841BF0400300F02A840F991346C1
:104030000A4604320C880F920025B0E60F9A1193BD
:10404000166800248DF87740151D002E00F0A78615
:104050000A9A531C00F009862146304602F0A0FA65
:10406000002800F0E186831B0E930A940F95CDF88B
:104070001CB023EAE373089312949DF87770B3E6BB
:104080009AF8003001222B21EEE54BF0200B9AF834
:104090000030E9E51193002A40F09587224B1893F0
:1040A0001BF0200F40F011810F9A1BF0100F1346E8
:1040B00040F0E1831BF0400F00F0DD8304331488EF
:1040C0000F9300251BF0010F00F00C8154EA05034B
:1040D00000F0088130239DF844208DF878308DF869
:1040E00079204BF0020B022359E69AF800300029A0
:1040F0007FF4BAAD01222021B6E54BF0010B9AF80E
:104100000030B1E50F9C23680D9318460028234624
:1041100003F10403FFF60AAE0F939AF80030A3E50B
:10412000F485400004864000D48540004BF0100B1D
:104130001BF0200F11933FF423AE0F9D073525F0A0
:10414000070303F10802D3E900450F92012326E695
:104150009AF800302A2B0AF1010400F02787A3F116
:1041600030000928A24600F2AD8600231C461AF84A
:10417000013B04EB840400EB4404A3F13000092864
:10418000F5D90A9472E54BF0800B9AF800306BE594
:104190004BF0400B9AF8003066E59AF800306C2B33
:1041A00003BF9AF801304BF0200B0AF1010A4BF0E3
:1041B000100B59E5002A40F011871BF0200F40F04A
:1041C000F9841BF0100F40F0AC841BF0400F00F09E
:1041D000A8840F9A136804320F92BDF824201A8025
:1041E00011E50F99B34B0C681893302278230431F2
:1041F0008DF8793011934BF0020B0F9100258DF85B
:1042000078200223CBE50F9911930A688DF8A0203E
:1042100000230A461F468DF87730043201230893A5
:10422000CDF81CB00A9712970F920E9328AEDFE5D7
:104230001193002A40F0EA861BF0200F5DD11BF09D
:10424000100F40F008831BF0400F00F004830F991B
:10425000B1F900400431E51722462B460F91002AA0
:1042600073F1000358DB0A999DF877704A1C4FF0F0
:1042700001037FF49BAD54EA050200F0DF81CDF825
:104280001CB0012B00F07B82022B40F006821898B4
:104290004E46230904F00F0143EA05732A091C4620
:1042A0001546435C06F8013D54EA0503F1D1A9EB3C
:1042B00006030E9390E51193002A40F0A3867E4BEF
:1042C00018931BF0200F3FF4EFAE0F9D073525F03C
:1042D000070303F108021BF0010F0F92D3E9004519
:1042E0007FF4F4AE02235AE51193002A40F086864B
:1042F0004BF0100B1BF0200FA1D00F9D073525F0C0
:104300000705D5E90023002A05F108011D4673F1D0
:1043100000030F911446A6DA2D27644265EB45058C
:104320008DF8777001233DE51193002A40F06286F5
:104330000F9D073525F0070303F108020F921A6855
:1043400015925B681493149B159D23F00044284636
:1043500021464FF0FF32594B03F03AFD002840F060
:104360004A83284621464FF0FF32544B03F012FD9A
:10437000002840F0408315A80DC8149903F000FDF3
:10438000002840F030859DF877704D4E4D4B2BF056
:104390008000079011980322002108920A91472873
:1043A000D8BF1E460E9212911EE54BF0080B9AF8EC
:1043B000003059E4A3F1300000231C461AF8013BF9
:1043C00004EB840400EB4404A3F130000928F5D980
:1043D0000D944BE44BF0100B11931BF020033FF4B2
:1043E0001DAE0F9D073525F0070303F10802D3E941
:1043F00000450F920023D2E41193002A40F0E78594
:10440000119A002A3FF4A3AC002301211F46089112
:104410008DF8A020CDF81CB08DF877300A93129358
:104420000E9128AEE4E4279C34E5119B652B40F304
:10443000A78015A80DC8149903F098FC002800F077
:104440005081269B204AC8F8002001330134012204
:10445000072B27942693C8F8042000F36A8308F1F9
:1044600008081F9B139A279C934203DB079BDD07D9
:104470007FF582AD269B19991A9AC8F8002001335E
:104480000C44072BC8F804102794269300F39E834E
:1044900008F10808139B5E1E002E7FF76DAD102EED
:1044A000269B0A4D40F3F58122461027DDF830B0F7
:1044B0000B9C13E0D4854000C0854000FFFFEF7FD8
:1044C000B4854000B0854000F0854000048640007F
:1044D00008F10808103E102E40F3DA810133103243
:1044E000072B2792269388E8A000F1DD25AA214614
:1044F000584602F0BDFB00287FF430AC279A269B7B
:10450000C846E7E70D9B089A9F1A002F7FF7E5AC96
:10451000102F269BB64D27DD42462146B0464FF070
:10452000100B2E460C9C0B9D04E0103F102F02F147
:10453000080215DD01331031072B2791269382E8FD
:104540004008F2DD25AA2946204602F091FB00280A
:104550007FF404AC103F102F2799269B4A46E9DCD4
:1045600035460C464646904601333C44072B27947B
:10457000269388E8A00000F3328208F10808ACE432
:10458000139B269F012B40F3FE8101370134012349
:10459000072F27942697C8F80060C8F8043000F366
:1045A000038208F10808199A1A9BC8F800300137ED
:1045B0001444072F27942697C8F8042000F300829C
:1045C00008F1080815A80DC8149903F0CFFB139B38
:1045D000002840F00181013B013701361C44072FC0
:1045E00026972794C8F80060C8F8043000F32781A4
:1045F00008F108081B9AC8F804200137144421ABBD
:10460000072F27942697C8F800307FF7B3AC25AA68
:104610000B990C9802F02CFB00287FF49FAB279C91
:10462000C846A9E425AA0B990C9802F021FB0028A2
:104630003FF4EBACFFF792BBDDF81CB0012B00F0B0
:104640003481022B25D1CDF81CB0002400251EE6B4
:1046500025AA0B990C9802F00BFB00287FF47EAB87
:10466000279CC84675E425AA0B990C9802F000FB1C
:1046700000287FF473AB279CC8461BE425AA0B993E
:104680000C9802F0F5FA00287FF468AB279CC84626
:1046900020E4CDF81CB000240025494600E0314656
:1046A000E20842EA4572E80804F0070305461446AA
:1046B000303354EA050201F8013C01F1FF36EED136
:1046C000079AD2077FF5F3AD302B3FF4F0AD0239F6
:1046D000302306F8013CA9EB01030E930E46FFF7C9
:1046E0007BBB1F99002940F32E82129B139A9342A1
:1046F000A8BF1346002B1F460DDD269BC8F800609F
:1047000001333C44072B2794C8F80470269300F328
:104710001F8308F10808129B002FA8BFDB1B002B8A
:104720001F4640F3D680102F269B314D40F3ED817C
:1047300042462146B0464FF0100B2E460C9C0B9D76
:1047400004E00832103F102F40F3DB8101331031B9
:10475000072B2791269382E84008F2DD25AA2946F7
:10476000204602F085FA00287FF4F8AA2799269BB4
:104770004A46E7E70A9B0E934E46FFF72DBB002DF6
:1047800008BF0A2CC0F08F804E46204629460A22D8
:10479000002303F05BFB303206F8012D204629464A
:1047A00000230A2203F052FB04460D4654EA050397
:1047B000EBD1A9EB06030E93FFF70EBB25AA0B99CD
:1047C0000C9802F055FA00287FF4C8AA9DF877707B
:1047D000279CC846FFF75EBB5E1E002E7FF70AAF20
:1047E000102E034D22DD22464FF0100B0C9C06E0EC
:1047F00004864000103E102E08F1080815DD013730
:104800001032072F2792269788E82008F2DD25AA84
:104810000B99204602F02CFA00287FF49FAA103E44
:10482000102E279A269FC846E9DC144601373444E7
:10483000072F2794269788E860007FF7D9AE25AA2E
:104840000B990C9802F014FA00287FF487AA279C91
:10485000269FC846CEE60F9A146813460433E51720
:104860000F9322462B46FAE404321C680F92012370
:104870000025FFF794BA1C6804330F93002521E448
:104880000F990A4604320C680F920025FFF787BA89
:10489000144601333444072B2794269388E860009C
:1048A0007FF768ABB3E6DDF81CB0CDF81CB042AEC4
:1048B0003034012306F8414D0E93FFF78DBA25AA37
:1048C0000B990C9802F0D4F900287FF447AA279C92
:1048D000C8461F9A139B9A4244DB079BD90741D4D1
:1048E000139B12989A1A1D1A9542A8BF1546002DBF
:1048F0000EDD2699C8F80450013106442C440729DE
:10490000C8F800602794269100F33B8208F108085C
:10491000002DACBF561B1646002E7FF72DAB102E78
:10492000269BB04DB5DD22461027DDF830B00B9C3C
:1049300004E008F10808103E102EA9DD0133103202
:10494000072B2792269388E8A000F2DD25AA2146AE
:10495000584602F08DF900287FF400AA279A269B7A
:10496000C846E8E7269B19981A99C8F80010013341
:104970000444072B2794C8F80400269300F3F5811C
:1049800008F10808ACE7079BDA073FF5FEAD0137F1
:1049900001340123072F27942697C8F80060C8F830
:1049A00004307FF725AE4AE725AA0B990C9802F050
:1049B0005FF900287FF4D2A9279C269FC846F2E51C
:1049C00025AA0B990C9802F053F900287FF4C6A988
:1049D000279C269FC846F5E54E46FFF7FDB925AA58
:1049E0000B990C9802F044F900287FF4B7A9279C92
:1049F000C846FFF772BA159C22462046149C2346EF
:104A0000214603F0E5F9002840F086820A9B013335
:104A1000119B23F020030E9300F0E281472B00F05E
:104A20001E814BF480730793149B1F1E159B0893E4
:104A3000BBBF3B4603F1004700232D231093119B7E
:104A4000662B00F0BB81462B00F0DF800E9B089A9E
:104A5000452B0CBF0A9B0A9D23A820A908BF5D1CFB
:104A6000049003911FA802213B46029001950091FA
:104A70000C9800F075FB119B672B064640F0E08117
:104A80001BF0010F00F046827419169A0898179BC4
:104A9000394603F06BF9002840F06581239BA3425F
:104AA00006D230215A1C23921970239B9C42F9D8BC
:104AB0009B1B13930E9B472B00F0E980119B652BEA
:104AC00040F3CD81119B662B1F9B129300F09E81BA
:104AD000139B129A1946914200F38A811BF0010F31
:104AE00040F0138222EAE273089367230E92119337
:104AF000109B002B40F0C4800A939DF87770FFF75D
:104B000073B935460C464646904601333C44072B64
:104B10002794269388E8A0003FF7D1AE08F1080853
:104B2000D7E60F9A136804320F92099A1A60FFF7BA
:104B30006AB825AA0B990C9802F09AF800287FF41D
:104B40000DA9C8468DE4269B274AC8F800200133EA
:104B500001340122072B27942693C8F8042072DC25
:104B600008F1080829B9139B1BB9079BD8077FF5E3
:104B700003AA269B19981A9AC8F800200133024606
:104B80002244072B2792C8F80400269300F38D8156
:104B900008F108080029C0F265811399C8F800607F
:104BA00001338C18072B27942693C8F804107FF73D
:104BB000E1A92CE50F9A09991368CD17084604322C
:104BC00029460F92C3E90001FFF71DB825AA0B99EA
:104BD0000C9802F04DF800287FF4C0A8279CC84626
:104BE00058E400BF04864000F085400040210C9846
:104BF00001F010FA0B9A10601061002800F0F281A9
:104C00000B9A40235361FEF7EEBF23A820A90A9C0C
:104C1000049003911FA803210290089A01943B4637
:104C200000910C9800F09CFA25460646119B462BF5
:104C300006EB05047FF429AF3378302B00F0788140
:104C40001F9D2C4421E725AA0B990C9802F010F81F
:104C500000287FF483A81F99279CC84682E70A9BF7
:104C6000002B08BF01230A93DBE630460A94FEF7C7
:104C700007FE0F950E90CDF81CB00346FFF7F9B96B
:104C80002D2700238DF877700A93FFF7AEB81F9B8E
:104C900012931A46033304DB0A9B19469142BFF66E
:104CA00017AF119B023B11939DF844308DF884306F
:104CB000129B013B002B1F93BDBF129BC3F101034D
:104CC0002D222B22092B8DF8852040F316810DF122
:104CD00093042046AB4D00E0104685FB0312D91724
:104CE000C1EBA20101EB8102A3EB420230320929A0
:104CF00000F8012C0B4600F1FF32EDDC30330238B6
:104D0000D9B2844202F8011C40F265810DF186009F
:104D1000134601E013F8011B00F8011BA342F9D16F
:104D200001339B1A0DF18602134421AA9B1A139A90
:104D30001B93012A13440E9340F319810E9B199A79
:104D400013440E9323EAE373089300231293CFE6F0
:104D500025AA0B990C9801F08BFF00287EF4FEAF7A
:104D6000279CC846D7E42346A2E625AA0B990C98AF
:104D700001F07EFF00287EF4F1AF1F9A279CC84601
:104D8000AEE525AA0B990C9801F072FF00287EF47D
:104D9000E5AF1F9A139B279C9A1AC846B8E50A9B51
:104DA0001296062B28BF06230A96374608930F95BE
:104DB000CDF81CB00E93744EFFF716B823A820A9A7
:104DC0000A9D049003911FA803210290089A01955F
:104DD0003B4600910C9800F0C3F9064644192BE7B6
:104DE00006230A931DE62D278DF87770FFF7CDBABD
:104DF000199A139B1344129A0E93002A40F3B08021
:104E000023EAE37308936723119371E6002B40F3C1
:104E1000C3800A9A002A40F099801BF0010F40F0ED
:104E2000958008930E9363E60A9B08930E930A906D
:104E30000F95CDF81CB012909DF87770FEF7D4BF97
:104E4000119B472B7FF420AE1BF0010F7FF4EEAED9
:104E5000239B9B1B13930E9B472B3FF418AF1F9B69
:104E6000129321E74F421031484D2FDA1024DDF81C
:104E700030B004E008F10808103F102F26DD0133A0
:104E80001032072B27922693C8F80050C8F8044028
:104E9000F0DD25AA0B99584601F0EAFE00287EF4C1
:104EA0005DAF279A269BC846E6E725AA0B990C9882
:104EB00001F0DEFE00287EF451AF1F99279A269B51
:104EC000C84667E600200A90FEF7D0BE01333A4498
:104ED000072B88E8A0002792269308F108087FF79F
:104EE0005CAE25AA0B990C9801F0C2FE00287EF456
:104EF00035AF279A269BC8464FE6303330228DF8CF
:104F000087308DF8862022AB0FE7129B199A134445
:104F10000E9375E7239BCBE5149B1D4E002BB6BF6C
:104F20002D279DF877708DF877701A4BFFF72FBA01
:104F3000169A0898179B394602F018FF00287FF44C
:104F40007FAEC5F101051F952C449EE5129B199A71
:104F500013440A9A1A4422EAE2730E920893C7E5B0
:104F6000129B0E9AC3F101031A441346D0E71BF0BB
:104F7000010312937FF4E2AE0E9B23EAE3730893DE
:104F8000B6E500BF67666666E885400004864000B7
:104F9000BC854000B88540000A9B13B91BF0010F87
:104FA00002D0199B0133D4E701233AE70F9D9AF809
:104FB0000130286840EAE0700A9028460430A24692
:104FC0000F90FEF751BE8DF87710FFF767B88DF898
:104FD0007710FFF715BA0DF18603A6E68DF8771066
:104FE000FFF7EBB80C9A0C2313604FF0FF330993D3
:104FF000FEF7BDBE8DF87710FFF79AB98DF87710E0
:10500000FFF776B98DF87710FFF759B98DF877105B
:10501000FFF712B9024B13B1024800F005B8704710
:1050200000000000B55F4000002301461A46184604
:1050300001F0AABE02690B69934200F38D802DE94D
:10504000F04F03F1FF3801F1140700F1140B57F88A
:1050500028205BF828304FEA880483B00132B3FB84
:10506000F2F90BEB0403009407EB040A0193B9F186
:10507000000F39D000252E46BC46DE465CF8044BB6
:10508000DEF80030A2B209FB0255220C2C0C09FB01
:105090000242ADB2751B96B2C6EB134615FA83F306
:1050A00006EB23469BB243EA0643E2454FEA12452C
:1050B0004EF8043B4FEA2646E0D2009B5BF80330F3
:1050C00093B9019C231F9B450CD254F8043C4BB967
:1050D000A4F1080302E01A68043B1AB99B4508F1E1
:1050E000FF38F8D3C0F81080044601F0B3FC002864
:1050F0002EDB09F101095D46002357F8041B2868DF
:105100008AB29A1A0B0C12FA80F2C3EB104303EB2B
:10511000224392B242EA0342BA4545F8042B4FEAD1
:105120002343EAD25BF828200BEB880382B91A1FCD
:1051300093450BD253F8042C42B9083B02E01A689D
:10514000043B1AB99B4508F1FF38F8D3C4F8108026
:10515000484603B0BDE8F08F002070470000000013
:105160002DE9F04F016C9BB00446279E92469B466A
:1051700041B1426C4A60012393408B6001F092FA86
:1051800000232364BBF1000F5D4635DB0023336051
:105190009D4BAB4315D0504659460022002302F0E8
:1051A000E5FD804600282DD0269A01231360289B18
:1051B000002B00F0BD809548186001381BB0BDE899
:1051C000F08F269A42F20F731360BAF1000F0DD1DF
:1051D000C5F3130555B9289B8D48002BEED000F17F
:1051E0000803289A13601BB0BDE8F08F289B8948FC
:1051F000002BE3D0C31CF4E701232BF00045336000
:10520000AB46C5E718AA19AB0192009352465B461C
:10521000204601F0BFFC2B0D814671D0CBF3130269
:1052200042F07F51189FCDF850805046A3F2FF36D0
:1052300041F440110022784B02F07CF96CA3D3E9D1
:10524000002302F02BFB6CA3D3E9002302F074F9D6
:10525000CDE90201304602F0BBFA69A3D3E900238D
:1052600002F01CFB02460B46DDE9020102F064F984
:10527000CDE9040102F0C2FD002202900023DDE925
:10528000040102F07DFD002840F07381029D162D7F
:1052900000F25D81614B03EBC503D3E90001524687
:1052A0005B4602F08BFD002800F0C5816B1E029367
:1052B00000230E93BF1B7B1E069300F15481002335
:1052C0000893029B002BC0F24581069A0D9311466C
:1052D0001944002306910C93249B092B2AD8052BF3
:1052E00040F35B86043B24930025249B023B032B65
:1052F00000F24286DFE813F0D403C902DF03610441
:10530000189F199E3E4406F23243202B40F38E81B3
:10531000C3F1400306F212409D402AFA00F02843F0
:1053200002F046FA0123013EA1F1F871149381E7DE
:105330003B4843E7002161642046259101F08CF948
:105340004FF0FF330A93259A0F93012304902064B2
:1053500024920B93199B002BC0F2D980029A0E2A3B
:1053600000F3D5802D4B03EBC203D3E90023CDE935
:105370000823259B002BC0F2BA83DDE9085650466E
:105380002A463346594602F0B3FB02F037FD804609
:1053900002F01EFA2A46334602F080FA0B46024615
:1053A0005946504602F0C6F8049D08F130032B70B0
:1053B0000A9B012B06460F4605F1010568D0002225
:1053C000184B02F06BFA0022002306460F4602F04B
:1053D000CDFC002840F08880CDF82C904FF0000ADA
:1053E000DFF840B00C94DDE9088928E0AFF30080D5
:1053F00061436F63A787D23FB3C8608B288AC63FDB
:10540000FB799F501344D33F0000F07FF1854000AB
:1054100014864000208640000000F83F608640006F
:10542000F08540000000244002F038FA00220023FA
:1054300006460F4602F09AFC002840F0C18342461F
:105440004B463046394602F053FB02F0D7FC044687
:1054500002F0BEF942464B4602F020FA02460B46E5
:105460003046394602F066F804F1300E049E05F825
:1054700001EBA5EB060E0A9EB645CDE906015246A4
:105480005B46D1D1A046DDF82C900C9C06460F4619
:1054900032463B463046394602F04EF806460F4645
:1054A00002460B46DDE9080102F06AFC48B93246C3
:1054B0003B46DDE9080102F059FCA8B118F0010FE4
:1054C00012D015F8018C049A6B1E04E09A4200F089
:1054D000018413F8018DB8F1390F03F10105F5D0FE
:1054E00008F1010883F800804946204601F0DAF807
:1054F0000022029B2A70269A01331360289B002BFE
:1055000000F09E8304981D601BB0BDE8F08F0B9ADD
:10551000002A3ED0249A012A40F311830A9B0C9A58
:105520005F1EBA42C0F28F83D71B0A9B002BC0F2CA
:105530008B84089D0A9B089A1A440892069A0121B6
:105540001A442046069201F047F9064624E001235A
:105550000E93AFE6089A029BD21A5B420C9300238B
:1055600008920D93B8E6C7F1010308930023069350
:10557000A7E6029D284602F02BF902460B46DDE91C
:10558000040102F0F3FB00287FF480AE6B1E02934F
:105590007CE60C9F089D0B9E002D0CDD06990029D2
:1055A0000B4608DDA942089AA8BF2B46D21AED1A6D
:1055B000CB1A089206930C9BD3B10B9B002B00F0E7
:1055C000B782002F10DD31463A46204601F0A0F99F
:1055D0004A4601460646204601F008F949468046FB
:1055E000204601F05FF8C1460C9BDA1B40F0A18217
:1055F0000121204601F0F0F80D9B002B80461CDDB8
:1056000001461A46204601F083F9249B012B80466F
:1056100040F3548200230C93D8F8103008EB830336
:10562000186901F089F8C0F1200010E0C3F12005ED
:105630000AFA05F074E60E903CE6249B012B40F339
:10564000878200230C930D9B0120002BE4D1069A46
:10565000104410F01F0000F0A180C0F12003042BC3
:1056600040F39E84089BC0F11C000344089313463A
:10567000034405440693089B002B05DD49461A4662
:10568000204601F095F98146069B002B05DD414639
:105690001A46204601F08CF980460E9B002B40F004
:1056A00086800A9B002B40F366820B9B002B00F048
:1056B0009880002D05DD31462A46204601F078F914
:1056C00006460C9B002B40F0378306960A9B049AF3
:1056D000DDF818B0013BD3180B930AF001030C93CB
:1056E0001746C24651464846FFF7A4FC31460546D8
:1056F000484601F0AFF95A460A905146204601F05B
:10570000C5F9C268804605F13003002A40F02B82BB
:1057100001464846089301F09DF94146069020460F
:1057200000F0C0FF069A089B32B9249921B90C9A5F
:10573000002A00F0EF83249A0A990029C0F29F8280
:1057400005D1249919B90C99002900F09882002AF2
:1057500000F306830B9A3B7007F101089742454618
:1057600000F00C83494600230A22204600F0A4FFE3
:105770005E45814631464FF000034FF00A02204655
:1057800000F0EB8100F098FF5946064600230A22FC
:10579000204600F091FF47468346A3E71C20089B64
:1057A00003440893069B03440544069363E741467C
:1057B000484601F04FF90028BFF673AF029F4946F3
:1057C00000230A222046013F029700F075FF0B9B41
:1057D0008146002B40F0B6830F9B002B40F3BF8324
:1057E0000A93DDF810B00A9F5D4602E000F064FF06
:1057F000814641464846FFF71DFC00F1300A05F896
:1058000001ABA5EB0B03BB424FF00A024FF00003C4
:1058100049462046EADB049B0A9A012AACBF9B1842
:1058200001331D464FF0000B49460122204601F08E
:10583000BFF84146814601F00DF9002840F33D8252
:1058400015F8012C04996B1E04E08B4200F0AE8128
:1058500013F8012D392A03F10105F6D001321A702F
:105860004146204600F01EFF002E3FF43DAEBBF146
:10587000000F05D0B34503D05946204600F012FF73
:105880003146204600F00EFF2EE600230B93029BCC
:10589000259A13440F930133012B1F461E460A938A
:1058A000B8BF01270021172F61640AD90122042300
:1058B0005B0003F114008742114602F10102F7D2A6
:1058C0006164204600F0C8FE0E2E049020643FF66E
:1058D00041AD002D3FF43EAD02990029CDE910AB5A
:1058E00040F30282B84B01F00F020D1103EBC2032B
:1058F000E906D3E9006740F1AE81B44B5046594602
:10590000D3E9082302F0F4F8CDE9120105F00F0500
:105910004FF0030A8DB1DFF8B482EA0709D53046AB
:105920003946D8E9002301F0B9FF0AF1010A064619
:105930000F466D1008F10808EFD13B463246DDE90D
:10594000120102F0D5F8074688460E9B43B10022AB
:105950009F4B3846414602F013FA002840F08682F9
:10596000504601F035FF3A46434601F097FF994B08
:10597000002201F0E1FD0A9B0546A1F15076002BC3
:1059800000F03E81029B15930A9B12930B9B002B08
:1059900000F0FA81129A8C4B8F4903EBC20353E952
:1059A0000223002002F0A4F82A46334601F0C2FD8B
:1059B00082468B463846414602F020FA054601F001
:1059C00007FF02460B463846414601F0B3FD30352D
:1059D0005FFA85F8049D06460F4685F8008002466A
:1059E0000B4650465946013502F0E8F9002854D1DB
:1059F00032463B460020764901F09CFD02460B46AC
:105A00005046594602F0DAF9002840F07082129AA6
:105A1000012A00F01181129B049ACDF8489013449A
:105A200099460DE000206A4901F084FD52465B462C
:105A300002F0A6F9002840F058824D4500F0FA80A7
:105A4000504659460022654B01F028FF0022634B67
:105A500082468B463046394601F020FF0F46064607
:105A600002F0CCF9804601F0B3FE02460B46304608
:105A7000394601F05FFD08F130085FFA88F85246B8
:105A80005B4605F8018B06460F4602F079F932466F
:105A90003B460028C6D0DDF84890159B029323E5CD
:105AA00000230B93259B002B40F3DC801F461E46F2
:105AB0000F930A93F6E601230B93F3E7BAF1000F75
:105AC0007FF4A8ADCBF31303002B7FF4BAAD2BF01A
:105AD00000473F0D3F05002F00F00D82089B01336A
