:020000040040BA
:10000000883600201926400015264000152640009D
:10001000152640001526400015264000000000006F
:10002000000000000000000000000000D1024000BD
:10003000152640000000000071034000D503400079
:1000400015264000152640001526400015264000C4
:1000500015264000152640001526400015264000B4
:1000600015264000152640001526400015264000A4
:100070001526400015264000152640001526400094
:100080001526400015264000152640001526400084
:100090001526400015264000152640001526400074
:1000A0001526400015264000152640001526400064
:1000B0001526400015264000152640001526400054
:1000C0001526400015264000152640001526400044
:1000D0001526400015264000152640001526400034
:1000E0001526400015264000152640001526400024
:1000F000152640001526400010B5054C237833B96D
:10010000044B13B10448AFF300800123237010BDEA
:100110004C04002000000000002E40000C4B43B1B6
:100120000C480D4910B5AFF300800C48036823B9A3
:1001300010BD0A48036833B97047094B002BF7D04C
:10014000BDE810401847064B002BF5D0184700BFFC
:1001500000000000002E400050040020002E40004F
:100160000000000070470000094B1A5C530903F5BA
:10017000001303F207735B02D96B02F01F02012325
:1001800003FA02F20A420CBF18460020704700BF73
:100190000000002000F1080343604FF0FF3282604E
:1001A000C36003610023036070470023036170474D
:1001B00043684B609A688A609A68516099600861E8
:1001C000036801330360704730B40D68B5F1FF3F39
:1001D00002D000F1080202E0026904E01A46536806
:1001E0001C68A542FAD253684B6099608A605160DE
:1001F000086103680133036030BC704703694268DB
:10020000816891608268416851605A68904204BF79
:1002100082685A60002202611A68013A1A601868FE
:100220007047000008480068006880F308884FF0B5
:10023000000080F3148862B661B6BFF34F8FBFF33E
:100240006F8F00DF00BF000008ED00E0DFF80C005A
:10025000016841F4700101607047000088ED00E022
:1002600000B583B0002301930B4B1B68B3F1FF3F34
:1002700003D0E72109480A4B98474FF0500383F316
:100280001188BFF36F8FBFF34F8F019B002BFCD002
:1002900003B05DF804FB00BF04000020B42C400054
:1002A000212940004FF0807340F8043C21F0010107
:1002B00040F8081C054B40F80C3C40F8202C6FF02F
:1002C000020340F8243C4438704700BF61024000FC
:1002D000074B19680868B0E8F04F80F30988BFF34E
:1002E0006F8F4FF0000080F311887047AFF30080EC
:1002F0009004002008B54FF0500383F31188BFF33A
:100300006F8FBFF34F8F094A136801331360012BBE
:1003100000D008BD064B1B6813F0FF0FF9D04FF457
:10032000D3710448044B9847F3E700BF0400002052
:1003300004ED00E0B42C40002129400008B5084B32
:100340001B683BB1064A1368013B13600BB983F38A
:10035000118808BD40F2AD110248034B9847F1E700
:1003600004000020B42C40002129400000000000BF
:10037000EFF30980BFF36F8F154B1A681EF0100F53
:1003800008BF20ED108A20E9F04F10602DE9090028
:100390004FF0500080F31188BFF34F8FBFF36F8F82
:1003A00001F00CFA4FF0000080F3118809BC1968C5
:1003B0000868B0E8F04F1EF0100F08BFB0EC108ACC
:1003C00080F30988BFF36F8F704700BFAFF30080E1
:1003D0009004002008B54FF0500383F31188BFF359
:1003E0006F8FBFF34F8F054B984718B14FF0805276
:1003F000034B1A60002383F3118808BD09144000E1
:1004000004ED00E0084A0023136008490B60084B24
:100410001B680849A1FB03139B09013B06490B60BC
:1004200007231360704700BF10E000E018E000E011
:1004300018000020D34D621014E000E010B582B027
:10044000364B1A68364B9A421ED0344B1A68354BDD
:100450009A421FD0344B1A78D2B20192FF221A70FE
:100460001B78DBB28DF803309DF8033003F05003A6
:100470002E4A137007222E4B1A609DF8033013F09A
:10048000800F1ED006220CE04FF4977129482A4BAA
:100490009847DAE740F22F112648274B9847D9E7CB
:1004A0000A469DF803305B00DBB28DF803309DF8FF
:1004B0000330511E13F0800FF2D11D4B1A60032A36
:1004C00004D040F261111B481B4B9847184A13682F
:1004D0001B0203F4E0631360019BDBB2124A13704A
:1004E000164B1A6842F470021A601A6842F07042A1
:1004F0001A60134B98470024124B1C60124B98470C
:10050000124A136843F040431360114B9847114B54
:100510009847114B9847204602B010BD00ED00E00F
:1005200071C20F4170C20F4100E400E06804002076
:100530006C040020B42C40002129400020ED00E094
:1005400005044000040000204D02400034EF00E0AC
:1005500025024000BD1740006102400010B4134A5C
:1005600000E01A4613688342FBD351685418A04236
:100570000AD041684418A3420BD00360904218BFD0
:1005800010605DF8044B70474068014451601046AC
:10059000EFE7074C2468A34206D05B68194441602A
:1005A00013681B680360E9E70360E7E7880400203D
:1005B00070040020F8B504462F4B1B68EBB12F4B9D
:1005C00098472F4B1D6825424DD1002C4ED004F189
:1005D00008018C424AD211F0070F05D021F0070321
:1005E0000833994242D2194600293CD0254B1E6857
:1005F000B14238D8244A146806E08E212348244B9F
:100600009847DCE722461C466368994202D9236872
:10061000002BF7D1184B1B689C4224D01768083771
:100620002368136063685B1A102B16D86268B61AC9
:1006300014490E60174909688E423CBF15490E6087
:100640001543656000232360134A13680133136068
:10065000124B984767B13846F8BD60184360616037
:100660000F4B9847E2E70D4B984701E00B4B98473B
:100670000C4B98470027EEE770040020ED13400074
:10068000740400207804002088040020E42C40003A
:10069000212940007C04002080040020C515400072
:1006A0005D0540004D294000002844D010B50446A7
:1006B00050F8042C204B1B681A4211D050F8083C0B
:1006C000F3B140F22D111D481D4B984754F8043CDE
:1006D000194A1268134202D054F8081CA1B110BD87
:1006E0004FF496711548164B984754F8083C002B68
:1006F000E7D154F8043C104A12681342EFD003E0EB
:1007000054F8043C0C4A126823EA020344F8043CFF
:100710000C4B98470C4A54F8043C11680B44136086
:10072000A4F10800094B9847094A13680133136084
:10073000084B984710BD704774040020E42C40001B
:1007400021294000ED134000780400205D054000A1
:1007500084040020C51540002DE9F84F0546354BAF
:100760001B6823B140F2A3113348344B9847D5F8A6
:1007700004B0BBF1000F52D008350026B0462D4F13
:10078000DFF8B4A0DFF8B4901DE03B6873B33B68BA
:10079000A34230D239680BEB0403083B23F0070374
:1007A0003B6000225A601A602246181B606023607A
:1007B00001B10C60536898440136083555F804BC03
:1007C000BBF1000F1CD055F8084C14F0070F06D0F1
:1007D000E21D22F00702A344ABEB020B1446002EED
:1007E000D3D1174B1C6000225A60D3E740F2C511E9
:1007F0005046C847CBE74FF4E4715046C847C9E7B5
:10080000104BC3F80080104BC3F80080B8F1000F04
:100810000AD04FF000420D4B1A60BDE8F88F00235C
:10082000084A1360084A136040F2F1110248034B72
:100830009847EEE770040020E42C40002129400096
:10084000880400207C040020780400207404002028
:1008500010B50446044B9847A46B044B9847B4FA70
:1008600084F0400910BD00BFF50240003D03400088
:1008700070B504461646856B026C5AB903680020B1
:1008800013B10135A56370BDA068174B98470023CD
:10089000A360F6E76EB94068144B98476368226C12
:1008A00013446360A268934219D3236863600020F5
:1008B000E7E7C0680D4B9847226C5242E368134447
:1008C000E36021688B4202D2A3681A44E260022EE0
:1008D00001D00020D5E725B1013D0020D1E700205F
:1008E000CFE70020CDE700BFF51B4000C529400041
:1008F00070B582B00190846C5CB1A26BE36B9A42DC
:100900000DD2A26BE36B9A420FD30026304602B0A1
:1009100070BD40F6D5311748174B9847EDE740F6C4
:10092000D6311448144B9847EBE794F845506DB214
:10093000002201A92046114B98470646B5F1FF3F1A
:1009400006D07F2D0FD001356DB284F84550DDE71C
:10095000636A002BDAD004F12400094B9847002881
:1009600018BF0126D2E740F6F6310248024B9847FD
:10097000E9E700BF102D4000212940007108400028
:10098000311A4000026C72B110B5C3681344C360E1
:100990008468A34224BF0368C3600C46C168204634
:1009A000014B984710BD7047C52940002DE9F04123
:1009B0000546234B984795F8454064B2002C18DD56
:1009C000204EDFF88C80204F08E06B6A8BB105F178
:1009D0002400B84758B9013C64B254B1AB6C002B49
:1009E000F3D02846B0470028F5D0C047F3E7C0470A
:1009F000F1E7FF2385F84530144B9847104B984793
:100A000095F8444064B2002C12DD2B6983B105F1E6
:100A100010070D4EDFF8388004E0013C64B23CB1B1
:100A20002B692BB13846B0470028F6D0C047F4E711
:100A3000FF2385F84430054B9847BDE8F08100BF9F
:100A4000F5024000F1084000311A40003D0340002B
:100A5000C91B400038B550B10D460446C36B63B99D
:100A600040F245112148224B9847002038BD4FF4F1
:100A700088711E481E4B9847F2E74FF0FF32B2FBD9
:100A8000F3F3226C9342EBD31A4B98472268216C04
:100A9000E36B03FB01F3D018A0600020A063626049
:100AA0005B1A1344E360FF2384F8443084F8453034
:100AB000A5B923691BB9104B9847012038BD04F133
:100AC00010000E4B98470028F5D04FF080520C4B89
:100AD0001A60BFF34F8FBFF36F8FECE704F1100084
:100AE000084DA84704F12400A847E4E7102D400072
:100AF00021294000F50240003D034000311A40002A
:100B000004ED00E09501400070B508B30D460646BF
:100B10004FF0FF33B3FBF0F38B4219D301FB00F02E
:100B200010F14D0F14D84C300D4B9847044658B176
:100B300065B100F14C030360E663256401212046A2
:100B4000084B98470023A364204670BD2060F3E75C
:100B50004FF4E3710448054B98470024F4E700BFC5
:100B6000B5054000550A4000102D400021294000E5
:100B70002DE9F04784B088460192044698B1B8F157
:100B8000000F16D04D4B984730B9019B23B140F26E
:100B90005A514B484B4B98474FF0000A4A4D4B4E29
:100BA000DFF8389144E040F251514548454B9847B1
:100BB000E5E7236C002BE5D040F255514048414B0E
:100BC0009847DFE741462046414B98477B1EA36389
:100BD00023692BB93F4B9847012004B0BDE8F0874B
:100BE00004F110003C4B98470028F3D04FF080529E
:100BF0003A4B1A60BFF34F8FBFF36F8FEAE7354B65
:100C000098470020E9E702A8B0471BE02046344B94
:100C10009847344B984709E02046314B9847314B71
:100C200098472046304B9847002844D14FF0010A9E
:100C3000A847A76B002FC5D1019B002BDFD0BAF1CD
:100C4000000FE0D0234B9847284B9847A84794F8CB
:100C500044305BB2B3F1FF3F04BF002384F844305B
:100C600094F845305BB2B3F1FF3F04BF002384F832
:100C70004530184B984701A902A81D4B98470028FA
:100C8000CAD12046184B98470028BFD0019904F1DB
:100C90002400184B98472046114B9847114B984712
:100CA0000028C3D14FF08053C9F80030BFF34F8FF5
:100CB000BFF36F8FBAE700208FE700BFD51B40005E
:100CC000102D400021294000F5024000251B400066
:100CD000850940003D034000311A400004ED00E06A
:100CE000AD094000C515400051084000ED1340001B
:100CF0003D1B40009119400070B50D460446B8B147
:100D0000ADB1124B5B689C4218D0104A00210B46D3
:100D10001646A9B10133082B06D008325068844228
:100D2000F7D10A4901EBC30109B10D604C6070BDF8
:100D300040F6C8210648074B9847E1E70023F0E753
:100D400056F83300002808BF1146E3E720060020CC
:100D5000102D40002129400070B504460D4616466E
:100D6000114B984794F844305BB2B3F1FF3F04BF96
:100D7000002384F8443094F845305BB2B3F1FF3F70
:100D800004BF002384F84530084B9847A36B1BB180
:100D90002046074B984770BD3246294604F124008F
:100DA000044B9847F4E700BFF50240003D034000C4
:100DB000AD094000D1194000074B1B681B6833B1D7
:100DC000054B1B68DB681A68044B1A6070474FF0CC
:100DD000FF32024B1A607047940400207C0500200B
:100DE00010B5044628B162690A4B9A4207D0002028
:100DF00010BD40F227710848084B9847F3E7A06AF6
:100E0000074B984203D0B0FA80F0400910BD002093
:100E100010BD00BFA0050020282D40002129400062
:100E20008805002080B5164DDFF86C80154FDFF87F
:100E30006C902B68BBB1144EC047FB68DC68201D6A
:100E4000B047124A1368013B13602B68013B2B60CB
:100E50000F4B9847206BDFF848A0D0472046D0477B
:100E60002B68002BE8D10B4B1B68012BE1D94FF00D
:100E70008053C9F80030BFF34F8FBFF36F8FD8E7AF
:100E800040050020B4050020FD0140003C05002085
:100E90003D0340009C040020F502400004ED00E00A
:100EA000A906400070B504460E46244B1D68244B2D
:100EB00018680430234B984748B9214B1A682249D7
:100EC0000B68D06A0122824023EA02030B60B4F16E
:100ED000FF3F13D02C441A4B1B685C60A54224D8FA
:100EE0001A4B1868164B19680431194B9847194B5F
:100EF0001B689C423CBF174B1C6070BD002EE9D0A4
:100F0000154A51680E4B1868816018688C68C46077
:100F10008C681868043060601868043088601B684A
:100F20005A6113680133136070BD0C4B1868044B91
:100F300019680431064B984770BD00BFC8050020F2
:100F400090040020FD0140004C0500209404002086
:100F5000C90140007C050020A00500209804002065
:100F60002DE9F04F83B083460E4601930C9DDDF8CA
:100F700034A0970038466E4B9847002800F0A580B3
:100F8000804664206A4B98470446002800F09A8007
:100F9000C0F830803A46A5214046664B9847043F4A
:100FA000236B1F4427F00707002E00F09180337851
:100FB00084F8343033785BB1334604F134021336AD
:100FC000597802F8011F13F8011F09B1B342F7D194
:100FD000002384F84730072D7ED8072D28BF07252A
:100FE000E562A5640026E66404F104084046DFF8E3
:100FF0009C91C84704F11800C8472461C5F1080551
:10100000A561646226656665A665E66584F860602C
:10101000019A59463846484B98472060BAF1000F6C
:1010200001D0CAF80040454B9847454A1368013340
:101030001360444B1B68002B54D0434B1B683BB9D7
:10104000404B1B68DA6AE36A9A429CBF3D4B1C60C6
:101050003E4A136801331360E36A3D490868012280
:101060009A4002430A603B4A03EB830302EB83038B
:101070005B68A3609968E1609968C1F80480C3F86F
:101080000880E06A83001918890055186561515875
:10109000013103449B00D1502F4B98472A4B1B68CA
:1010A000002B3FD0274B1B68DA6AE36A9A423DD295
:1010B0004FF08052294B1A60BFF34F8FBFF36F8FF1
:1010C000012030E04046264B98474FF0FF302AE0A1
:1010D000002384F834307EE740F297312148224BD8
:1010E00098477AE7174B1C601368012BB0D1194D54
:1010F00005F1A0071D4E2846B0471435AF42FAD17E
:101100001B4F3846194DA8471A4E3046A8471A4873
:10111000A8471A48A8471A48A8471A4B1F601A4BF5
:101120001E6095E7012003B0BDE8F08F0120FAE7CB
:10113000B5054000F92A4000A5024000F502400034
:101140003C050020900400209C050020480500205C
:101150004C0500209C0400203D03400004ED00E00D
:10116000A9064000282D400021294000950140009B
:10117000500500206405002088050020B4050020EB
:10118000A00500209404002098040020AB0140003A
:1011900038B504462E4B9847002C3AD0251D2846DA
:1011A0002C4B984770B9E26A02EB82039B002A49F4
:1011B000CB583BB929480368012101FA02F223EA1E
:1011C00002020260A36A1BB104F11800214B984788
:1011D000234A136801331360224B1B689C421BD0C7
:1011E000214A1368013B1360204B9847204B9847D6
:1011F0001C4B1B689C4204D0206B1E4DA847204608
:10120000A8471D4B1B681BB1164B1B689C420CD09A
:1012100038BD144B1C68C1E729461848184B98473D
:10122000184A136801331360E0E7174B1B6843B992
:101230004FF08052154B1A60BFF34F8FBFF36F8F83
:10124000E6E740F2DC411248124B9847F0E700BF56
:10125000F5024000FD0140009C0400204C050020E8
:1012600048050020900400203C050020B90D4000F6
:101270003D034000A90640009C050020B405002065
:10128000B1014000400500204405002004ED00E0CD
:10129000282D40002129400038B568B10446234B71
:1012A0001B68984241D0224B98472046214B9847D3
:1012B00050B9214B984738BD40F251711F48204B1F
:1012C00098471A4B1B6838BD251D28461D4B98476B
:1012D000E36A1D49086801229A4002430A601B4ADA
:1012E00003EB830302EB83035B68A3609968E1600F
:1012F00099684D609D60E06A83001918890055184F
:1013000065615158013103449B00D150074B1B6864
:10131000E26ADB6A9A42CCD34FF080520C4B1A60DF
:10132000BFF34F8FBFF36F8FC3E738BD900400202A
:10133000F5024000E10D40003D034000282D400033
:1013400021294000FD0140004C0500209C040020A4
:1013500004ED00E010B582B0184B01930023009318
:10136000822217491748184CA047012806D0B0F12F
:10137000FF3F1CD0154B1B6802B010BD144B9847A3
:101380000128F4D14FF0500383F31188BFF36F8F1E
:10139000BFF34F8F4FF0FF320E4B1A6001220E4BFE
:1013A0001A6000220D4B1A600D4B9847E2E74FF48C
:1013B00004610C480C4B9847DCE700BF780500201F
:1013C000402D4000250E4000610F40000800002025
:1013D000112040007C0500209C050020C80500204D
:1013E0003D044000282D400021294000024A136896
:1013F00001331360704700BF44050020014B18689B
:10140000704700BFC80500202DE9F84F5F4B1B68EF
:10141000002B40F0B3805E4B1C6804F1010BC3F855
:1014200000B0BBF1000F0FD15A4B1B681B6813BBF8
:10143000584A1168584B186810601960574A136869
:1014400001331360564B9847564B1B689B4518D287
:101450000020554B1B68DB6A03EB83039B00534A58
:10146000D358022B28BF0120514B1B68002B18BFFB
:101470000120BDE8F88F40F6C7214E484E4B9847F3
:10148000D6E70020434907464C4D4FF0010E474A2E
:10149000DFF8148136E04FF0FF32424B1A60D8E794
:1014A000404B1E60D5E7DE6AD5F800A00EFA06F9BB
:1014B00049EA0A09C5F8009006EB860602EB8606A3
:1014C00076689E60B468DC60B468C4F804C0C6F88E
:1014D00008C0D3F82C904FEA890606EB090C02EB02
:1014E0008C0AC3F814A052F82CC00CF1010C4E4425
:1014F00042F826C0D8F800C0DE6ADCF82C309E42E4
:1015000028BF01200B681B68002BC4D00B68DB6868
:10151000DB685E68B345C3D3D3F814909E68DC687B
:10152000B460DE689C68746003F1040CD9F8046050
:10153000664504BFDE68C9F804605F61D9F80060E1
:10154000013EC9F80060D3F82890B9F1000FAAD085
:10155000DE691C6AB4601E6ADC69746003F1180AF3
:10156000D9F80460564504BF1E6AC9F804609F623A
:10157000D9F80060013EC9F8006094E7104A13688A
:10158000013313600020BDE8F88F00BF4405002040
:10159000C805002094040020980400208005002045
:1015A000B90D40007C050020900400209C04002020
:1015B000CC050020282D4000212940004C050020AA
:1015C000840500202DE9F047574B1B68002B7AD08B
:1015D000564B9847544B1A68013A1A601B68002B07
:1015E00040F09A80524B1B68002B72D00023514967
:1015F0001C4651480126514ADFF864A1DFF854E146
:101600000D68002D67D0CB68DB68D3F828C0DD6992
:101610001F6AAF601D6ADF696F6003F11808DCF8AC
:101620000450454504BF1D6ACCF804509C62DCF8A8
:101630000050013DCCF80050D3F814C09D68DF681D
:10164000AF60DD689F686F6003F10408DCF8045048
:10165000454504BFDD68CCF804505C61DCF80050FF
:10166000013DCCF80050DD6AD0F8009006FA05FC88
:101670004CEA090CC0F800C005EB850502EB8505B6
:101680006D689D60AF68DF60AF68C7F80480C5F81B
:101690000880D3F82C804FEA880505EB080C02EB94
:1016A0008C09C3F8149052F82CC00CF1010C45447D
:1016B00042F825C0DAF80050ED6ADF6AAF429FD3E6
:1016C000CEF800609CE740F6B3011D481D4B9847DB
:1016D0007EE7002421E00BB11B4B98471B4B1C6895
:1016E0006CB11B4D1B4F012601E0013C04D0A84703
:1016F0000028FAD03E60F8E70022144B1A60154B20
:101700001B687BB14FF08052134B1A60BFF34F8FB1
:10171000BFF36F8F012400E00024104B9847204650
:10172000BDE8F0870024F8E744050020F5024000FA
:101730003C050020880500204C0500209C0400206A
:10174000282D400021294000B90D400084050020CB
:1017500009144000CC05002004ED00E03D034000EA
:101760009004002010B560B104460D4B1B688BB986
:101770000C4B9847002120460B4B98470B4B984742
:1017800038B94FF080520A4B1A60BFF34F8FBFF346
:101790006F8F10BD40F249510648074B9847E7E765
:1017A00044050020ED134000A50E4000C515400083
:1017B00004ED00E0282D4000212940002B4B1B6840
:1017C000002B34D110B50022294B1A60294B1B681D
:1017D0001B6B1A68B2F1A53F2DD0264B186819680B
:1017E0003431254B9847254B1C68B4FA84F4E4B295
:1017F000C4F11F0404EB84039B00214AD3583BB37C
:101800001F4BA200111903EB810148684068486032
:1018100022440B460833984220D004EB8404184B32
:1018200003EB84046368DA68124B1A6010BD01226E
:101830000F4B1A6070475A68B2F1A53FCDD19A6834
:10184000B2F1A53FC9D1DB68B3F1A53FC5D1CAE765
:1018500040F602410B480C4B9847D1E741681346CC
:10186000074A02EB83035960D7E700BF4405002015
:10187000CC05002090040020612940004C05002088
:101880009C040020282D40002129400038B5044642
:101890002F4B9847002C2FD0251D28462D4B9847BD
:1018A00070B9E26A02EB82039B002B49CB583BB92B
:1018B0002A480368012101FA02F223EA02020260C7
:1018C000A36A1BB104F11800224B9847294624480B
:1018D000244B984794F86030DBB2012B04BF0023FF
:1018E00084F86030204B9847204B1B683BB9204B55
:1018F0001B689C420AD038BD1D4B1C68CCE7144BBA
:1019000098471C4B9847184B9847F0E7174B1B68B4
:101910008BB1194B1B6843B94FF08052174B1A60BB
:10192000BFF34F8FBFF36F8F38BD40F2FD61144896
:10193000144B9847F0E70A4B1A68134B1B689A42FE
:1019400002D0124B9847D6E70022094B1A6038BDE7
:10195000F5024000FD0140009C0400204C050020E1
:10196000A0050020B10140003D0340009C0500207F
:1019700090040020B90D40004405002004ED00E073
:10198000282D4000212940003C050020BD174000C3
:1019900038B50C46054650B1084B19681831284631
:1019A000074B984701212046064B984738BD40F623
:1019B0001C410548054B9847EEE700BF9004002006
:1019C000C9014000A50E4000282D400021294000FB
:1019D00070B50E4615460446D8B16268104B1968BA
:1019E000CA61196890680862906819681831416086
:1019F0001968183191601B689C6223680133236069
:101A0000002D29460CBF30464FF0FF30054B98475C
:101A100070BD40F652410448044B9847DDE700BFD3
:101A200090040020A50E4000282D400021294000F0
:101A300038B5C368DC68002C51D0A36AE269216A1A
:101A40009160226AE169516004F118015A688A4282
:101A500004BF226A5A600022A2621A68013A1A6020
:101A6000284B1B68002B40D16369A268E168916034
:101A7000E268A1685160211D5A688A4204BFE26889
:101A80005A60002262611A68013A1A60E36A1E48CD
:101A9000056801229A402A4302601C4A03EB830333
:101AA00002EB83035B68A3609868E060986841601C
:101AB0009960E06A830019188900551865615158CA
:101AC000013103449B00D150114B1B68E26ADB6A71
:101AD0009A4283BF01200F4B1860002038BD40F6AA
:101AE00082410D480D4B9847A7E70D4B5A68E261BC
:101AF00090682062906841609160A3621A68013228
:101B00001A60E1E7440500204C0500209C040020F9
:101B100090040020CC050020282D40002129400001
:101B200088050020034B1B680360034B1B68436060
:101B3000704700BF80050020C805002070B50C4626
:101B40000546D0B1FCB1194B9847194B1B68226868
:101B5000B2F1FF3F28D06968164800682E688642B7
:101B600001D08B4215D25B1A934216D30023236017
:101B70000124114B9847204670BD40F6FD410F48A7
:101B80000F4B9847DEE740F6FE410C480C4B984758
:101B9000D9E7002323600124EBE7D31A236028460A
:101BA000084B98470024E4E70024E2E7F5024000F0
:101BB000C8050020800500203D034000282D40007E
:101BC00021294000251B40000122014B1A6070476B
:101BD000CC050020054B1B6833B1054B1B68002B5F
:101BE0000CBF022000207047012070479C05002098
:101BF0004405002000284DD070B50446274B1B68D3
:101C0000984204D041F24F012548264B9847E36C97
:101C10004BB1E36C013BE364E16AA26C91423BD0BF
:101C20003BB1002070BD41F250011D481D4B98474B
:101C3000EFE7251D28461C4B984738B91B490B6810
:101C4000E06A0122824023EA02030B60A36CE36294
:101C5000C3F10802A26115490E68012000FA03F2DF
:101C600032430A60124A03EB830302EB83035B688F
:101C7000A3609968E16099684D609D60E56AAB007A
:101C80005919890056186661515801442B449B002C
:101C9000D15070BD00207047002070BD900400201E
:101CA000282D400021294000FD0140004C05002066
:101CB0009C04002008B54160006191420CD8D21A02
:101CC00083699A4201D3012008BD011D094B1868A0
:101CD000094B9847002008BD9A4201D2994206D28A
:101CE000011D064B1868044B9847002008BD0120D1
:101CF00008BD00BFD4050020C9014000D005002068
:101D0000F8B504460D461746074E04E0A3691D4486
:101D1000236A20469847A1692B463A462944204623
:101D2000B0470028F2D1F8BDB51C400070B505469B
:101D30000E460D4B1B68DB68DC68201D0B4B98477B
:101D400094F8243013F0040F07D123F0010384F832
:101D50002430236A2046984770BD324629462046E3
:101D6000034B9847F5E700BFD0050020FD01400078
:101D7000011D40002DE9F0418046144B9847044670
:101D8000134B1B68984207D30023C8F80030104B50
:101D90001C602046BDE8F0810E4B1B681A685AB1E2
:101DA0004FF0FF370C4E0B4DDB6839461868B047D3
:101DB0002B681A68002AF7D1084A1068054908609C
:101DC00013600123C8F80030E1E700BFFD134000B5
:101DD00000060020D00500202D1D4000D405002065
:101DE0002DE9F04F87B05E4E5E4F5F4DDFF8A89152
:101DF000DFF8A88133681A6892B1DB68D3F800A0D5
:101E00005A4B984702A85A4B98470446029A42BB3D
:101E1000504515D3B84721465046564B98471EE0CB
:101E2000524B984702A8524B98470446029BC3B9AD
:101E3000514B1B681A68B2FA82F252094FF0000A3D
:101E4000AAEB040128684D4B9847B84738B94FF0C2
:101E50008053C9F80030BFF34F8FBFF36F8F484CEA
:101E600008E0B847FBE705990498039B9847029B55
:101E7000002B08DA002202A92868A0470028B9D060
:101E8000029B002BEFDBDDF810A0DAF8143013B161
:101E90000AF10400C04701A8354B98478346029BCE
:101EA000013B082BE6D8DFE803F005052D344D058E
:101EB000052D34009AF8243043F001038AF82430C9
:101EC0000399DAF818000B465A46014450462D4C47
:101ED000A0470028C3D09AF8243013F0040F08D18B
:101EE00023F001038AF82430DAF82030504698476E
:101EF000B5E7DAF818305A46039919445046224B90
:101F00009847F1E79AF8243023F001038AF8243047
:101F1000A5E79AF8243043F001038AF82430039BA4
:101F2000CAF8183043B1DAF818105B465A465944DB
:101F30005046144CA04792E740F259311348144BD5
:101F40009847F0E79AF8243013F0020F04D023F0FA
:101F500001038AF8243082E750460E4B98477EE70B
:101F6000D0050020C515400004060020ED134000F8
:101F7000751D40002D1D4000D4050020590D400066
:101F8000710B4000B51C4000011D4000502D400069
:101F900021294000A906400004ED00E0FD014000B9
:101FA00070B5104B9847104B1B6813B10F4B9847F7
:101FB00070BD0F4D28460F4EB0470F4C2046B0471E
:101FC0000E4B1D600E4B1C600022102105200D4B96
:101FD0009847054B18600028E8D00B490B4B9847F1
:101FE000E4E700BFF5024000040600203D03400086
:101FF000D805002095014000EC050020D005002008
:10200000D4050020090B4000482D4000F90C400089
:1020100010B582B00D4B98470D4B1B687BB10D4B33
:1020200001930723009300234FF482720A490B485F
:102030000B4CA047034610B1184602B010BD40F249
:1020400019110848084B98470023F5E7A11F4000E5
:1020500004060020080600206C2D4000E11D400011
:10206000610F4000502D40002129400070470000C2
:102070000C4B1A5C530903F5001303F207735B0260
:1020800041B902F01F02012101FA02F25A63064B24
:102090001878704702F01F02012101FA02F21A6358
:1020A000F5E700BF100000200C000020094B1A5C6F
:1020B000530903F5001303F207735B02D86B02F0B8
:1020C0001F0101228A4010420CBF1A635A63024B5F
:1020D00018787047100000200C000020F8B5074663
:1020E000044E4FF4FA75044C3878B0472846A047A0
:1020F000FAE700BFAD2040006517400010B582B080
:102100001E4B1B78022B02D801331C4A13701B4B49
:102110001B78022B14D0032B21D0012B01D002B04D
:1021200010BD174B1B68002BF9D1154B01930123F0
:102130000093144B822214491448154CA047EEE733
:10214000144B1B68002BEAD1124B0193012300931F
:10215000114B822211490D480D4CA047DFE7104B6F
:102160001B68002BDBD10E4B0193012300930D4B19
:1021700082220D490548064CA047D0E70C060020F6
:102180001006002014000020742D4000DD204000C7
:10219000610F40001406002015000020842D40002F
:1021A0001806002016000020942D400010B5184B92
:1021B0001B78022B15D0032B08D0012B1CD0144BFD
:1021C0001B7813B1013B124A137010BD002103208C
:1021D000104B9847104C2068104B98470023236001
:1021E000EDE7002102200B4B98470D4C20680B4B6C
:1021F000984700232360E2E700210120054B984720
:10220000084C2068054B984700232360D7E700BFA0
:102210000C0600207120400018060020911140009B
:10222000140600201006002008B5144B1B7893B943
:10223000134B186808B1134B9847134B186808B133
:10224000104B9847114B186808B10E4B9847012264
:102250000A4B1A7008BD0A4B186808B10C4B984716
:10226000094B186808B10A4B9847084B186808B121
:10227000074B98470022014B1A7008BD0D0600203D
:10228000100600208D1840001406002018060020BB
:102290009912400070B50D4C0D4E0E4D06E0B04742
:1022A00008E0A8470AE064200B4B98470020A047AD
:1022B0000028F4D10120A0470028F2D10220A04735
:1022C0000028F0D0054B9847EDE700BF69014000BA
:1022D000FD204000AD21400065174000292240004C
:1022E00010B4444A04231361C2F8A0305363082396
:1022F0001361C2F8A03053633F4B4FF080711961F6
:10230000C3F8A01059634FF000711961C3F8A01011
:1023100059634FF400401861C3F8A00058634FF4AC
:1023200080305861C3F8A0005866C3F89000586523
:102330001862C3F884001C6F24F480341C675C6F3F
:1023400024F480345C67C3F8C000C3F8D400C3F839
:10235000B0004FF400605861C3F8A0005866C3F89D
:10236000900058651862C3F884001C6F24F4006460
:102370001C675C6F24F400645C67C3F8C000C3F89A
:10238000D400C3F8B00003F5C0635961C3F8A010CE
:102390005966C3F8901059651962C3F88410186F14
:1023A00020F000701867586F20F000705867C3F86D
:1023B000C010C3F8D410C3F8B0104FF48043536179
:1023C000C2F8A0305366C2F8903053651362C2F869
:1023D0008430116F21F480411167516F21F48041E5
:1023E0005167C2F8C030C2F8D430C2F8B0305DF8DE
:1023F000044B704700100E40000E0E4010B50E4802
:102400000E4B98473E2100200D4B98470D4CA0479E
:102410000028FCD00C4B98470C4A0D4B9A620D4C8F
:10242000A0470028FCD010200B4B98470B4B984737
:102430000B48024B984710BD000E2707ED274000C0
:102440003D25400091254000A1254000013F0F207F
:1024500000040E40B1254000D9244000E126400090
:1024600000D8B80510B54FF40042184B5A60092047
:10247000174CA0470A20A0470B20A0470C20A047DC
:102480000D20A047134B4FF480021A61C3F8A0201F
:102490001A63A3F5C06304225A61C3F8A0205A66E8
:1024A000C3F890205A651A62C3F88420196F21F08E
:1024B00004011967596F21F004015967C3F8C0205E
:1024C000C3F8D420C3F8B02010BD00BF50180E4090
:1024D000C125400000140E40174A136B23F070030F
:1024E00018431063936E13F0080F0AD14FF4006382
:1024F00011498A6E12F0080F03D1013BF9D1012076
:1025000070470D4A136B23F0030343F00203136378
:10251000936E13F0080F0AD14FF4006306498A6ED8
:1025200012F0080F05D1013BF9D1012070470020BE
:1025300070470020704700BF00040E40C8B9114A20
:10254000136A090289B223F45C1323F0030343F4F2
:102550005C1343F001030B431362936E13F0010FFE
:10256000FBD0084A136A43F09B7343F48033136231
:10257000704704490B6A044A1A40044B13430B6228
:10258000704700BF00040E40FCFFC8FE0200370188
:10259000024B986E00F48030704700BF00040E407C
:1025A0004FF00052014B9A62704700BF00040E408A
:1025B000024B986E00F00200704700BF00040E400E
:1025C0002F281ED81F280CD8114B9A69012383404D
:1025D000934318D0012303FA00F00D4B186100203B
:1025E000704720380A4BD3F80821012383409343D6
:1025F0000BD0012303FA00F0054BC3F800010020C3
:10260000704701207047002070470020704700BFCE
:1026100000040E40FEE7000000B583B0254B264ABB
:102620009A4210D0254B234A9A420CD2013B9B1A66
:1026300023F00303043313441F4951F8040B42F8F9
:10264000040B9A42F9D11E4B1E4A9A420AD2013B10
:102650009B1A23F0030304331344002142F8041BA4
:102660009342FBD1184A194B23F07F039360EFF399
:102670001083B3FA83F35B09019372B6BFF35F8FE4
:102680000022134B1A700199124A136843F4700325
:102690001360BFF34F8FBFF36F8F29B101220C4B33
:1026A0001A70BFF35F8F62B60B4B98470B4B98477E
:1026B000FEE700BF00000020002E40004C04002078
:1026C000840600204C04002000ED00E000004000E3
:1026D0001700002088ED00E07529400061284000C7
:1026E0003B4B1B6B03F00303012B1DD083B1022B6B
:1026F00036D0374B1B6B03F07003702B5FD0344B1D
:102700001A6B3449C2F302120B68D3400B60704756
:10271000314B5B6913F0800F14BF4FF400424FF44C
:10272000FA422C4B1A60E4E7294B1B6A13F0807FB6
:1027300003D02A4A274B1A60DBE7294A254B1A6047
:10274000234B1B6A03F07003102B05D0202BD0D134
:10275000224A204B1A60CCE7224A1E4B1A60C8E777
:102760001B4B1B6A13F0807F16D01C4A194B1A6052
:10277000174B1B6B03F00303022BBAD1144A916A67
:10278000926A1448C1F30A41036801FB0333D2B2D1
:10279000B3FBF2F30360ACE7114A0E4B1A600C4B2B
:1027A0001B6A03F07003102B05D0202BE0D10B4ADD
:1027B000084B1A60DCE70B4A064B1A60D8E7054A5B
:1027C00013680949A1FB03135B081360704700BF3E
:1027D00000040E401800002010180E40001BB70027
:1027E00000093D0000127A00ABAAAAAA124B984237
:1027F00011D9124B984213D9114B984214D9114B4D
:10280000984215D9104B984294BF4FF004220F4ABA
:102810000F4B1A6070474FF080620D4B1A60704783
:102820000C4A0B4B1A6070470B4A094B1A607047F1
:102830000A4A074B1A607047FF2C3101FF596202A8
:10284000FF869303FFB3C404FFE0F5050005000411
:10285000000A0E400001000400020004000300040E
:1028600000B58BB01F4B98471F4B98471F4AC2F1CA
:10287000005303F5003323F00703073222F0070269
:102880000292A3F5806303934FF0C24304934FF485
:10289000002305934FF0C642069207930024089444
:1028A000099402A8124B98470920124DA8470A2004
:1028B000A847114B9847114B9847114B98470194E3
:1028C000012600960F4B82220F491048104DA84751
:1028D00001940096234682220E490F48A8470F4BC9
:1028E0009847FEE7FD23400065244000883600201D
:1028F00059074000C1254000E12240006D20400002
:10290000650140001C060020A42D4000DD20400091
:10291000610F4000B42D4000952240005513400047
:1029200082B0002301934FF0500383F31188BFF36B
:102930006F8FBFF34F8F019B1BB900BF019B002B13
:10294000FBD0002383F3118802B0704708B59121B2
:102950000148024B984708BDC82D4000212940007E
:102960004FF0500383F31188BFF36F8FBFF34F8F86
:10297000FEE7000070B50F4E0F4D761BB61018BF66
:10298000002405D0013455F8043B9847A642F9D1FC
:102990000A4E0B4D761B00F021FAB61018BF00242A
:1029A00006D0013455F8043B9847A642F9D170BDD2
:1029B00070BD00BFE82D4000E82D4000F02D400024
:1029C000E82D4000844641EA000313F003036DD173
:1029D000403A41D351F8043B40F8043B51F8043BE2
:1029E00040F8043B51F8043B40F8043B51F8043BE9
:1029F00040F8043B51F8043B40F8043B51F8043BD9
:102A000040F8043B51F8043B40F8043B51F8043BC8
:102A100040F8043B51F8043B40F8043B51F8043BB8
:102A200040F8043B51F8043B40F8043B51F8043BA8
:102A300040F8043B51F8043B40F8043B51F8043B98
:102A400040F8043B51F8043B40F8043B51F8043B88
:102A500040F8043B403ABDD2303211D351F8043B28
:102A600040F8043B51F8043B40F8043B51F8043B68
:102A700040F8043B51F8043B40F8043B103AEDD2D7
:102A80000C3205D351F8043B40F8043B043AF9D228
:102A9000043208D0D2071CBF11F8013B00F8013BFB
:102AA00001D30B8803806046704700BF082A13D308
:102AB0008B078DD010F003038AD0C3F10403D21A20
:102AC000DB071CBF11F8013B00F8013B80D331F854
:102AD000023B20F8023B7BE7043AD9D3013A11F8D4
:102AE000013B00F8013BF9D20B7803704B7843703F
:102AF0008B7883706046704770B4860746D0541E4A
:102B0000002A41D0CAB2034602E014F1FF343BD39D
:102B100003F8012B9D07F8D1032C2ED9CDB245EA3D
:102B200005250F2C45EA054519D903F11002264663
:102B3000103E0F2E42F8105C42F80C5C42F8085C24
:102B400042F8045C02F11002F2D8A4F1100222F063
:102B50000F0204F00F041032032C13440DD91E464B
:102B60002246043A032A46F8045BFAD8221F22F0D0
:102B700003020432134404F003042CB1C9B21C4410
:102B800003F8011B9C42FBD170BC704714460346FE
:102B9000C2E700BF024B13B1024800F005B870470E
:102BA00000000000B52B4000002301461A461846DD
:102BB00000F01EB838B50A4C0A4D641BA4100AD0A8
:102BC00004F18043013B05EB8305013C55F80439D2
:102BD0009847002CF9D1BDE8384000F009B900BF92
:102BE000002E4000FC2D4000704700BF704700BF22
:102BF0002DE9F8432C4D0646286898460F46914625
:102C0000FFF7F2FF294B1C68D4F84831002B3ED067
:102C10005A681F2A1CDC02F1010E76B103EB820117
:102C20000124C1F88890D3F8880194402043022EF3
:102C3000C3F88801C1F8088123D00232C3F804E048
:102C4000286843F82270FFF7D1FF0020BDE8F88321
:102C5000174B0BB34FF4C870AFF300800346D8B1E5
:102C6000D4F848210260002141600A46C4F84801B6
:102C70004FF0010EC0F88811C0F88C11002EDCD086
:102C8000CCE7D3F88C110C43C3F88C41D5E704F59D
:102C9000A673C4F84831BBE72868FFF7A7FF4FF0D9
:102CA000FF30BDE8F88300BF48040020D82D400065
:102CB000000000002E2E2F7372632F46726565523E
:102CC000544F532F706F727461626C652F4743438A
:102CD0002F41524D5F434D34462F706F72742E63F7
:102CE000000000002E2E2F7372632F46726565520E
:102CF000544F532F706F727461626C652F4D656D08
:102D00004D616E672F686561705F352E630000004E
:102D10002E2E2F7372632F4672656552544F532FB8
:102D200071756575652E63002E2E2F7372632F46A5
:102D300072656552544F532F7461736B732E630029
:102D400049444C4500000000546D725100000000E1
:102D50002E2E2F7372632F4672656552544F532F78
:102D600074696D6572732E6300000000546D7220EB
:102D7000537663004C454431486561727462656105
:102D8000740000004C4544324865617274626561AC
:102D9000740000004C45443348656172746265619B
:102DA000740000005461736B486561727462656100
:102DB000740000005461736B53797374656D436FD5
:102DC0006E74726F6C0000002E2E2F7372632F6D65
:102DD00061696E2E6300000020000020F8B500BF7E
:102DE000F8BC08BC9E467047952B40001D01400072
:102DF000F8B500BFF8BC08BC9E467047F90040001B
:102E0000100B7900AAAAAAAA07000000010000007E
:102E1000762223180102030100093D000000000092
:102E2000000000000C03002074030020DC030020DD
:102E30000000000000000000000000000000000092
:102E40000000000000000000000000000000000082
:102E50000000000000000000000000000000000072
:102E60000000000000000000000000000000000062
:102E70000000000000000000000000000000000052
:102E80000000000000000000000000000000000042
:102E90000000000000000000000000000000000032
:102EA0000000000000000000000000000000000022
:102EB0000000000000000000000000000000000012
:102EC0000000000000000000010000000000000001
:102ED0000E33CDAB34126DE6ECDE05000B000000C6
:102EE00000000000000000000000000000000000E2
:102EF00000000000000000000000000000000000D2
:102F000000000000000000000000000000000000C1
:102F100000000000000000000000000000000000B1
:0C324000000000000000000060060020FC
:040000050040261978
:00000001FF
