:020000040040BA
:1000000070360020A5244000A1244000A124400017
:10001000A1244000A1244000A124400000000000D1
:10002000000000000000000000000000C1024000CD
:10003000A12440000000000061034000C50340000F
:10004000A1244000A1244000A1244000A12440009C
:10005000A1244000A1244000A1244000A12440008C
:10006000A1244000A1244000A1244000A12440007C
:10007000A1244000A1244000A1244000A12440006C
:10008000A1244000A1244000A1244000A12440005C
:10009000A1244000A1244000A1244000A12440004C
:1000A000A1244000A1244000A1244000A12440003C
:1000B000A1244000A1244000A1244000A12440002C
:1000C000A1244000A1244000A1244000A12440001C
:1000D000A1244000A1244000A1244000A12440000C
:1000E000A1244000A1244000A1244000A1244000FC
:1000F000A1244000A124400010B5054C237833B959
:10010000044B13B10448AFF300800123237010BDEA
:100110004C04002000000000143140000C4B43B19F
:100120000C480D4910B5AFF300800C48036823B9A3
:1001300010BD0A48036833B97047094B002BF7D04C
:10014000BDE810401847064B002BF5D0184700BFFC
:100150000000000014314000500400201431400021
:1001600000000000094B1A5C530903F5001303F269
:1001700007735B02D96B02F01F02012303FA02F23C
:100180000A420CBF18460020704700BF0000002044
:1001900000F1080343604FF0FF328260C3600361E7
:1001A00000230360704700230361704730B40D687B
:1001B000B5F1FF3F02D000F1080202E0026904E05D
:1001C0001A4653681C68A542FAD253684B6099607E
:1001D0008A605160086103680133036030BC704776
:1001E00003694268816891608268416851605A6819
:1001F000904204BF82685A60002202611A68013A84
:100200001A6018687047000008480068006880F3AA
:1002100008884FF0000080F3148862B661B6BFF31F
:100220004F8FBFF36F8F00DF00BF000008ED00E0CD
:10023000DFF80C00016841F47001016070470000B4
:1002400088ED00E000B583B0002301930B4B1B68E1
:10025000B3F1FF3F03D0E72109480A4B98474FF01D
:10026000500383F31188BFF36F8FBFF34F8F019B50
:10027000002BFCD003B05DF804FB00BF040000209D
:10028000BC2D40008D2840004FF0807340F8043CA6
:1002900021F0010140F8081C054B40F80C3C40F8E7
:1002A000202C6FF0020340F8243C4438704700BF14
:1002B00045024000000000000000000000000000B7
:1002C000074B19680868B0E8F04F80F30988BFF35E
:1002D0006F8F4FF0000080F311887047AFF30080FC
:1002E0009004002008B54FF0500383F31188BFF34A
:1002F0006F8FBFF34F8F094A136801331360012BCF
:1003000000D008BD064B1B6813F0FF0FF9D04FF467
:10031000D3710448044B9847F3E700BF0400002062
:1003200004ED00E0BC2D40008D28400008B5084BCE
:100330001B683BB1064A1368013B13600BB983F39A
:10034000118808BD40F2AD110248034B9847F1E710
:1003500004000020BC2D40008D284000000000005B
:10036000EFF30980BFF36F8F154B1A681EF0100F63
:1003700008BF20ED108A20E9F04F10602DE9090038
:100380004FF0500080F31188BFF34F8FBFF36F8F92
:1003900001F09AF94FF0000080F3118809BC196848
:1003A0000868B0E8F04F1EF0100F08BFB0EC108ADC
:1003B00080F30988BFF36F8F704700BFAFF30080F1
:1003C0009004002008B54FF0500383F31188BFF369
:1003D0006F8FBFF34F8F054B984718B14FF0805286
:1003E000034B1A60002383F3118808BD811340007A
:1003F00004ED00E0084A0023136008490B60084B35
:100400001B680849A1FB03139B09013B06490B60CC
:1004100007231360704700BF10E000E018E000E021
:1004200018000020D34D621014E000E010B582B037
:10043000364B1A68364B9A421ED0344B1A68354BED
:100440009A421FD0344B1A78D2B20192FF221A700E
:100450001B78DBB28DF803309DF8033003F05003B6
:100460002E4A137007222E4B1A609DF8033013F0AA
:10047000800F1ED006220CE04FF4977129482A4BBA
:100480009847DAE740F22F112648274B9847D9E7DB
:100490000A469DF803305B00DBB28DF803309DF80F
:1004A0000330511E13F0800FF2D11D4B1A60032A46
:1004B00004D040F261111B481B4B9847184A13683F
:1004C0001B0203F4E0631360019BDBB2124A13705A
:1004D000164B1A6842F470021A601A6842F07042B1
:1004E0001A60134B98470024124B1C60124B98471C
:1004F000124A136843F040431360114B9847114B65
:100500009847114B9847204602B010BD00ED00E01F
:1005100071C20F4170C20F4100E400E06804002086
:100520006C040020BC2D40008D28400020ED00E030
:10053000F5034000040000203102400034EF00E0E9
:1005400009024000C91640004502400010B4134A99
:1005500000E01A4613688342FBD351685418A04246
:100560000AD041684418A3420BD00360904218BFE0
:1005700010605DF8044B70474068014451601046BC
:10058000EFE7074C2468A34206D05B68194441603A
:1005900013681B680360E9E70360E7E7880400204D
:1005A00070040020F8B504462F4B1B68EBB12F4BAD
:1005B00098472F4B1D6825424DD1002C4ED004F199
:1005C00008018C424AD211F0070F05D021F0070331
:1005D0000833994242D2194600293CD0254B1E6867
:1005E000B14238D8244A146806E08E212348244BAF
:1005F0009847DCE722461C466368994202D9236883
:10060000002BF7D1184B1B689C4224D01768083781
:100610002368136063685B1A102B16D86268B61AD9
:1006200014490E60174909688E423CBF15490E6097
:100630001543656000232360134A13680133136078
:10064000124B984767B13846F8BD60184360616047
:100650000F4B9847E2E70D4B984701E00B4B98474B
:100660000C4B98470027EEE770040020651340000C
:10067000740400207804002088040020EC2D400041
:100680008D2840007C04002080040020F1144000EC
:100690004D054000B9284000002844D010B504465C
:1006A00050F8042C204B1B681A4211D050F8083C1B
:1006B000F3B140F22D111D481D4B984754F8043CEE
:1006C000194A1268134202D054F8081CA1B110BD97
:1006D0004FF496711548164B984754F8083C002B78
:1006E000E7D154F8043C104A12681342EFD003E0FB
:1006F00054F8043C0C4A126823EA020344F8043C10
:100700000C4B98470C4A54F8043C11680B44136096
:10071000A4F10800094B9847094A13680133136094
:10072000084B984710BD704774040020EC2D400022
:100730008D28400065134000780400204D054000DE
:1007400084040020F11440002DE9F84F0546354B94
:100750001B6823B140F2A3113348344B9847D5F8B6
:1007600004B0BBF1000F52D008350026B0462D4F23
:10077000DFF8B4A0DFF8B4901DE03B6873B33B68CA
:10078000A34230D239680BEB0403083B23F0070384
:100790003B6000225A601A602246181B606023608A
:1007A00001B10C60536898440136083555F804BC13
:1007B000BBF1000F1CD055F8084C14F0070F06D001
:1007C000E21D22F00702A344ABEB020B1446002EFD
:1007D000D3D1174B1C6000225A60D3E740F2C511F9
:1007E0005046C847CBE74FF4E4715046C847C9E7C5
:1007F000104BC3F80080104BC3F80080B8F1000F15
:100800000AD04FF000420D4B1A60BDE8F88F00236C
:10081000084A1360084A136040F2F1110248034B82
:100820009847EEE770040020EC2D40008D28400032
:10083000880400207C040020780400207404002038
:1008400010B50446044B9847A46B044B9847B4FA80
:1008500084F0400910BD00BFE50240002D034000B8
:1008600070B504461646856B026C5AB903680020C1
:1008700013B10135A56370BDA068174B98470023DD
:10088000A360F6E76EB94068144B98476368226C22
:1008900013446360A268934219D323686360002005
:1008A000E7E7C0680D4B9847226C5242E368134457
:1008B000E36021688B4202D2A3681A44E260022EF0
:1008C00001D00020D5E725B1013D0020D1E700206F
:1008D000CFE70020CDE700BFFD19400031294000DF
:1008E00070B582B00190846C5CB1A26BE36B9A42EC
:1008F0000DD2A26BE36B9A420FD30026304602B0B2
:1009000070BD40F6D5311748174B9847EDE740F6D4
:10091000D6311448144B9847EBE794F845506DB224
:10092000002201A92046114B98470646B5F1FF3F2A
:1009300006D07F2D0FD001356DB284F84550DDE72C
:10094000636A002BDAD004F12400094B9847002891
:1009500018BF0126D2E740F6F6310248024B98470D
:10096000E9E700BF182E40008D28400061084000D4
:1009700039184000026C72B110B5C3681344C360EB
:100980008468A34224BF0368C3600C46C168204644
:10099000014B984710BD7047312940002DE9F041C7
:1009A0000546234B984795F8454064B2002C18DD66
:1009B000204EDFF88C80204F08E06B6A8BB105F188
:1009C0002400B84758B9013C64B254B1AB6C002B59
:1009D000F3D02846B0470028F5D0C047F3E7C0471A
:1009E000F1E7FF2385F84530144B9847104B9847A3
:1009F00095F8444064B2002C12DD2B6983B105F1F7
:100A000010070D4EDFF8388004E0013C64B23CB1C1
:100A10002B692BB13846B0470028F6D0C047F4E721
:100A2000FF2385F84430054B9847BDE8F08100BFAF
:100A3000E5024000E1084000391840002D03400065
:100A4000D119400038B550B10D460446C36B63B9A7
:100A500040F245111C481D4B9847002038BD4FF40B
:100A600088711948194B9847F2E74FF0FF32B2FBF3
:100A7000F3F3226C9342EBD3154B98472268216C19
:100A8000E36B03FB01F3D018A0600020A063626059
:100A90005B1A1344E360FF2384F8443084F8453044
:100AA00055B923691BB90B4B9847012038BD04F198
:100AB0001000094B9847F6E704F11000074DA847CE
:100AC00004F12400A847EEE7182E40008D284000CE
:100AD000E50240002D03400039184000910140001C
:100AE00070B508B30D4606464FF0FF33B3FBF0F385
:100AF0008B4219D301FB00F010F14D0F14D84C308C
:100B00000D4B9847044658B165B100F14C030360A2
:100B1000E663256401212046084B98470023A3641F
:100B2000204670BD2060F3E74FF4E3710448054BA5
:100B300098470024F4E700BFA5054000450A40009F
:100B4000182E40008D2840002DE9F04F85B08946D1
:100B500001921E460446A8B1B9F1000F18D0022E2A
:100B60001FD0574B984730B9019B23B140F2333126
:100B70005448554B98474FF0000A544D544FDFF8F6
:100B8000788140E040F22E314E484F4B9847E3E7E2
:100B9000236C002BE3D040F22F314A484A4B984750
:100BA000DDE7E36B012BDCD04FF44C714548464B3D
:100BB0009847D6E7A56B324649462046454B9847AD
:100BC000A36C53B1022E77D02046434B9847434B3A
:100BD0009847012005B0BDE8F08F636A002BF6D07E
:100BE00004F124003E4B9847F1E73C4B9847002026
:100BF000F0E702A8B84713E020463A4B98473A4B33
:100C000098474FF0010AA847A26BE36B9A42D1D3F1
:100C1000022E48D0019B002BE7D0BAF1000FE8D09C
:100C20002E4B9847314B9847A84794F844305BB215
:100C3000B3F1FF3F04BF002384F8443094F84530FB
:100C40005BB2B3F1FF3F04BF002384F84530234B70
:100C5000984701A902A8264B9847E8B9A847D4F8B5
:100C600038B0D4F83CA01D4B9847D345C4D1019966
:100C700004F110001F4B984720461A4B98471A4B17
:100C800098470028BDD14FF08053C8F80030BFF31B
:100C90004F8FBFF36F8FB4E72046124B9847124B2C
:100CA0009847002096E7A56B022249462046094B4B
:100CB0009847A36C002B90D0002D85D087E700BF0C
:100CC000DD194000182E40008D284000E50240004C
:100CD0002D19400061084000E10840002D0340004C
:100CE000391840009D094000F11440006513400090
:100CF000451940009917400004ED00E02DE9F04748
:100D000084B088460192044698B1B8F1000F16D01D
:100D1000484B984730B9019B23B140F25A5146489D
:100D2000464B98474FF0000A454D464EDFF83C9140
:100D30003AE040F251514048404B9847E5E7236C78
:100D4000002BE5D040F255513B483C4B9847DFE73C
:100D5000414620463C4B98477B1EA36323692BB931
:100D60003A4B9847012004B0BDE8F08704F1100029
:100D7000374B9847F4E7354B98470020F3E702A834
:100D8000B0471BE02046334B9847334B984709E068
:100D90002046304B9847304B984720462F4B98477A
:100DA000002844D14FF0010AA847A76B002FCFD1EC
:100DB000019B002BDFD0BAF1000FE0D0234B984706
:100DC000274B9847A84794F844305BB2B3F1FF3FF4
:100DD00004BF002384F8443094F845305BB2B3F18B
:100DE000FF3F04BF002384F84530184B984701A902
:100DF00002A81C4B98470028CAD12046174B984799
:100E00000028BFD0019904F12400174B98472046D1
:100E1000104B9847104B98470028C3D14FF0805390
:100E2000C9F80030BFF34F8FBFF36F8FBAE70020D0
:100E300099E700BFDD194000182E40008D284000C2
:100E4000E50240002D194000750940002D034000C7
:100E5000391840009D094000F1144000410840004D
:100E600065134000451940009917400004ED00E06B
:100E700010B5044630B1064B9847A46B054B984714
:100E8000204610BD40F2E3710348044B9847F2E757
:100E9000E50240002D034000182E40008D28400040
:100EA00070B50D460446B8B1ADB1124B5B689C42BB
:100EB00018D0104A00210B461646A9B10133082B61
:100EC00006D0083250688442F7D10A4901EBC301C9
:100ED00009B10D604C6070BD40F6C8210648074B53
:100EE0009847E1E70023F0E756F83300002808BFF1
:100EF0001146E3E70C060020182E40008D28400024
:100F000070B504460D461646114B984794F8443088
:100F10005BB2B3F1FF3F04BF002384F8443094F880
:100F200045305BB2B3F1FF3F04BF002384F8453086
:100F3000084B9847A36B1BB12046074B984770BDE1
:100F40003246294604F12400044B9847F4E700BFD9
:100F5000E50240002D0340009D094000D9174000E4
:100F6000074B1B681B6833B1054B1B68DB681A68AD
:100F7000044B1A6070474FF0FF32024B1A60704703
:100F8000940400207C05002080B5154DDFF86480B6
:100F9000DFF8649007E04FF08053C9F80030BFF3EA
:100FA0004F8FBFF36F8F2B68002BF4D00D4F0E4E79
:100FB000C047FB68DC68201DB0470C4A1368013B42
:100FC00013602B68013B2B60094B9847206BDFF8BF
:100FD0002CA0D0472046D0472B68002BE8D1DAE779
:100FE00040050020B4050020E10140003C05002040
:100FF0002D034000E502400004ED00E099064000AA
:1010000070B504460E46244B1D68244B1868043006
:10101000234B984748B9214B1A6822490B68D06A7C
:101020000122824023EA02030B60B4F1FF3F13D098
:101030002C441A4B1B685C60A54224D81A4B1868D4
:10104000164B19680431194B9847194B1B689C4281
:101050003CBF174B1C6070BD002EE9D0154A51688B
:101060000E4B1868816018688C68C4608C681868BA
:10107000043060601868043088601B685A61136827
:101080000133136070BD0C4B1868044B19680431B0
:10109000064B984770BD00BFC80500209004002093
:1010A000E10140004C05002094040020AD01400007
:1010B0007C050020A0050020980400202DE9F04FB9
:1010C00083B083460E4601930C9DDDF834A0970053
:1010D0003846674B9847002800F09B808046642084
:1010E000634B98470446002800F09080C0F8308099
:1010F0003A46A52140465F4B9847043F236B1F4467
:1011000027F00707002E00F08780337884F834300A
:1011100033785BB1334604F134021336597802F860
:10112000011F13F8011F09B1B342F7D1002384F85E
:101130004730072D74D8072D28BF0725E562A56421
:101140000026E66404F104084046DFF87C91C847B5
:1011500004F11800C8472461C5F10805A56164625F
:1011600026656665A665E66584F86060019A59465D
:101170003846414B98472060BAF1000F01D0CAF8B9
:1011800000403E4B98473E4A1368013313603D4B85
:101190001B68002B4AD03C4B1B683BB9394B1B6882
:1011A000DA6AE36A9A429CBF364B1C60374A13687E
:1011B00001331360E36A3649086801229A4002430A
:1011C0000A60344A03EB830302EB83035B68A3608A
:1011D0009968E1609968C1F80480C3F80880E06A02
:1011E000830019188900551865615158013103446D
:1011F0009B00D150284B9847234B1B68002B35D0C0
:10120000204B1B68012003B0BDE8F08F4046234B04
:1012100098474FF0FF30F6E7002384F8343088E732
:1012200040F297311E481F4B984784E7154B1C60CE
:101230001368012BBAD1174D05F1A0071A4E2846A5
:10124000B0471435AF42FAD1184F3846164DA8476B
:10125000174E3046A8471748A8471748A8471748C9
:10126000A847174B1F60174B1E609FE70120CAE776
:10127000A5054000652A400089024000E5024000C3
:101280003C050020900400209C050020480500201B
:101290004C0500209C0400202D03400099064000CE
:1012A000302E40008D284000910140005005002064
:1012B0006405002088050020B4050020A00500205A
:1012C0009404002098040020A701400010B582B0CB
:1012D000184B019300230093822217491748184C9A
:1012E000A047012806D0B0F1FF3F1CD0154B1B686A
:1012F00002B010BD144B98470128F4D14FF05003B1
:1013000083F31188BFF36F8FBFF34F8F4FF0FF321E
:101310000E4B1A6001220E4B1A6000220D4B1A6010
:101320000D4B9847E2E74FF404610C480C4B98478B
:10133000DCE700BF78050020482E4000890F400000
:10134000BD10400008000020191E40007C05002050
:101350009C050020C80500202D044000302E4000D0
:101360008D284000024A136801331360704700BFA4
:1013700044050020014B1868704700BFC8050020D5
:101380004F4B1B68002B40F095802DE9F0414D4BF1
:101390001E6801361E607EB94B4B1B681B6813BB71
:1013A000494A1168494B186810601960484A136827
:1013B00001331360474B9847474B1B689E421CD331
:1013C000414B1B681B68A3B13F4B1B68DB68DB68A4
:1013D0005A68964214D34FF0000E40484FF0010C6B
:1013E0003F49394C38E040F6C7213E483E4B9847CC
:1013F000D6E74FF0FF32384B1A600020BDE8F0818D
:10140000354B1A60F9E7DA6AD0F800800CFA02F579
:1014100045EA0805056002EB820201EB820255688D
:101420009D60AA68DA60AA685760AF60DD6AAA00AA
:10143000571901EB8708C3F8148051F8273001339E
:1014400041F8273023681B68002BD2D02368DB6863
:10145000DB685A689642D3D35A699D68DF68AF60EB
:10146000DD689F686F601F1D5568BD4204BFDD6861
:101470005560C3F814E01568013D1560D3F8288065
:10148000B8F1000FBFD0DA691D6A95601A6ADD698C
:10149000556003F11805D8F80420AA4204BF1A6A5F
:1014A000C8F80420C3F828E0D8F80020013AC8F8AA
:1014B0000020A8E70D4A136801331360002070472D
:1014C00044050020C8050020940400209804002052
:1014D00080050020610F40007C0500204C050020A5
:1014E0009C040020302E40008D2840008405002000
:1014F0002DE9F047504B1B68002B7BD04F4B984792
:101500004D4B1A68013A1A601B68002B40F08E8020
:101510004B4B1B68002B00F08980002349491C4677
:1015200049480126494ADFF844A1DFF838E10D684F
:10153000002D65D0CB68DB68D3F828C0DD691F6A51
:10154000AF601D6ADF696F6003F11808DCF80450B2
:10155000454504BF1D6ACCF804509C62DCF800507D
:10156000013DCCF80050D3F814C09D68DF68AF602F
:10157000DD689F686F6003F10408DCF8045045459E
:1015800004BFDD68CCF804505C61DCF80050013D1C
:10159000CCF80050DD6AD0F8009006FA05FC4CEA61
:1015A000090CC0F800C005EB850502EB85056D68E8
:1015B0009D60AF68DF60AF68C7F80480C5F8088039
:1015C000D3F82C804FEA880505EB080C02EB8C0958
:1015D000C3F8149052F82CC00CF1010C454442F8A9
:1015E00025C0DAF80050ED6ADF6AAF429FD3CEF82B
:1015F00000609CE740F6B3011548164B98477DE71D
:101600000BB1154B9847154B1C686CB1144D154F19
:10161000012601E0013C04D0A8470028FAD03E6032
:10162000F8E700220D4B1A600E4B1B680E4B9847D3
:101630000020BDE8F08700BF44050020E50240001F
:101640003C050020880500204C0500209C0400205B
:10165000302E40008D284000610F4000840500209E
:1016600081134000CC0500202D0340009004002091
:1016700010B560B104460D4B1B688BB90C4B9847F5
:10168000002120460B4B98470B4B984738B94FF039
:1016900080520A4B1A60BFF34F8FBFF36F8F10BD9C
:1016A00040F249510648074B9847E7E744050020B8
:1016B0006513400001104000F114400004ED00E00B
:1016C000302E40008D2840002B4B1B68002B34D15E
:1016D00010B50022294B1A60294B1B681B6B1A6836
:1016E000B2F1A53F2DD0264B186819683431254B2F
:1016F0009847254B1C68B4FA84F4E4B2C4F11F0483
:1017000004EB84039B00214AD3583BB31F4BA20038
:10171000111903EB810148684068486022440B4678
:101720000833984220D004EB8404184B03EB840464
:101730006368DA68124B1A6010BD01220F4B1A6001
:1017400070475A68B2F1A53FCDD19A68B2F1A53F72
:10175000C9D1DB68B3F1A53FC5D1CAE740F6024164
:101760000B480C4B9847D1E741681346074A02EBF8
:1017700083035960D7E700BF44050020CC05002053
:1017800090040020CD2840004C0500209C0400203F
:10179000302E40008D28400038B50C46054650B12B
:1017A000084B196818312846074B984701212046F5
:1017B000064B984738BD40F61C410548054B9847F5
:1017C000EEE700BF90040020AD0140000110400092
:1017D000302E40008D28400070B50E461546044658
:1017E000D8B16268104B1968CA61196890680862BC
:1017F00090681968183141601968183191601B6848
:101800009C62236801332360002D29460CBF3046BB
:101810004FF0FF30054B984770BD40F652410448E9
:10182000044B9847DDE700BF900400200110400002
:10183000302E40008D28400038B5C368DC68002C8D
:1018400051D0A36AE269216A9160226AE16951601C
:1018500004F118015A688A4204BF226A5A600022C1
:10186000A2621A68013A1A60284B1B68002B40D10B
:101870006369A268E1689160E268A1685160211D16
:101880005A688A4204BFE2685A60002262611A689C
:10189000013A1A60E36A1E48056801229A402A4309
:1018A00002601C4A03EB830302EB83035B68A360C3
:1018B0009868E060986841609960E06A8300191850
:1018C0008900551865615158013103449B00D1507E
:1018D000114B1B68E26ADB6A9A4283BF01200F4BFF
:1018E0001860002038BD40F682410D480D4B9847E6
:1018F000A7E70D4B5A68E2619068206290684160EA
:101900009160A3621A6801321A60E1E74405002081
:101910004C0500209C04002090040020CC050020F1
:10192000302E40008D28400088050020034B1B68A6
:101930000360034B1B684360704700BF80050020B5
:10194000C805002070B50C460546D0B1FCB1194B56
:101950009847194B1B682268B2F1FF3F28D069688D
:10196000164800682E68864201D08B4215D25B1A59
:10197000934216D3002323600124114B984720463D
:1019800070BD40F6FD410F480F4B9847DEE740F62B
:10199000FE410C480C4B9847D9E7002323600124F3
:1019A000EBE7D31A23602846084B98470024E4E766
:1019B0000024E2E7E5024000C80500208005002081
:1019C0002D034000302E40008D2840002D1940008E
:1019D0000122014B1A607047CC050020054B1B68A3
:1019E00033B1054B1B68002B0CBF02200020704751
:1019F000012070479C0500204405002000284DD0A0
:101A000070B50446274B1B68984204D041F24F0141
:101A10002548264B9847E36C4BB1E36C013BE364EC
:101A2000E16AA26C91423BD03BB1002070BD41F213
:101A300050011D481D4B9847EFE7251D28461C4BBC
:101A4000984738B91B490B68E06A0122824023EAB3
:101A500002030B60A36CE362C3F10802A2611549A3
:101A60000E68012000FA03F232430A60124A03EBC7
:101A7000830302EB83035B68A3609968E160996864
:101A80004D609D60E56AAB00591989005618666182
:101A9000515801442B449B00D15070BD0020704729
:101AA000002070BD90040020302E40008D284000A2
:101AB000E10140004C0500209C04002008B5416075
:101AC000006191420CD8D21A83699A4201D3012055
:101AD00008BD011D094B1868094B9847002008BD37
:101AE0009A4201D2994206D2011D064B1868044B56
:101AF0009847002008BD012008BD00BFD405002084
:101B0000AD014000D0050020F8B504460D4617464B
:101B1000074E04E0A3691D44236A20469847A16943
:101B20002B463A4629442046B0470028F2D1F8BD5A
:101B3000BD1A400070B505460E460D4B1B68DB68AC
:101B4000DC68201D0B4B984794F8243013F0040FE9
:101B500007D123F0010384F82430236A20469847F4
:101B600070BD324629462046034B9847F5E700BF33
:101B7000D0050020E1014000091B40002DE9F041A3
:101B80008046144B98470446134B1B68984207D372
:101B90000023C8F80030104B1C602046BDE8F081DF
:101BA0000E4B1B681A685AB14FF0FF370C4E0B4DA5
:101BB000DB6839461868B0472B681A68002AF7D1E5
:101BC000084A10680549086013600123C8F800300E
:101BD000E1E700BF7513400000060020D00500209B
:101BE000351B4000D40500202DE9F04F87B05E4E34
:101BF0005E4F5F4DDFF8A891DFF8A88133681A685F
:101C000092B1DB68D3F800A05A4B984702A85A4B10
:101C100098470446029A42BB504515D3B84721461F
:101C20005046564B98471EE0524B984702A8524BDD
:101C300098470446029BC3B9514B1B681A68B2FA15
:101C400082F252094FF0000AAAEB040128684D4BBA
:101C50009847B84738B94FF08053C9F80030BFF300
:101C60004F8FBFF36F8F484C08E0B847FBE70599EB
:101C70000498039B9847029B002B08DA002202A9D4
:101C80002868A0470028B9D0029B002BEFDBDDF8C5
:101C900010A0DAF8143013B10AF10400C04701A80B
:101CA000354B98478346029B013B082BE6D8DFE87B
:101CB00003F005052D344D05052D34009AF8243028
:101CC00043F001038AF824300399DAF818000B4630
:101CD0005A46014450462D4CA0470028C3D09AF8DC
:101CE000243013F0040F08D123F001038AF82430C4
:101CF000DAF8203050469847B5E7DAF818305A46F7
:101D0000039919445046224B9847F1E79AF824303A
:101D100023F001038AF82430A5E79AF8243043F031
:101D200001038AF82430039BCAF8183043B1DAF86B
:101D300018105B465A4659445046144CA04792E747
:101D400040F259311348144B9847F0E79AF8243081
:101D500013F0020F04D023F001038AF8243082E745
:101D600050460E4B98477EE7D0050020F114400006
:101D700004060020651340007D1B4000351B400019
:101D8000D4050020010F4000FD0C4000BD1A4000AA
:101D9000091B4000582E40008D2840009906400045
:101DA00004ED00E0E101400070B5104B9847104B86
:101DB0001B6813B10F4B984770BD0F4D28460F4E4F
:101DC000B0470F4C2046B0470E4B1D600E4B1C60B9
:101DD0000022102105200D4B9847054B1860002864
:101DE000E8D00B490B4B9847E4E700BFE502400001
:101DF000040600202D034000D8050020910140007A
:101E0000EC050020D0050020D4050020E10A4000A8
:101E1000502E4000A10E400010B582B00D4B9847E7
:101E20000D4B1B687BB10D4B0193072300930023DF
:101E30004FF482720A490B480B4CA047034610B17D
:101E4000184602B010BD40F219110848084B9847D7
:101E50000023F5E7A91D4000040600200806002025
:101E6000742E4000E91B4000BD104000582E400079
:101E70008D284000094B1A5C530903F5001303F247
:101E800007735B02D86B02F01F0101228A401042E7
:101E90000CBF1A635A63024B187870471000002079
:101EA0000C000020F8B50778044E4FF4FA75044C86
:101EB0003846B0472846A047FAE700BF751E4000E5
:101EC000711640002DE9F041AAB0702201460EA81B
:101ED000244B9847244B1B88ADF804303022002156
:101EE0000DF10600214B984700238DF803304FF485
:101EF000FA781F4F1F4E14E0B8F57A7F01D208F12F
:101F000032089DF838001C4B98470DF1760101A866
:101F1000B84700230A2201A92046B0474046174B84
:101F2000984711A901A8B847109C00230A2201A9CB
:101F30002046B0470F9D2846114B98470028E0D017
:101F400000220DF1030128460E4B98479DF80330FF
:101F5000022BD1D0012BD4D1B8F1C80F88BFA8F182
:101F60003208CEE7312940007C2E4000652A40002F
:101F7000012B4000490B4000751E400071164000C7
:101F8000710E4000FD0C4000F0B58FB00668094DA1
:101F9000094F0024224601A93046A8470128F9D15B
:101FA00001A8064B9847C2B201A93846044B98478E
:101FB000EFE700BFFD0C400000060E40C12B4000C3
:101FC0006522400020B101280CBF0220002070478C
:101FD000012070472DE9F041ACB0782201460EA8EF
:101FE000384B9847384B1B88ADF80430302200211D
:101FF0000DF10600354B984700238DF80330344F20
:102000001C460A26334DDFF8D88016E00120324BFB
:102010009847002843D00F20C04701202E4B9847F7
:1020200000282DD10DF17E0101A8B8472346324684
:1020300001A90F98A8476420C04713A901A8B84771
:102040002346324601A90F98A8472046224B9847BD
:102050000028DBD00F20C04720461F4B98470028A0
:10206000E0D02CA9012301F8AD3D9DF838002CAB40
:1020700003EB80002346324650F8700CA847D1E7A6
:102080002CA9022301F8AD3D9DF838002CAB03EBE1
:1020900080002346324650F8700CA847C2E7022061
:1020A0000D4B98470028BDD00F20C04702200A4B97
:1020B00098470028B6D09DF83800084B98478DF80F
:1020C0003800AFE7312940007C2E4000652A4000EF
:1020D000012B4000490B400065014000C51F400036
:1020E0007116400010B4444A04231361C2F8A030B2
:1020F000536308231361C2F8A03053633F4B4FF082
:1021000080711961C3F8A01059634FF00071196113
:10211000C3F8A01059634FF400401861C3F8A00041
:1021200058634FF480305861C3F8A0005866C3F874
:10213000900058651862C3F884001C6F24F4803442
:102140001C675C6F24F480345C67C3F8C000C3F87C
:10215000D400C3F8B0004FF400605861C3F8A00089
:102160005866C3F8900058651862C3F884001C6F65
:1021700024F400641C675C6F24F400645C67C3F89B
:10218000C000C3F8D400C3F8B00003F5C0635961C0
:10219000C3F8A0105966C3F8901059651962C3F8C6
:1021A0008410186F20F000701867586F20F00070CE
:1021B0005867C3F8C010C3F8D410C3F8B0104FF478
:1021C00080435361C2F8A0305366C2F89030536523
:1021D0001362C2F88430116F21F480411167516F8E
:1021E00021F480415167C2F8C030C2F8D430C2F83F
:1021F000B0305DF8044B704700100E40000E0E40EA
:1022000010B50446124B4FF4C0621A66C3F8902012
:102210005A655A62C3F88020196F21F4C0611967AA
:10222000596F21F4C06159675A600720094B9847DC
:10223000AC232360342323624FF40063636040F2D5
:102240000223C4F8203150232360002010BD00BFBA
:10225000000E0E404D244000436913F0020FFBD0E6
:10226000C161704762B1F8B5154606460C460D448B
:10227000044F14F8011B3046B847AC42F9D1F8BD01
:10228000704700BF5922400010B50E480E4B9847CA
:102290003E2100200D4B98470D4CA0470028FCD054
:1022A0000C4B98470C4A0D4B9A620D4CA0470028E6
:1022B000FCD010200B4B98470B4B98470B48024B18
:1022C000984710BD000E270779264000C92340001B
:1022D0001D2440002D244000013F0F2000040E402B
:1022E0003D244000652340006D25400000D8B8051E
:1022F00010B54FF40042184B5A600920174CA04704
:102300000A20A0470B20A0470C20A0470D20A04783
:10231000134B4FF480021A61C3F8A0201A63A3F58F
:10232000C06304225A61C3F8A0205A66C3F8902003
:102330005A651A62C3F88420196F21F004011967E5
:10234000596F21F004015967C3F8C020C3F8D420A5
:10235000C3F8B02010BD00BF50180E404D244000FF
:1023600000140E40174A136B23F0700318431063D8
:10237000936E13F0080F0AD14FF4006311498A6E6F
:1023800012F0080F03D1013BF9D1012070470D4A2B
:10239000136B23F0030343F002031363936E13F0F4
:1023A000080F0AD14FF4006306498A6E12F0080F35
:1023B00005D1013BF9D10120704700207047002072
:1023C000704700BF00040E40C8B9114A136A0902E1
:1023D00089B223F45C1323F0030343F45C1343F04A
:1023E00001030B431362936E13F0010FFBD0084AF5
:1023F000136A43F09B7343F48033136270470449BC
:102400000B6A044A1A40044B13430B62704700BF27
:1024100000040E40FCFFC8FE02003701024B986E1C
:1024200000F48030704700BF00040E404FF00052AF
:10243000014B9A62704700BF00040E40024B986E39
:1024400000F00200704700BF00040E402F281ED885
:102450001F280CD8114B9A6901238340934318D04D
:10246000012303FA00F00D4B18610020704720385B
:102470000A4BD3F808210123834093430BD0012357
:1024800003FA00F0054BC3F800010020704701205B
:102490007047002070470020704700BF00040E40C6
:1024A000FEE7000000B583B0254B264A9A4210D0C3
:1024B000254B234A9A420CD2013B9B1A23F003037B
:1024C000043313441F4951F8040B42F8040B9A4299
:1024D000F9D11E4B1E4A9A420AD2013B9B1A23F0A5
:1024E000030304331344002142F8041B9342FBD13D
:1024F000184A194B23F07F039360EFF31083B3FA6C
:1025000083F35B09019372B6BFF35F8F0022134B15
:102510001A700199124A136843F470031360BFF3F1
:102520004F8FBFF36F8F29B101220C4B1A70BFF38D
:102530005F8F62B60B4B98470B4B9847FEE700BF87
:1025400000000020143140004C04002070060020E0
:102550004C04002000ED00E00000400014000020CA
:1025600088ED00E0E1284000ED2640003B4B1B6B6E
:1025700003F00303012B1DD083B1022B36D0374B60
:102580001B6B03F07003702B5FD0344B1A6B344914
:10259000C2F302120B68D3400B607047314B5B698A
:1025A00013F0800F14BF4FF400424FF4FA422C4B4B
:1025B0001A60E4E7294B1B6A13F0807F03D02A4A94
:1025C000274B1A60DBE7294A254B1A60234B1B6A0D
:1025D00003F07003102B05D0202BD0D1224A204BC2
:1025E0001A60CCE7224A1E4B1A60C8E71B4B1B6AD5
:1025F00013F0807F16D01C4A194B1A60174B1B6BC7
:1026000003F00303022BBAD1144A916A926A144868
:10261000C1F30A41036801FB0333D2B2B3FBF2F307
:102620000360ACE7114A0E4B1A600C4B1B6A03F0B7
:102630007003102B05D0202BE0D10B4A084B1A60F9
:10264000DCE70B4A064B1A60D8E7054A13680949CC
:10265000A1FB03135B081360704700BF00040E402A
:102660001800002010180E40001BB70000093D00A4
:1026700000127A00ABAAAAAA124B984211D9124BA7
:10268000984213D9114B984214D9114B984215D93D
:10269000104B984294BF4FF004220F4A0F4B1A6020
:1026A00070474FF080620D4B1A6070470C4A0B4B1D
:1026B0001A6070470B4A094B1A6070470A4A074B69
:1026C0001A607047FF2C3101FF596202FF869303A5
:1026D000FFB3C404FFE0F50500050004000A0E4046
:1026E0000001000400020004000300042DE9F0478B
:1026F000FEB04F4B98474F4B98474F4AC2F100539B
:1027000003F5003323F00703073222F00702029299
:10271000A3F5806303934FF0C24304934FF4002367
:1027200005934FF0C642069207930024089409943B
:1027300002A8424B98470920414DA8470A20A847C4
:10274000404B98474048414B98478DF8F741404EE1
:1027500070273A46314661A83E4DA8473A46F119DE
:1027600045A8A8473A4606F1E00129A8A8477822DB
:1027700006F5A8710BA8A8470A9401944FF0010828
:10278000CDF800800DF2F713822233493348344DDF
:10279000A847344E01940623009361AB822232494C
:1027A0003046A84701940527009745AB82222F4960
:1027B0003046A84701940423009329AB82222C4978
:1027C0003046A8472246414638462A4EB047824600
:1027D000224641463846B047814622464146384661
:1027E000B047CDF888A1CDF818912A90CDF834A043
:1027F000CDF838900F90224632211420B0470A902D
:10280000639047902B900C900194022300930AABA5
:10281000822219491948A8470194032300930BAB5E
:10282000822217491748A847174B9847FEE700BF71
:1028300089224000F1224000703600204907400004
:102840004D244000E520400000060E4001224000DB
:10285000B02E40003129400078304000A51E4000D5
:10286000BD104000C51E4000883040009830400038
:10287000A8304000E10A4000B8304000891F400005
:10288000C4304000D51F4000CD12400082B000236C
:1028900001934FF0500383F31188BFF36F8FBFF3A1
:1028A0004F8F019B1BB900BF019B002BFBD0002366
:1028B00083F3118802B0704708B5E8210148024B44
:1028C000984708BDDC3040008D2840004FF0500391
:1028D00083F31188BFF36F8FBFF34F8FFEE70000C4
:1028E00070B50F4E0F4D761BB61018BF002405D0E3
:1028F000013455F8043B9847A642F9D10A4E0B4DD6
:10290000761B00F0F5FBB61018BF002406D001348A
:1029100055F8043B9847A642F9D170BD70BD00BF81
:10292000FC304000FC30400004314000FC304000EE
:10293000844641EA000313F003036DD1403A41D3CA
:1029400051F8043B40F8043B51F8043B40F8043B89
:1029500051F8043B40F8043B51F8043B40F8043B79
:1029600051F8043B40F8043B51F8043B40F8043B69
:1029700051F8043B40F8043B51F8043B40F8043B59
:1029800051F8043B40F8043B51F8043B40F8043B49
:1029900051F8043B40F8043B51F8043B40F8043B39
:1029A00051F8043B40F8043B51F8043B40F8043B29
:1029B00051F8043B40F8043B51F8043B40F8043B19
:1029C000403ABDD2303211D351F8043B40F8043BB9
:1029D00051F8043B40F8043B51F8043B40F8043BF9
:1029E00051F8043B40F8043B103AEDD20C3205D3C9
:1029F00051F8043B40F8043B043AF9D2043208D0C1
:102A0000D2071CBF11F8013B00F8013B01D30B8832
:102A100003806046704700BF082A13D38B078DD010
:102A200010F003038AD0C3F10403D21ADB071CBFE2
:102A300011F8013B00F8013B80D331F8023B20F84C
:102A4000023B7BE7043AD9D3013A11F8013B00F885
:102A5000013BF9D20B7803704B7843708B7883700D
:102A60006046704770B4860746D0541E002A41D095
:102A7000CAB2034602E014F1FF343BD303F8012B42
:102A80009D07F8D1032C2ED9CDB245EA05250F2C90
:102A900045EA054519D903F110022646103E0F2ECE
:102AA00042F8105C42F80C5C42F8085C42F8045CA6
:102AB00002F11002F2D8A4F1100222F00F0204F089
:102AC0000F041032032C13440DD91E462246043A3B
:102AD000032A46F8045BFAD8221F22F003020432CC
:102AE000134404F003042CB1C9B21C4403F8011BC5
:102AF0009C42FBD170BC704714460346C2E700BF3E
:102B000080EA0102844612F0030F4FD111F0030F47
:102B100032D14DF8044D11F0040F51F8043B0BD0A5
:102B2000A3F101329A4312F0803F04BF4CF8043BFA
:102B300051F8043B16D100BF51F8044BA3F1013208
:102B40009A4312F0803FA4F101320BD14CF8043BC0
:102B5000A24312F0803F04BF51F8043B4CF8044BF1
:102B6000EAD023460CF8013B13F0FF0F4FEA332362
:102B7000F8D15DF8044B704711F0010F06D011F841
:102B8000012B0CF8012B002A08BF704711F0020F2F
:102B9000BFD031F8022B12F0FF0F16BF2CF8022B1A
:102BA0008CF8002012F47F4FB3D1704711F8012B3D
:102BB0000CF8012B002AF9D1704700BF000000007B
:102BC00090F800F06DE9024520F007016FF0000C6D
:102BD00010F0070491F820F040F049804FF0000415
:102BE0006FF00700D1E9002391F840F000F10800F0
:102BF00082FA4CF2A4FA8CF283FA4CF3A2FA8CF328
:102C00004BBBD1E9022382FA4CF200F10800A4FA8E
:102C10008CF283FA4CF3A2FA8CF3E3B9D1E90423E2
:102C200082FA4CF200F10800A4FA8CF283FA4CF319
:102C3000A2FA8CF37BB9D1E9062301F1200182FAD3
:102C40004CF200F10800A4FA8CF283FA4CF3A2FAD9
:102C50008CF3002BC6D0002A04BF04301A4612BAE7
:102C6000B2FA82F2FDE8024500EBD2007047D1E9EA
:102C7000002304F00305C4F100004FEAC50514F079
:102C8000040F91F840F00CFA05F562EA05021CBF4A
:102C900063EA050362464FF00004A9E7024B13B153
:102CA000024800F005B8704700000000BD2C40004D
:102CB000002301461A46184600F01EB838B50A4CE3
:102CC0000A4D641BA4100AD004F18043013B05EBBC
:102CD0008305013C55F804399847002CF9D1BDE82B
:102CE000384000F00FBA00BF1431400010314000EE
:102CF000704700BF704700BF2DE9F8432C4D0646D2
:102D0000286898460F469146FFF7F2FF294B1C684A
:102D1000D4F84831002B3ED05A681F2A1CDC02F13F
:102D2000010E76B103EB82010124C1F88890D3F83B
:102D3000880194402043022EC3F88801C1F808811D
:102D400023D00232C3F804E0286843F82270FFF76A
:102D5000D1FF0020BDE8F883174B0BB34FF4C870C8
:102D6000AFF300800346D8B1D4F8482102600021B7
:102D700041600A46C4F848014FF0010EC0F88811BE
:102D8000C0F88C11002EDCD0CCE7D3F88C110C43AA
:102D9000C3F88C41D5E704F5A673C4F84831BBE706
:102DA0002868FFF7A7FF4FF0FF30BDE8F88300BFAA
:102DB00048040020EC304000000000002E2E2F734D
:102DC00072632F4672656552544F532F706F727441
:102DD00061626C652F4743432F41524D5F434D3431
:102DE000462F706F72742E63000000002E2E2F731A
:102DF00072632F4672656552544F532F706F727411
:102E000061626C652F4D656D4D616E672F68656100
:102E1000705F352E630000002E2E2F7372632F46D5
:102E200072656552544F532F71756575652E630039
:102E30002E2E2F7372632F4672656552544F532F97
:102E40007461736B732E630049444C4500000000AD
:102E5000546D7251000000002E2E2F7372632F46A6
:102E600072656552544F532F74696D6572732E638A
:102E700000000000546D72205376630000000000D3
:102E80000000000000000000000000000000000042
:102E90000000000000000000000000000000000032
:102EA0000000000000000000000000000000000022
:102EB0000100000000000000000000004C4544201C
:102EC00031205354415254494E470A00000000003B
:102ED00000000000000000000000000000000000F2
:102EE00000000000000000000000000000004C4551
:102EF00044203120424C4F434B494E470A000000CA
:102F000000000000000000000000000000000000C1
:102F100000000000000000000000000000000000B1
:102F20000200000000000000000000004C454420AA
:102F300032205354415254494E470A0000000000C9
:102F40000000000000000000000000000000000081
:102F500000000000000000000000000000004C45E0
:102F600044203220424C4F434B494E470A00000058
:102F70000000000000000000000000000000000051
:102F80000000000000000000000000000000000041
:102F90000300000000000000000000004C45442039
:102FA00033205354415254494E470A000000000058
:102FB0000000000000000000000000000000000011
:102FC00000000000000000000000000000004C4570
:102FD00044203320424C4F434B494E470A000000E7
:102FE00000000000000000000000000000000000E1
:102FF00000000000000000000000000000000000D1
:1030000000000000000000000000000000000000C0
:10301000000000004D61696E436F6E74726F6C202A
:103020005374617274696E670A000000000000004A
:103030000000000000000000000000000000000090
:103040000000000000004D61696E436F6E74726F86
:103050006C20426C6F636B696E670A0000000000B1
:103060000000000000000000000000000000000060
:1030700000000000000000005461736B486561723D
:1030800074626561740000005461736B426C696E18
:103090006B4C4544310000005461736B426C696EA7
:1030A0006B4C4544320000005461736B426C696E96
:1030B0006B4C4544330000005461736B55415254CE
:1030C000000000005461736B53797374656D436F36
:1030D0006E74726F6C4C4544320000002E2E2F73BC
:1030E00072632F6D61696E2E630000002000002066
:1030F000F8B500BFF8BC08BC9E4670479D2C400048
:103100001D014000F8B500BFF8BC08BC9E467047E2
:04311000F900400082
:10311400100B7900AAAAAAAA070000000100000067
:10312400762223180100000000093D000000000081
:10313400000000000C03002074030020DC030020C6
:10314400000000000000000000000000000000007B
:10315400000000000000000000000000000000006B
:10316400000000000000000000000000000000005B
:10317400000000000000000000000000000000004B
:10318400000000000000000000000000000000003B
:10319400000000000000000000000000000000002B
:1031A400000000000000000000000000000000001B
:1031B400000000000000000000000000000000000B
:1031C40000000000000000000000000000000000FB
:1031D40000000000000000000100000000000000EA
:1031E4000E33CDAB34126DE6ECDE05000B000000AF
:1031F40000000000000000000000000000000000CB
:1032040000000000000000000000000000000000BA
:1032140000000000000000000000000000000000AA
:10322400000000000000000000000000000000009A
:0C35540000000000000000004C060020F9
:04000005004024A5EE
:00000001FF
