:020000040040BA
:10000000F0360020512E40004D2E40004D2E400075
:100010004D2E40004D2E40004D2E400000000000AF
:10002000000000000000000000000000D1074000B8
:100030004D2E40000000000071084000D50840002F
:100040004D2E40004D2E40004D2E40004D2E4000C4
:100050004D2E40004D2E40004D2E4000DD2B400027
:100060004D2E40001104400025044000390440009A
:100070004D044000610440004D2E40004D2E4000D4
:100080004D2E40004D2E40004D2E40004D2E400084
:100090004D2E40004D2E40004D2E40004D2E400074
:1000A0004D2E40004D2E40004D2E40004D2E400064
:1000B0004D2E40004D2E40004D2E40004D2E400054
:1000C0004D2E40004D2E40004D2E40004D2E400044
:1000D0004D2E40004D2E40004D2E40004D2E400034
:1000E0004D2E40004D2E40004D2E40004D2E400024
:1000F0004D2E40004D2E400010B5054C237833B9ED
:10010000044B13B10448AFF300800123237010BDEA
:1001100044040020000000001C3840000C4B43B198
:100120000C480D4910B5AFF300800C48036823B9A3
:1001300010BD0A48036833B97047094B002BF7D04C
:10014000BDE810401847064B002BF5D0184700BFFC
:10015000000000001C384000480400201C3840000B
:1001600000000000C0F8841053004FF40042B2FBBE
:10017000F3F2013AC2F30D02C0F88C2070474264DA
:10018000B1F1C05F3AD013D8B1F1006F25D0B1F111
:10019000805F0AD1036F13430367436F416F0B40C6
:1001A00023EA02034367426070470029FBD170478E
:1001B000B1F1205F21D009D8B1F1005FF3D1036F15
:1001C00013430367436F13434367ECE7B1F1405FA9
:1001D00013D0B1F1605F10D0E5E710B4016F046F88
:1001E000D34321401C4619400167436F416F0B40C8
:1001F0002340436742605DF8044B7047036F016F13
:100200000B4023EA02030367436F13434367CAE7C4
:10021000416412F0010F14BF4166016612F00A0F2B
:1002200014BF0162416212F0020F07D112F0080FF1
:1002300018BFC0F88410416101607047C0F8801099
:10024000F9E710B4019C41644CB901664BB10165FA
:100250004AB94163016101605DF8044B7047416632
:10026000F4E74165F4E70163F4E7000070B582B09C
:10027000054616461C46B1F1005F14D00AD9B1F10B
:10028000405F22D0B1F1605F1FD0B1F1205F16D086
:10029000002012E0B1F1805F05D0B1F1C05F02D063
:1002A000B1F1006FF4D132462846104B984714F054
:1002B000010F14BF6E662E66012002B070BD1A4693
:1002C00031460B4B98470120F7E704F001030093F8
:1002D000C4F38003B1F1605F14BF002201223146F4
:1002E0002846044CA0470120E7E700BF7F014000FB
:1002F000110240004302400012F0100F10D0C0F86D
:10030000B01012F0200F14BFC0F8D410C0F8D010F5
:1003100012F0400F14BFC0F8C010C0F8C4107047EE
:10032000C0F8B41070470164704741647047C06CF6
:100330007047806C704700002DE9F84381460F46F6
:10034000124B984705464846114B9847054013D035
:10035000104C04F1600603E0B4420DD010345DB1DE
:100360002068B842F8D161682942F5D0E36898471F
:10037000636825EA0305EFE7074B1B6823B1074BCA
:100380001B680BB148469847BDE8F8832F0340002F
:1003900033034000600400207C060020D4040020C9
:1003A000F8B5184C2668062E29D84FF0000C644684
:1003B000154F04E00134E4B2A446A64209D3A64690
:1003C00025017D598D42F5D107EB04156D689542E5
:1003D000F0D10D4D4FEA0E1E05EB0E0445F80E1040
:1003E0006260A3600699E1600136664504BF054975
:1003F0000E6011461A46054B98470020F8BD0120B3
:10040000F8BD00BFD004002060040020F9024000C5
:1004100008B509210148024B984708BD000E0E405F
:100420003903400008B50A210148024B984708BD2E
:1004300000100E403903400008B50B210148024B63
:10044000984708BD00120E403903400008B50C2142
:100450000148024B984708BD00140E403903400084
:1004600008B50D210148024B984708BD00160E4003
:1004700039034000F8B506460C461546184B984718
:1004800007464FF0FF313046164B98473046164B23
:100490009847002C1DDB610904F01F0201239340E3
:1004A000124A01F1200042F82030BFF34F8FBFF312
:1004B0006F8F01F1600042F820302D01EDB214443D
:1004C00084F8005342F8213039463046084B9847AB
:1004D000F8BD04F00F042D01EDB2064B1D55F3E7F6
:1004E000330340002B0340002F03400000E100E0F5
:1004F0002703400014ED00E000B583B00023019312
:1005000009280ED00C282ED1B1F1007F2BD1022268
:100510001B4B1A7001AA00211A4B18681A4B9847F6
:1005200017E004290FD0B1F5803F1FD0B1F5006F5F
:1005300019D10122124B1A7001AA0021114B18681F
:10054000114B984705E001AA19460E4B18680E4B4F
:100550009847019B3BB14FF080520C4B1A60BFF3A0
:100560004F8FBFF36F8F03B05DF804FB0021044B86
:10057000197001AA034B1868034B9847E9E700BFBD
:100580008406002080060020FD22400004ED00E0EB
:100590002DE9F04782B03D4C792304224FF02051E1
:1005A0002046DFF8F8A0D0470A2204212046DFF8D1
:1005B000F090C847DFF8EC80CDF800807923042262
:1005C00009212046324FB847052209212046314EE5
:1005D000B04704212046304DA84779234FF480329C
:1005E0004FF020512046D0470A224FF48031204658
:1005F000C847CDF8008079234FF480320921204686
:10060000B847052209212046B0474FF480312046E3
:10061000A84779234FF400624FF020512046D0477D
:100620000A224FF400612046C847CDF800807923A4
:100630004FF4006209212046B847052209212046CF
:10064000B0474FF400612046A84704F5C064792301
:100650004FF000724FF020512046D0470A224FF051
:1006600000712046C847CDF8008079234FF0007212
:100670000C212046B84705220C212046B0474FF0F8
:1006800000712046A84702B0BDE8F087000E0E407A
:10069000A103400075044000270340006D024000A4
:1006A00065014000F904400000F1080343604FF089
:1006B000FF328260C3600361002303607047002340
:1006C0000361704730B40D68B5F1FF3F02D000F10F
:1006D000080202E0026904E01A4653681C68A54259
:1006E000FAD253684B6099608A6051600861036870
:1006F0000133036030BC70470369426881689160D0
:100700008268416851605A68904204BF82685A60AA
:10071000002202611A68013A1A60186870470000E6
:1007200008480068006880F308884FF0000080F3F4
:10073000148862B661B6BFF34F8FBFF36F8F00DFCF
:1007400000BF000008ED00E0DFF80C00016841F494
:10075000700101607047000088ED00E000B583B0D3
:10076000002301930B4B1B68B3F1FF3F03D0E7213C
:1007700009480A4B98474FF0500383F31188BFF3A1
:100780006F8FBFF34F8F019B002BFCD003B05DF840
:1007900004FB00BF000000207C364000FD3140001B
:1007A0004FF0807340F8043C21F0010140F8081C30
:1007B000054B40F80C3C40F8202C6FF0020340F849
:1007C000243C4438704700BF5D0740000000000033
:1007D000074B19680868B0E8F04F80F30988BFF349
:1007E0006F8F4FF0000080F311887047AFF30080E7
:1007F0000005002008B54FF0500383F31188BFF3C4
:100800006F8FBFF34F8F094A136801331360012BB9
:1008100000D008BD064B1B6813F0FF0FF9D04FF452
:10082000D3710448044B9847F3E700BF0000002051
:1008300004ED00E07C364000FD31400008B5084B77
:100840001B683BB1064A1368013B13600BB983F385
:10085000118808BD40F2AD110248034B9847F1E7FB
:10086000000000207C364000FD3140000000000008
:10087000EFF30980BFF36F8F154B1A681EF0100F4E
:1008800008BF20ED108A20E9F04F10602DE9090023
:100890004FF0500080F31188BFF34F8FBFF36F8F7D
:1008A00001F0D4FA4FF0000080F3118809BC1968F8
:1008B0000868B0E8F04F1EF0100F08BFB0EC108AC7
:1008C00080F30988BFF36F8F704700BFAFF30080DC
:1008D0000005002008B54FF0500383F31188BFF3E3
:1008E0006F8FBFF34F8F054B984718B14FF0805271
:1008F000034B1A60002383F3118808BD991A400046
:1009000004ED00E0084A0023136008490B60084B1F
:100910001B680849A1FB03139B09013B06490B60B7
:1009200007231360704700BF10E000E018E000E00C
:1009300014000020D34D621014E000E010B582B026
:10094000364B1A68364B9A421ED0344B1A68354BD8
:100950009A421FD0344B1A78D2B20192FF221A70F9
:100960001B78DBB28DF803309DF8033003F05003A1
:100970002E4A137007222E4B1A609DF8033013F095
:10098000800F1ED006220CE04FF4977129482A4BA5
:100990009847DAE740F22F112648274B9847D9E7C6
:1009A0000A469DF803305B00DBB28DF803309DF8FA
:1009B0000330511E13F0800FF2D11D4B1A60032A31
:1009C00004D040F261111B481B4B9847184A13682A
:1009D0001B0203F4E0631360019BDBB2124A137045
:1009E000164B1A6842F470021A601A6842F070429C
:1009F0001A60134B98470024124B1C60124B984707
:100A0000124A136843F040431360114B9847114B4F
:100A10009847114B9847204602B010BD00ED00E00A
:100A200071C20F4170C20F4100E400E0D804002001
:100A3000DC0400207C364000FD31400020ED00E069
:100A400005094000000000204907400034EF00E0A5
:100A5000210740004D1E40005D07400008B5EFF340
:100A600005830F2B06D90E4A9B5CDBB20D4A127828
:100A70009A4208D80C4B1B6803F4E0630B4A1268D7
:100A8000934206D808BD40F2FE210948094B984719
:100A9000F0E740F20E310648064B9847F2E700BFF8
:100AA000F0E300E0D80400200CED00E0DC040020BE
:100AB0007C364000FD31400010B4134A00E01A4675
:100AC00013688342FBD351685418A0420AD041688E
:100AD0004418A3420BD00360904218BF10605DF829
:100AE000044B70474068014451601046EFE7074CE3
:100AF0002468A34206D05B681944416013681B68F0
:100B00000360E9E70360E7E7F8040020E004002061
:100B1000F8B504462F4B1B68EBB12F4B98472F4B72
:100B20001D6825424DD1002C4ED004F108018C42A5
:100B30004AD211F0070F05D021F00703083399427C
:100B400042D2194600293CD0254B1E68B14238D804
:100B5000244A146806E08E212348244B9847DCE79A
:100B600022461C466368994202D92368002BF7D1BC
:100B7000184B1B689C4224D0176808372368136001
:100B800063685B1A102B16D86268B61A14490E6097
:100B9000174909688E423CBF15490E6015436560D0
:100BA00000232360134A136801331360124B9847E4
:100BB00067B13846F8BD6018436061600F4B9847D5
:100BC000E2E70D4B984701E00B4B98470C4B9847D9
:100BD0000027EEE7E00400207D1A4000E404002036
:100BE000E8040020F8040020AC364000FD3140004D
:100BF000EC040020F0040020551C4000B90A40001D
:100C000029324000002844D010B5044650F8042C86
:100C1000204B1B681A4211D050F8083CF3B140F247
:100C20002D111D481D4B984754F8043C194A126871
:100C3000134202D054F8081CA1B110BD4FF49671B4
:100C40001548164B984754F8083C002BE7D154F848
:100C5000043C104A12681342EFD003E054F8043CFD
:100C60000C4A126823EA020344F8043C0C4B9847F0
:100C70000C4A54F8043C11680B441360A4F10800BA
:100C8000094B9847094A136801331360084B98478A
:100C900010BD7047E4040020AC364000FD31400038
:100CA0007D1A4000E8040020B90A4000F404002046
:100CB000551C40002DE9F84F0546354B1B6823B104
:100CC00040F2A3113348344B9847D5F804B0BBF138
:100CD000000F52D008350026B0462D4FDFF8B4A0E3
:100CE000DFF8B4901DE03B6873B33B68A34230D299
:100CF00039680BEB0403083B23F007033B60002239
:100D00005A601A602246181B6060236001B10C60B3
:100D1000536898440136083555F804BCBBF1000F00
:100D20001CD055F8084C14F0070F06D0E21D22F035
:100D30000702A344ABEB020B1446002ED3D1174B92
:100D40001C6000225A60D3E740F2C5115046C847E4
:100D5000CBE74FF4E4715046C847C9E7104BC3F8DE
:100D60000080104BC3F80080B8F1000F0AD04FF09C
:100D700000420D4B1A60BDE8F88F0023084A13604B
:100D8000084A136040F2F1110248034B9847EEE71E
:100D9000E0040020AC364000FD314000F8040020A3
:100DA000EC040020E8040020E404002010B5044610
:100DB000044B9847A46B044B9847B4FA84F040095D
:100DC00010BD00BFF50740003D08400070B5044667
:100DD0001646856B026C5AB90368002013B10135C1
:100DE000A56370BDA068174B98470023A360F6E782
:100DF0006EB94068144B98476368226C1344636073
:100E0000A268934219D3236863600020E7E7C068B3
:100E10000D4B9847226C5242E3681344E36021680B
:100E20008B4202D2A3681A44E260022E01D0002055
:100E3000D5E725B1013D0020D1E70020CFE7002014
:100E4000CDE700BF81214000A132400070B582B0E3
:100E50000190846C5CB1A26BE36B9A420DD2A26BE1
:100E6000E36B9A420FD30026304602B070BD40F6C5
:100E7000D5311748174B9847EDE740F6D63114485F
:100E8000144B9847EBE794F845506DB2002201A946
:100E90002046114B98470646B5F1FF3F06D07F2DFF
:100EA0000FD001356DB284F84550DDE7636A002B41
:100EB000DAD004F12400094B9847002818BF012616
:100EC000D2E740F6F6310248024B9847E9E700BF07
:100ED000D8364000FD314000CD0D4000BD1F400020
:100EE000026C72B110B5C3681344C3608468A34236
:100EF00024BF0368C3600C46C1682046014B984775
:100F000010BD7047A13240002DE9F0410546234B4A
:100F1000984795F8454064B2002C18DD204EDFF864
:100F20008C80204F08E06B6A8BB105F12400B84734
:100F300058B9013C64B254B1AB6C002BF3D02846D5
:100F4000B0470028F5D0C047F3E7C047F1E7FF23DB
:100F500085F84530144B9847104B984795F8444016
:100F600064B2002C12DD2B6983B105F110070D4E20
:100F7000DFF8388004E0013C64B23CB12B692BB14E
:100F80003846B0470028F6D0C047F4E7FF2385F87D
:100F90004430054B9847BDE8F08100BFF50740009D
:100FA0004D0E4000BD1F40003D084000552140004F
:100FB00038B550B10D460446C36B63B940F24511D4
:100FC0002148224B9847002038BD4FF488711E48B5
:100FD0001E4B9847F2E74FF0FF32B2FBF3F3226C5F
:100FE0009342EBD31A4B98472268216CE36B03FBC7
:100FF00001F3D018A0600020A06362605B1A134464
:10100000E360FF2384F8443084F84530A5B92369B0
:101010001BB9104B9847012038BD04F110000E4B4E
:1010200098470028F5D04FF080520C4B1A60BFF360
:101030004F8FBFF36F8FECE704F11000084DA84706
:1010400004F12400A847E4E7D8364000FD31400011
:10105000F50740003D084000BD1F400004ED00E0E2
:10106000A906400070B508B30D4606464FF0FF33A1
:10107000B3FBF0F38B4219D301FB00F010F14D0FDD
:1010800014D84C300D4B9847044658B165B100F167
:101090004C030360E663256401212046084B984712
:1010A0000023A364204670BD2060F3E74FF4E37192
:1010B0000448054B98470024F4E700BF110B40009B
:1010C000B10F4000D8364000FD3140002DE9F04F0F
:1010D00085B0894601921E460446A8B1B9F1000FB9
:1010E00018D0022E1FD0674B984730B9019B23B10F
:1010F00040F233316448654B98474FF0000A644D25
:10110000644FDFF89C815EE040F22E315E485F4B19
:101110009847E3E7236C002BE3D040F22F315A4885
:101120005A4B9847DDE7E36B012BDCD04FF44C7151
:101130005548564B9847D6E7A56B32464946204658
:10114000554B9847A36CA3B1022E00F09680204621
:10115000524B984738B14FF08052514B1A60BFF351
:101160004F8FBFF36F8F4F4B9847012005B0BDE8FD
:10117000F08F636A53B90028F5D04FF08052484B86
:101180001A60BFF34F8FBFF36F8FECE704F12400B9
:10119000454B98470028E6D04FF08052404B1A60EC
:1011A000BFF34F8FBFF36F8FDDE73E4B98470020B3
:1011B000DCE702A8B84713E020463C4B98473C4B7D
:1011C00098474FF0010AA847A26BE36B9A42B3D34A
:1011D000022E48D0019B002BE7D0BAF1000FE8D0D7
:1011E000304B9847334B9847A84794F844305BB24C
:1011F000B3F1FF3F04BF002384F8443094F8453036
:101200005BB2B3F1FF3F04BF002384F84530254BA8
:10121000984701A902A8284B9847E8B9A847D4F8ED
:1012200038B0D4F83CA01F4B9847D345C4D101999E
:1012300004F11000214B984720461C4B98471C4B4B
:1012400098470028BDD14FF08053C8F80030BFF355
:101250004F8FBFF36F8FB4E72046144B9847144B62
:101260009847002082E7A56B0222494620460A4B98
:101270009847A36C002B3FF47CAF002D3FF467AF81
:1012800071E700BF61214000D8364000FD314000C9
:10129000F5074000B1204000CD0D40004D0E40004C
:1012A00004ED00E03D084000BD1F4000090F400074
:1012B000551C40007D1A4000C92040001D1F400001
:1012C0002DE9F0470F4691461E460446C8B1F7B1D6
:1012D000022E25D03A4B9847EFF311884FF0500378
:1012E00083F31188BFF36F8FBFF34F8FA26BE36B54
:1012F0009A421ED3022E1CD0002088F31188BDE82C
:10130000F08740F202412F482F4B9847DFE7236CCC
:10131000002BDDD040F203412A482B4B9847D7E7FA
:10132000E36B012BD6D040F204412648264B984768
:10133000D0E794F845506DB2D4F838A0324639461B
:101340002046224B9847B5F1FF3F07D07F2D29D08B
:1013500001356DB284F845500120CEE7A36C8BB106
:10136000022E0AD020461A4B984708B3B9F1000F55
:1013700020D00120C9F80000BFE7BAF1000FF1D07A
:101380000120BAE7636A0BB90120B6E704F1240033
:10139000104B984780B1B9F1000F0FD00120C9F868
:1013A0000000AAE740F28D410648074B9847CFE777
:1013B0000120A2E70120A0E701209EE701209CE791
:1013C0005D0A4000D8364000FD314000CD0D4000A0
:1013D0004D0E4000BD1F40002DE9F04784B0884607
:1013E0000192044698B1B8F1000F16D04D4B9847C2
:1013F00030B9019B23B140F25A514B484B4B9847AF
:101400004FF0000A4A4D4B4EDFF8389144E040F26D
:1014100051514548454B9847E5E7236C002BE5D0F3
:1014200040F255514048414B9847DFE7414620463E
:10143000414B98477B1EA36323692BB93F4B9847C9
:10144000012004B0BDE8F08704F110003C4B984740
:101450000028F3D04FF080523A4B1A60BFF34F8F01
:10146000BFF36F8FEAE7354B98470020E9E702A802
:10147000B0471BE02046344B9847344B984709E06F
:101480002046314B9847314B98472046304B984780
:10149000002844D14FF0010AA847A76B002FC5D1FF
:1014A000019B002BDFD0BAF1000FE0D0234B98470F
:1014B000284B9847A84794F844305BB2B3F1FF3FFC
:1014C00004BF002384F8443094F845305BB2B3F194
:1014D000FF3F04BF002384F84530184B984701A90B
:1014E00002A81D4B98470028CAD12046184B9847A0
:1014F0000028BFD0019904F12400184B98472046DA
:10150000114B9847114B98470028C3D14FF0805397
:10151000C9F80030BFF34F8FBFF36F8FBAE70020D9
:101520008FE700BF61214000D8364000FD31400008
:10153000F5074000B1204000E10E40003D084000AA
:10154000BD1F400004ED00E0090F4000551C4000A5
:10155000AD0D40007D1A4000C92040001D1F400015
:1015600010B5044630B1064B9847A46B054B98471D
:10157000204610BD40F2E3710348044B9847F2E760
:10158000F50740003D084000D8364000FD314000DE
:1015900070B50D460446B8B1ADB1124B5B689C42C4
:1015A00018D0104A00210B461646A9B10133082B6A
:1015B00006D0083250688442F7D10A4901EBC301D2
:1015C00009B10D604C6070BD40F6C8210648074B5C
:1015D0009847E1E70023F0E756F83300002808BFFA
:1015E0001146E3E788060020D8364000FD31400070
:1015F00070B504460D461646114B984794F8443092
:101600005BB2B3F1FF3F04BF002384F8443094F889
:1016100045305BB2B3F1FF3F04BF002384F845308F
:10162000084B9847A36B1BB12046074B984770BDEA
:101630003246294604F12400044B9847F4E700BFE2
:10164000F50740003D084000090F40005D1F4000C5
:10165000074B1B681B6833B1054B1B68DB681A68B6
:10166000044B1A6070474FF0FF32024B1A6070470C
:1016700004050020EC05002080B5164DDFF86C80D5
:10168000154FDFF86C902B68BBB1144EC047FB6858
:10169000DC68201DB047124A1368013B13602B68B9
:1016A000013B2B600F4B9847206BDFF848A0D047D9
:1016B0002046D0472B68002BE8D10B4B1B68012B31
:1016C000E1D94FF08053C9F80030BFF34F8FBFF31B
:1016D0006F8FD8E7B005002024060020F9064000EF
:1016E000AC0500203D0840000C050020F507400037
:1016F00004ED00E0050C400070B504460E46244B96
:101700001D68244B18680430234B984748B9214B77
:101710001A6822490B68D06A0122824023EA020338
:101720000B60B4F1FF3F13D02C441A4B1B685C6074
:10173000A54224D81A4B1868164B19680431194B66
:101740009847194B1B689C423CBF174B1C6070BDEF
:10175000002EE9D0154A51680E4B18688160186850
:101760008C68C4608C681868043060601868043045
:1017700088601B685A6113680133136070BD0C4B9D
:101780001868044B19680431064B984770BD00BFB8
:101790003806002000050020F9064000BC050020A6
:1017A00004050020C5064000EC05002010060020BE
:1017B000080500202DE9F04F83B083460E460193C3
:1017C0000C9DDDF834A0970038466E4B98470028F2
:1017D00000F0A580804664206A4B984704460028A4
:1017E00000F09A80C0F830803A46A5214046664B0A
:1017F0009847043F236B1F4427F00707002E00F093
:101800009180337884F8343033785BB1334604F117
:1018100034021336597802F8011F13F8011F09B179
:10182000B342F7D1002384F84730072D7ED8072D27
:1018300028BF0725E562A5640026E66404F10408D4
:101840004046DFF89C91C84704F11800C84724615E
:10185000C5F10805A561646226656665A665E6654D
:1018600084F86060019A59463846484B9847206092
:10187000BAF1000F01D0CAF80040454B9847454ADD
:10188000136801331360444B1B68002B54D0434B47
:101890001B683BB9404B1B68DA6AE36A9A429CBFFB
:1018A0003D4B1C603E4A136801331360E36A3D49B7
:1018B000086801229A4002430A603B4A03EB830313
:1018C00002EB83035B68A3609968E1609968C1F8E3
:1018D0000480C3F80880E06A83001918890055184D
:1018E00065615158013103449B00D1502F4B9847FB
:1018F0002A4B1B68002B3FD0274B1B68DA6AE36A30
:101900009A423DD24FF08052294B1A60BFF34F8F5D
:10191000BFF36F8F012030E04046264B98474FF0D1
:10192000FF302AE0002384F834307EE740F297311C
:101930002148224B98477AE7174B1C601368012B0C
:10194000B0D1194D05F1A0071D4E2846B0471435FA
:10195000AF42FAD11B4F3846194DA8471A4E3046B0
:10196000A8471A48A8471A48A8471A48A8471A4B30
:101970001F601A4B1E6095E7012003B0BDE8F08F91
:101980000120FAE7110B4000D5334000A1074000C9
:10199000F5074000AC050020000500200C060020E3
:1019A000B8050020BC0500200C0500203D084000C3
:1019B00004ED00E0050C4000F0364000FD31400031
:1019C000A9064000C0050020D4050020F80500202D
:1019D0002406002010060020040500200805002031
:1019E000BF06400010B582B0184B0193002300934E
:1019F000822217491748184CA047012806D0B0F199
:101A0000FF3F1CD0154B1B6802B010BD144B98470C
:101A10000128F4D14FF0500383F31188BFF36F8F87
:101A2000BFF34F8F4FF0FF320E4B1A6001220E4B67
:101A30001A6000220D4B1A600D4B9847E2E74FF4F5
:101A400004610C480C4B9847DCE700BFE805002018
:101A50000837400079164000B51740000400002008
:101A600089274000EC0500200C06002038060020E5
:101A70003D094000F0364000FD314000024A136845
:101A800001331360704700BFB4050020014B186894
:101A9000704700BF380600202DE9F84F5F4B1B68E8
:101AA000002B40F0B3805E4B1C6804F1010BC3F8BF
:101AB00000B0BBF1000F0FD15A4B1B681B6813BB62
:101AC000584A1168584B186810601960574A1368D3
:101AD00001331360564B9847564B1B689B4518D2F1
:101AE0000020554B1B68DB6A03EB83039B00534AC2
:101AF000D358022B28BF0120514B1B68002B18BF65
:101B00000120BDE8F88F40F6C7214E484E4B98475C
:101B1000D6E70020434907464C4D4FF0010E474A97
:101B2000DFF8148136E04FF0FF32424B1A60D8E7FD
:101B3000404B1E60D5E7DE6AD5F800A00EFA06F924
:101B400049EA0A09C5F8009006EB860602EB86060C
:101B500076689E60B468DC60B468C4F804C0C6F8F7
:101B600008C0D3F82C904FEA890606EB090C02EB6B
:101B70008C0AC3F814A052F82CC00CF1010C4E448E
:101B800042F826C0D8F800C0DE6ADCF82C309E424D
:101B900028BF01200B681B68002BC4D00B68DB68D2
:101BA000DB685E68B345C3D3D3F814909E68DC68E5
:101BB000B460DE689C68746003F1040CD9F80460BA
:101BC000664504BFDE68C9F804605F61D9F800604B
:101BD000013EC9F80060D3F82890B9F1000FAAD0EF
:101BE000DE691C6AB4601E6ADC69746003F1180A5D
:101BF000D9F80460564504BF1E6AC9F804609F62A4
:101C0000D9F80060013EC9F8006094E7104A1368F3
:101C1000013313600020BDE8F88F00BFB405002039
:101C2000380600200405002008050020F0050020EB
:101C300051164000EC050020000500200C05002096
:101C40003C060020F0364000FD314000BC0500207D
:101C5000F40500202DE9F047574B1B68002B7AD084
:101C6000564B9847544B1A68013A1A601B68002B70
:101C700040F09A80524B1B68002B72D000235149D0
:101C80001C4651480126514ADFF864A1DFF854E1AF
:101C90000D68002D67D0CB68DB68D3F828C0DD69FC
:101CA0001F6AAF601D6ADF696F6003F11808DCF816
:101CB0000450454504BF1D6ACCF804509C62DCF812
:101CC0000050013DCCF80050D3F814C09D68DF6887
:101CD000AF60DD689F686F6003F10408DCF80450B2
:101CE000454504BFDD68CCF804505C61DCF8005069
:101CF000013DCCF80050DD6AD0F8009006FA05FCF2
:101D00004CEA090CC0F800C005EB850502EB85051F
:101D10006D689D60AF68DF60AF68C7F80480C5F884
:101D20000880D3F82C804FEA880505EB080C02EBFD
:101D30008C09C3F8149052F82CC00CF1010C4544E6
:101D400042F825C0DAF80050ED6ADF6AAF429FD34F
:101D5000CEF800609CE740F6B3011D481D4B984744
:101D60007EE7002421E00BB11B4B98471B4B1C68FE
:101D70006CB11B4D1B4F012601E0013C04D0A8476C
:101D80000028FAD03E60F8E70022144B1A60154B89
:101D90001B687BB14FF08052134B1A60BFF34F8F1B
:101DA000BFF36F8F012400E00024104B98472046BA
:101DB000BDE8F0870024F8E7B4050020F5074000EF
:101DC000AC050020F8050020BC0500200C05002013
:101DD000F0364000FD31400051164000F40500206F
:101DE000991A40003C06002004ED00E03D08400048
:101DF0000005002010B560B104460D4B1B688BB97F
:101E00000C4B9847002120460B4B98470B4B9847AB
:101E100038B94FF080520A4B1A60BFF34F8FBFF3AF
:101E20006F8F10BD40F249510648074B9847E7E7CE
:101E3000B40500207D1A4000F9164000551C4000F2
:101E400004ED00E0F0364000FD3140002B4B1B68F4
:101E5000002B34D110B50022294B1A60294B1B6886
:101E60001B6B1A68B2F1A53F2DD0264B1868196874
:101E70003431254B9847254B1C68B4FA84F4E4B2FE
:101E8000C4F11F0404EB84039B00214AD3583BB3E5
:101E90001F4BA200111903EB81014868406848609C
:101EA00022440B460833984220D004EB8404184B9C
:101EB00003EB84046368DA68124B1A6010BD0122D8
:101EC0000F4B1A6070475A68B2F1A53FCDD19A689E
:101ED000B2F1A53FC9D1DB68B3F1A53FC5D1CAE7CF
:101EE00040F602410B480C4B9847D1E74168134636
:101EF000074A02EB83035960D7E700BFB40500200F
:101F00003C060020000500203D324000BC050020BA
:101F10000C050020F0364000FD31400038B50C467D
:101F2000054650B1084B196818312846074B9847A9
:101F300001212046064B984738BD40F61C41054814
:101F4000054B9847EEE700BF00050020C50640009E
:101F5000F9164000F0364000FD31400070B50E46E5
:101F600015460446D8B16268104B1968CA611968F1
:101F700090680862906819681831416019681831D2
:101F800091601B689C62236801332360002D294601
:101F90000CBF30464FF0FF30054B984770BD40F600
:101FA00052410448044B9847DDE700BF000500207C
:101FB000F9164000F0364000FD31400038B5C368E6
:101FC000DC68002C51D0A36AE269216A9160226A20
:101FD000E169516004F118015A688A4204BF226A1B
:101FE0005A600022A2621A68013A1A60284B1B68E4
:101FF000002B40D16369A268E1689160E268A16842
:102000005160211D5A688A4204BFE2685A6000226A
:1020100062611A68013A1A60E36A1E480568012283
:102020009A402A4302601C4A03EB830302EB8303BA
:102030005B68A3609868E060986841609960E06AB6
:1020400083001918890055186561515801310344FE
:102050009B00D150114B1B68E26ADB6A9A4283BF36
:1020600001200F4B1860002038BD40F682410D481A
:102070000D4B9847A7E70D4B5A68E26190682062C4
:10208000906841609160A3621A6801321A60E1E7CA
:10209000B4050020BC0500200C0500200005002030
:1020A0003C060020F0364000FD314000F8050020DD
:1020B000034B1B680360034B1B684360704700BF02
:1020C000F00500203806002070B50C460546D0B15A
:1020D000FCB1194B9847194B1B682268B2F1FF3FBE
:1020E00028D06968164800682E68864201D08B4265
:1020F00015D25B1A934216D3002323600124114B9F
:102100009847204670BD40F6FD410F480F4B984759
:10211000DEE740F6FE410C480C4B9847D9E7002318
:1021200023600124EBE7D31A23602846084B984725
:102130000024E4E70024E2E7F50740003806002029
:10214000F00500203D084000F0364000FD31400021
:10215000B12040000122014B1A6070473C0600206C
:10216000054B1B6833B1054B1B68002B0CBF0220CD
:1021700000207047012070470C060020B4050020A5
:1021800000284DD070B50446274B1B68984204D0F8
:1021900041F24F012548264B9847E36C4BB1E36C65
:1021A000013BE364E16AA26C91423BD03BB1002069
:1021B00070BD41F250011D481D4B9847EFE7251DAA
:1021C00028461C4B984738B91B490B68E06A012226
:1021D000824023EA02030B60A36CE362C3F10802AE
:1021E000A26115490E68012000FA03F232430A6029
:1021F000124A03EB830302EB83035B68A3609968D5
:10220000E16099684D609D60E56AAB0059198900ED
:1022100056186661515801442B449B00D15070BD43
:1022200000207047002070BD00050020F0364000FF
:10223000FD314000F9064000BC0500200C050020DF
:1022400070B50E461546044600282FD1244B9847FA
:10225000244B1B6804F1160203EB82035B6833B95D
:10226000204B1B682344012283F8602025BB1E4BB2
:1022700098471B4B98471B4B1B6804F1160203EB56
:1022800082035D6845B126BB164B1B686A1E04F1CC
:10229000160103EB81035A60124B1B681C44002398
:1022A00084F86030104B9847284670BD41F2662193
:1022B0000E480F4B9847C9E7114628460D4B9847E3
:1022C0004FF080520C4B1A60BFF34F8FBFF36F8FEC
:1022D000CDE7044B1B6803EB820300225A60DBE767
:1022E000F5074000000500203D084000F0364000A2
:1022F000FD314000F916400004ED00E0F8B50C4651
:1023000017460546E8B114BB3F4B9847EFF31186DB
:102310004FF0500383F31188BFF36F8FBFF34F8FDC
:102320002A1992F86030DBB2022182F8601005EBC6
:102330008404E26D0132E265012B0ED086F3118830
:10234000F8BD41F20C413148314B9847DBE741F28F
:102350000D412E482E4B9847D6E7AB6A23B141F288
:1023600033412A482A4B98472A4B1B68002B3CD103
:102370006B69AA68E9689160EA68A9685160291DDB
:102380005A688A4204BFEA685A6000226A611A6881
:10239000013A1A60EB6A2048046801229A402243FD
:1023A00002601E4A03EB830302EB83035B68AB60AE
:1023B0009868E860986841609960E86A8300191835
:1023C000890054186C615158013103449B00D1506D
:1023D000134B1B68EA6ADB6A9A42AFD90FB101233B
:1023E0003B6001220F4B1A60A8E70F4B5A68EA6165
:1023F00091682962906805F1180141609160AB62B3
:102400001A6801321A60E3E75D0A4000F0364000C6
:10241000FD314000B4050020BC0500200C05002063
:10242000000500203C060020F805002008B54160AA
:10243000006191420CD8D21A83699A4201D30120DB
:1024400008BD011D094B1868094B9847002008BDBD
:102450009A4201D2994206D2011D064B1868044BDC
:102460009847002008BD012008BD00BF4406002099
:10247000C506400040060020F8B504460D46174644
:10248000074E04E0A3691D44236A20469847A169CA
:102490002B463A4629442046B0470028F2D1F8BDE1
:1024A0002D24400070B505460E460D4B1B68DB68B9
:1024B000DC68201D0B4B984794F8243013F0040F70
:1024C00007D123F0010384F82430236A204698477B
:1024D00070BD324629462046034B9847F5E700BFBA
:1024E00040060020F9064000792440002DE9F04123
:1024F0008046144B98470446134B1B68984207D3F9
:102500000023C8F80030104B1C602046BDE8F08165
:102510000E4B1B681A685AB14FF0FF370C4E0B4D2B
:10252000DB6839461868B0472B681A68002AF7D16B
:10253000084A10680549086013600123C8F8003094
:10254000E1E700BF8D1A4000700600204006002021
:10255000A5244000440600202DE9F04F87B05E4ED0
:102560005E4F5F4DDFF8A891DFF8A88133681A68E5
:1025700092B1DB68D3F800A05A4B984702A85A4B97
:1025800098470446029A42BB504515D3B8472146A6
:102590005046564B98471EE0524B984702A8524B64
:1025A00098470446029BC3B9514B1B681A68B2FA9C
:1025B00082F252094FF0000AAAEB040128684D4B41
:1025C0009847B84738B94FF08053C9F80030BFF387
:1025D0004F8FBFF36F8F484C08E0B847FBE7059972
:1025E0000498039B9847029B002B08DA002202A95B
:1025F0002868A0470028B9D0029B002BEFDBDDF84C
:1026000010A0DAF8143013B10AF10400C04701A891
:10261000354B98478346029B013B082BE6D8DFE801
:1026200003F005052D344D05052D34009AF82430AE
:1026300043F001038AF824300399DAF818000B46B6
:102640005A46014450462D4CA0470028C3D09AF862
:10265000243013F0040F08D123F001038AF824304A
:10266000DAF8203050469847B5E7DAF818305A467D
:10267000039919445046224B9847F1E79AF82430C1
:1026800023F001038AF82430A5E79AF8243043F0B8
:1026900001038AF82430039BCAF8183043B1DAF8F2
:1026A00018105B465A4659445046144CA04792E7CE
:1026B00040F259311348144B9847F0E79AF8243008
:1026C00013F0020F04D023F001038AF8243082E7CC
:1026D00050460E4B98477EE740060020551C4000B0
:1026E000740600207D1A4000ED244000A52440001F
:1026F00044060020F1154000D91340002D2440006D
:102700007924400018374000FD314000050C40009E
:1027100004ED00E0F906400070B5104B9847104BEF
:102720001B6813B10F4B984770BD0F4D28460F4ED5
:10273000B0470F4C2046B0470E4B1D600E4B1C603F
:102740000022102105200D4B9847054B18600028EA
:10275000E8D00B490B4B9847E4E700BFF507400072
:10276000740600203D08400048060020A9064000ED
:102770005C06002040060020440600206510400052
:10278000103740009115400010B582B00D4B9847AE
:102790000D4B1B687BB10D4B019307230093002366
:1027A0004FF482720A490B480B4CA047034610B104
:1027B000184602B010BD40F219110848084B98475E
:1027C0000023F5E719274000740600207806002052
:1027D0003437400059254000B517400018374000F5
:1027E000FD314000094B1A5C530903F5001303F255
:1027F00007735B02D86B02F01F0101228A4010426E
:102800000CBF1A635A63024B187870470C00002003
:1028100008000020F8B50778044E4FF4FA75044C10
:102820003846B0472846A047FAE700BFE5274000F2
:10283000F51D400080B58EB00668094D094F4FF078
:10284000FF34224601A93046A8470128F9D101A842
:10285000054B9847C2B201A93846044B9847EEE7AA
:10286000D913400000060E4081344000B92B4000CF
:1028700080B58EB0D0F800904668D0F808A01D4D05
:102880000027DFF8788016E0752B2ED101AC1A4BAB
:102890000FCB84E80F0009E08DF804308DF8057047
:1028A0003B460A220DF137015046C0473B460A22FB
:1028B00001A94846C0474FF0FF3422460DF13701C9
:1028C0003046A8470128F8D19DF83730332BDBD8A4
:1028D000312BE1D20D2B08D10D238DF804300A23C2
:1028E0008DF805308DF80670E0E78DF804308DF82E
:1028F0000570DBE7D913400090374000CD10400051
:102900002DE9F0438FB0D0F800801F4F1F4EDFF845
:102910008C900DE001AC1E4D0FCD0FC495E8070063
:1029200003C4227000230A2201A94046194CA04783
:102930004FF0FF34224601210020B8473378012BA5
:1029400012D0002BE6D0022BF4D101AC124D0FCDEA
:102950000FC40FCD0FC42B68236000230A2201A9E6
:1029600040460C4CA047E3E701AC4D460FCD0FC4E9
:102970002B6824F8023B1B0C237000230A2201A9B8
:102980004046044CA047D3E7412240008406002083
:102990003C374000CD1040006C37400058374000B5
:1029A000322806D0332806D0312814BF0020012059
:1029B000704702207047032070470000F0B583B0D5
:1029C000046800238DF807300A4D0B4F0B4E02E0D0
:1029D0000A200B4B98472046A8470028F8D0002231
:1029E0000DF107012046B8479DF80700B047054B99
:1029F0009847EDE761154000D9134000A129400038
:102A0000F51D4000E527400010B4444A042313613B
:102A1000C2F8A030536308231361C2F8A030536397
:102A20003F4B4FF080711961C3F8A01059634FF00C
:102A300000711961C3F8A01059634FF40040186188
:102A4000C3F8A00058634FF480305861C3F8A00069
:102A50005866C3F8900058651862C3F884001C6F6C
:102A600024F480341C675C6F24F480345C67C3F802
:102A7000C000C3F8D400C3F8B0004FF40060586140
:102A8000C3F8A0005866C3F8900058651862C3F8F0
:102A900084001C6F24F400641C675C6F24F40064E1
:102AA0005C67C3F8C000C3F8D400C3F8B00003F5F6
:102AB000C0635961C3F8A0105966C3F890105965F6
:102AC0001962C3F88410186F20F000701867586FEF
:102AD00020F000705867C3F8C010C3F8D410C3F8D2
:102AE000B0104FF480435361C2F8A0305366C2F86F
:102AF000903053651362C2F88430116F21F4804125
:102B00001167516F21F480415167C2F8C030C2F89B
:102B1000D430C2F8B0305DF8044B704700100E405E
:102B2000000E0E4010B50446164B4FF4C0621A66F4
:102B3000C3F890205A655A62C3F88020196F21F4B7
:102B4000C0611967596F21F4C06159675A60072045
:102B50000D4B9847AC232360342323624FF400636A
:102B6000636040F20223C4F8203150232360012324
:102B7000A360064B602283F8072380221A6000209E
:102B800010BD00BF000E0E40F92D400000E100E036
:102B9000F8B504460F46436913F0020F07D10A2621
:102BA000044D3046A847636913F0020FF9D007B10E
:102BB000E761F8BDF51D400062B1F8B5154606465F
:102BC0000C460D44044F14F8011B3046B847AC4284
:102BD000F9D1F8BD704700BF912B400010B582B00D
:102BE00000238DF807300F4B5B6913F0010F0BD1F9
:102BF000009B3BB14FF080520B4B1A60BFF34F8FDD
:102C0000BFF36F8F02B010BD064B9B698DF8073084
:102C100000236A460DF1070104480068044CA047F0
:102C2000E6E700BF00060E4004ED00E0C806002005
:102C3000C112400010B50E480E4B98473E210020AF
:102C40000D4B98470D4CA0470028FCD00C4B9847E3
:102C50000C4A0D4B9A620D4CA0470028FCD0102066
:102C60000B4B98470B4B98470B48024B984710BDAE
:102C7000000E270725304000752D4000C92D40006B
:102C8000D92D4000013F0F2000040E40E92D4000E7
:102C9000112D4000192F400000D8B80510B54FF491
:102CA0000042184B5A600920174CA0470A20A04741
:102CB0000B20A0470C20A0470D20A047134B4FF43A
:102CC00080021A61C3F8A0201A63A3F5C06304222E
:102CD0005A61C3F8A0205A66C3F890205A651A6258
:102CE000C3F88420196F21F004011967596F21F08E
:102CF00004015967C3F8C020C3F8D420C3F8B0203A
:102D000010BD00BF50180E40F92D400000140E40B9
:102D1000174A136B23F0700318431063936E13F07C
:102D2000080F0AD14FF4006311498A6E12F0080FA0
:102D300003D1013BF9D1012070470D4A136B23F0F9
:102D4000030343F002031363936E13F0080F0AD1D9
:102D50004FF4006306498A6E12F0080F05D1013B5B
:102D6000F9D101207047002070470020704700BF54
:102D700000040E40C8B9114A136A090289B223F44B
:102D80005C1323F0030343F45C1343F001030B4390
:102D90001362936E13F0010FFBD0084A136A43F0DD
:102DA0009B7343F480331362704704490B6A044AEF
:102DB0001A40044B13430B62704700BF00040E40DF
:102DC000FCFFC8FE02003701024B986E00F4803011
:102DD000704700BF00040E404FF00052014B9A6252
:102DE000704700BF00040E40024B986E00F00200D6
:102DF000704700BF00040E402F281ED81F280CD893
:102E0000114B9A6901238340934318D0012303FA9D
:102E100000F00D4B18610020704720380A4BD3F8A2
:102E200008210123834093430BD0012303FA00F0D0
:102E3000054BC3F8000100207047012070470020B7
:102E400070470020704700BF00040E40FEE70000FE
:102E500000B583B0254B264A9A4210D0254B234A11
:102E60009A420CD2013B9B1A23F003030433134410
:102E70001F4951F8040B42F8040B9A42F9D11E4B3A
:102E80001E4A9A420AD2013B9B1A23F003030433E1
:102E90001344002142F8041B9342FBD1184A194BFA
:102EA00023F07F039360EFF31083B3FA83F35B099E
:102EB000019372B6BFF35F8F0022134B1A70019912
:102EC000124A136843F470031360BFF34F8FBFF3CC
:102ED0006F8F29B101220C4B1A70BFF35F8F62B65E
:102EE0000B4B98470B4B9847FEE700BF00000020B4
:102EF0001C38400044040020F00600204404002058
:102F000000ED00E0000040001000002088ED00E02F
:102F100051324000993040003B4B1B6B03F00303E0
:102F2000012B1DD083B1022B36D0374B1B6B03F026
:102F30007003702B5FD0344B1A6B3449C2F302120A
:102F40000B68D3400B607047314B5B6913F0800F07
:102F500014BF4FF400424FF4FA422C4B1A60E4E7DE
:102F6000294B1B6A13F0807F03D02A4A274B1A6033
:102F7000DBE7294A254B1A60234B1B6A03F07003D9
:102F8000102B05D0202BD0D1224A204B1A60CCE741
:102F9000224A1E4B1A60C8E71B4B1B6A13F0807F46
:102FA00016D01C4A194B1A60174B1B6B03F0030316
:102FB000022BBAD1144A916A926A1448C1F30A41A9
:102FC000036801FB0333D2B2B3FBF2F30360ACE757
:102FD000114A0E4B1A600C4B1B6A03F07003102B46
:102FE00005D0202BE0D10B4A084B1A60DCE70B4AD6
:102FF000064B1A60D8E7054A13680949A1FB031379
:103000005B081360704700BF00040E4014000020EE
:1030100010180E40001BB70000093D0000127A0096
:10302000ABAAAAAA124B984211D9124B984213D9B3
:10303000114B984214D9114B984215D9104B984214
:1030400094BF4FF004220F4A0F4B1A6070474FF0A5
:1030500080620D4B1A6070470C4A0B4B1A60704728
:103060000B4A094B1A6070470A4A074B1A607047AF
:10307000FF2C3101FF596202FF869303FFB3C404A2
:10308000FFE0F50500050004000A0E400001000401
:1030900000020004000300042DE9F04395B03F4B0B
:1030A00098473F4B98473F4AC2F1005303F500331E
:1030B00023F00703073222F007020392A3F580638F
:1030C00004934FF0C24305934FF4002306934FF04F
:1030D000C64207920893002409940A9403A8324B2D
:1030E00098470920314DA8470A20A847304B9847F8
:1030F0003048314B9847314B98478DF84F401294E8
:103100000F94109411940C940D940E940B940194BC
:103110004FF00108CDF800800DF14F0382222849BD
:103120002848294DA847224641460520274FB84741
:1031300081461290224632211420B8470646224684
:1031400041461420B847224B18600F960C960D90FC
:10315000CDF838900B960194032300930FAB822295
:103160001C491D48A8470194042300930CAB8222FC
:103170001A491B48A84701940224009412AB8222EA
:1031800018491948A847194B019300940BAB8222A8
:1031900017491848A847184B9847FEE7352C4000B8
:1031A0009D2C4000F0360020B50C4000F92D400069
:1031B000092A400000060E40252B400091054000E2
:1031C000A037400015284000B517400065104000AA
:1031D000C8060020B037400035284000BC3740000A
:1031E00071284000C8374000BD29400080060020FB
:1031F000D837400001294000E519400082B0002383
:1032000001934FF0500383F31188BFF36F8FBFF327
:103210004F8F019B1BB900BF019B002BFBD00023EC
:1032200083F3118802B0704708B5C7210148024BEB
:10323000984708BDE4374000FD3140004FF050038F
:1032400083F31188BFF36F8FBFF34F8FFEE700004A
:1032500070B50F4E0F4D761BB61018BF002405D069
:10326000013455F8043B9847A642F9D10A4E0B4D5C
:10327000761B00F0C1FAB61018BF002406D0013446
:1032800055F8043B9847A642F9D170BD70BD00BF08
:1032900004384000043840000C3840000438400036
:1032A000844641EA000313F003036DD1403A41D351
:1032B00051F8043B40F8043B51F8043B40F8043B10
:1032C00051F8043B40F8043B51F8043B40F8043B00
:1032D00051F8043B40F8043B51F8043B40F8043BF0
:1032E00051F8043B40F8043B51F8043B40F8043BE0
:1032F00051F8043B40F8043B51F8043B40F8043BD0
:1033000051F8043B40F8043B51F8043B40F8043BBF
:1033100051F8043B40F8043B51F8043B40F8043BAF
:1033200051F8043B40F8043B51F8043B40F8043B9F
:10333000403ABDD2303211D351F8043B40F8043B3F
:1033400051F8043B40F8043B51F8043B40F8043B7F
:1033500051F8043B40F8043B103AEDD20C3205D34F
:1033600051F8043B40F8043B043AF9D2043208D047
:10337000D2071CBF11F8013B00F8013B01D30B88B9
:1033800003806046704700BF082A13D38B078DD097
:1033900010F003038AD0C3F10403D21ADB071CBF69
:1033A00011F8013B00F8013B80D331F8023B20F8D3
:1033B000023B7BE7043AD9D3013A11F8013B00F80C
:1033C000013BF9D20B7803704B7843708B78837094
:1033D0006046704770B4860746D0541E002A41D01C
:1033E000CAB2034602E014F1FF343BD303F8012BC9
:1033F0009D07F8D1032C2ED9CDB245EA05250F2C17
:1034000045EA054519D903F110022646103E0F2E54
:1034100042F8105C42F80C5C42F8085C42F8045C2C
:1034200002F11002F2D8A4F1100222F00F0204F00F
:103430000F041032032C13440DD91E462246043AC1
:10344000032A46F8045BFAD8221F22F00302043252
:10345000134404F003042CB1C9B21C4403F8011B4B
:103460009C42FBD170BC704714460346C2E700BFC4
:10347000000000000000000000000000000000004C
:1034800090F800F06DE9024520F007016FF0000CA4
:1034900010F0070491F820F040F049804FF000044C
:1034A0006FF00700D1E9002391F840F000F1080027
:1034B00082FA4CF2A4FA8CF283FA4CF3A2FA8CF35F
:1034C0004BBBD1E9022382FA4CF200F10800A4FAC6
:1034D0008CF283FA4CF3A2FA8CF3E3B9D1E904231A
:1034E00082FA4CF200F10800A4FA8CF283FA4CF351
:1034F000A2FA8CF37BB9D1E9062301F1200182FA0B
:103500004CF200F10800A4FA8CF283FA4CF3A2FA10
:103510008CF3002BC6D0002A04BF04301A4612BA1E
:10352000B2FA82F2FDE8024500EBD2007047D1E921
:10353000002304F00305C4F100004FEAC50514F0B0
:10354000040F91F840F00CFA05F562EA05021CBF81
:1035500063EA050362464FF00004A9E7024B13B18A
:10356000024800F005B87047000000007D354000BB
:10357000002301461A46184600F01EB838B50A4C1A
:103580000A4D641BA4100AD004F18043013B05EBF3
:103590008305013C55F804399847002CF9D1BDE862
:1035A000384000F033B900BF1C38400018384000E4
:1035B000704700BF704700BF2DE9F8432C4D064609
:1035C000286898460F469146FFF7F2FF294B1C6882
:1035D000D4F84831002B3ED05A681F2A1CDC02F177
:1035E000010E76B103EB82010124C1F88890D3F873
:1035F000880194402043022EC3F88801C1F8088155
:1036000023D00232C3F804E0286843F82270FFF7A1
:10361000D1FF0020BDE8F883174B0BB34FF4C870FF
:10362000AFF300800346D8B1D4F8482102600021EE
:1036300041600A46C4F848014FF0010EC0F88811F5
:10364000C0F88C11002EDCD0CCE7D3F88C110C43E1
:10365000C3F88C41D5E704F5A673C4F84831BBE73D
:103660002868FFF7A7FF4FF0FF30BDE8F88300BFE1
:1036700040040020F4374000000000002E2E2F737D
:1036800072632F4672656552544F532F706F727478
:1036900061626C652F4743432F41524D5F434D3468
:1036A000462F706F72742E63000000002E2E2F7351
:1036B00072632F4672656552544F532F706F727448
:1036C00061626C652F4D656D4D616E672F68656138
:1036D000705F352E630000002E2E2F7372632F460D
:1036E00072656552544F532F71756575652E630071
:1036F0002E2E2F7372632F4672656552544F532FCF
:103700007461736B732E630049444C4500000000E4
:10371000546D7251000000002E2E2F7372632F46DD
:1037200072656552544F532F74696D6572732E63C1
:1037300000000000546D7220537663000D0A486546
:103740006C6C6F204672656552544F5320576F72F0
:103750006C640D0A000000000D0A435354203334FA
:103760003720962052544F530D0A00000D0A4C6129
:1037700062203035209620496E74657272757074BF
:103780007320696E204672656552544F530D0A00CE
:103790004D69636861656C204B656172746F6E0082
:1037A0005461736B486561727462656174000000F6
:1037B0005461736B554152545F5458005461736B9C
:1037C000554152545F5258005461736B426C696E9C
:1037D0006B4C4544310000005461736B4275747446
:1037E0006F6E73002E2E2F7372632F6D61696E2EB4
:1037F0006300000018000020F8B500BFF8BC08BC4A
:103800009E4670475D3540001D014000F8B500BF81
:0C381000F8BC08BC9E467047F900400060
:10381C00AAAAAAAA07000000010000007622231819
:10382C000100000000093D0000000000040300201E
:10383C006C030020D40300200000000000000000F6
:10384C00000000000000000000000000000000006C
:10385C00000000000000000000000000000000005C
:10386C00000000000000000000000000000000004C
:10387C00000000000000000000000000000000003C
:10388C00000000000000000000000000000000002C
:10389C00000000000000000000000000000000001C
:1038AC00000000000000000000000000000000000C
:1038BC0000000000000000000000000000000000FC
:1038CC0000000000000000000000000000000000EC
:1038DC0001000000000000000E33CDAB34126DE689
:1038EC00ECDE05000B0000000000000000000000F2
:1038FC0000000000000000000000000000000000BC
:10390C0000000000000000000000000000000000AB
:10391C00000000000000000000000000000000009B
:10392C00000000000000000000000000000000008B
:043C5C00CC06002072
:0400000500402E5138
:00000001FF
